{
	"contracts/Crowdfunding.sol": {
		"Crowdfunding": {
			"abi": [
				{
					"inputs": [
						{
							"internalType": "address",
							"name": "_owner",
							"type": "address"
						},
						{
							"internalType": "string",
							"name": "_name",
							"type": "string"
						},
						{
							"internalType": "string",
							"name": "_description",
							"type": "string"
						},
						{
							"internalType": "uint256",
							"name": "_goal",
							"type": "uint256"
						},
						{
							"internalType": "uint256",
							"name": "_durationInDays",
							"type": "uint256"
						}
					],
					"stateMutability": "nonpayable",
					"type": "constructor"
				},
				{
					"inputs": [
						{
							"internalType": "string",
							"name": "_name",
							"type": "string"
						},
						{
							"internalType": "uint256",
							"name": "_amount",
							"type": "uint256"
						}
					],
					"name": "addTier",
					"outputs": [],
					"stateMutability": "nonpayable",
					"type": "function"
				},
				{
					"inputs": [
						{
							"internalType": "address",
							"name": "",
							"type": "address"
						}
					],
					"name": "backers",
					"outputs": [
						{
							"internalType": "uint256",
							"name": "totalContribution",
							"type": "uint256"
						}
					],
					"stateMutability": "view",
					"type": "function"
				},
				{
					"inputs": [],
					"name": "deadline",
					"outputs": [
						{
							"internalType": "uint256",
							"name": "",
							"type": "uint256"
						}
					],
					"stateMutability": "view",
					"type": "function"
				},
				{
					"inputs": [],
					"name": "description",
					"outputs": [
						{
							"internalType": "string",
							"name": "",
							"type": "string"
						}
					],
					"stateMutability": "view",
					"type": "function"
				},
				{
					"inputs": [
						{
							"internalType": "uint256",
							"name": "_daysToAdd",
							"type": "uint256"
						}
					],
					"name": "extendDeadline",
					"outputs": [],
					"stateMutability": "nonpayable",
					"type": "function"
				},
				{
					"inputs": [
						{
							"internalType": "uint256",
							"name": "_tierIndex",
							"type": "uint256"
						}
					],
					"name": "fund",
					"outputs": [],
					"stateMutability": "payable",
					"type": "function"
				},
				{
					"inputs": [],
					"name": "getCampaginStatus",
					"outputs": [
						{
							"internalType": "enum Crowdfunding.CampaignState",
							"name": "",
							"type": "uint8"
						}
					],
					"stateMutability": "view",
					"type": "function"
				},
				{
					"inputs": [],
					"name": "getContractBalance",
					"outputs": [
						{
							"internalType": "uint256",
							"name": "",
							"type": "uint256"
						}
					],
					"stateMutability": "view",
					"type": "function"
				},
				{
					"inputs": [],
					"name": "getTiers",
					"outputs": [
						{
							"components": [
								{
									"internalType": "string",
									"name": "name",
									"type": "string"
								},
								{
									"internalType": "uint256",
									"name": "amount",
									"type": "uint256"
								},
								{
									"internalType": "uint256",
									"name": "backers",
									"type": "uint256"
								}
							],
							"internalType": "struct Crowdfunding.Tier[]",
							"name": "",
							"type": "tuple[]"
						}
					],
					"stateMutability": "view",
					"type": "function"
				},
				{
					"inputs": [],
					"name": "goal",
					"outputs": [
						{
							"internalType": "uint256",
							"name": "",
							"type": "uint256"
						}
					],
					"stateMutability": "view",
					"type": "function"
				},
				{
					"inputs": [
						{
							"internalType": "address",
							"name": "_backer",
							"type": "address"
						},
						{
							"internalType": "uint256",
							"name": "_tierIndex",
							"type": "uint256"
						}
					],
					"name": "hasFundedTier",
					"outputs": [
						{
							"internalType": "bool",
							"name": "",
							"type": "bool"
						}
					],
					"stateMutability": "view",
					"type": "function"
				},
				{
					"inputs": [],
					"name": "name",
					"outputs": [
						{
							"internalType": "string",
							"name": "",
							"type": "string"
						}
					],
					"stateMutability": "view",
					"type": "function"
				},
				{
					"inputs": [],
					"name": "owner",
					"outputs": [
						{
							"internalType": "address",
							"name": "",
							"type": "address"
						}
					],
					"stateMutability": "view",
					"type": "function"
				},
				{
					"inputs": [],
					"name": "paused",
					"outputs": [
						{
							"internalType": "bool",
							"name": "",
							"type": "bool"
						}
					],
					"stateMutability": "view",
					"type": "function"
				},
				{
					"inputs": [],
					"name": "refund",
					"outputs": [],
					"stateMutability": "nonpayable",
					"type": "function"
				},
				{
					"inputs": [
						{
							"internalType": "uint256",
							"name": "_index",
							"type": "uint256"
						}
					],
					"name": "removeTier",
					"outputs": [],
					"stateMutability": "nonpayable",
					"type": "function"
				},
				{
					"inputs": [],
					"name": "state",
					"outputs": [
						{
							"internalType": "enum Crowdfunding.CampaignState",
							"name": "",
							"type": "uint8"
						}
					],
					"stateMutability": "view",
					"type": "function"
				},
				{
					"inputs": [
						{
							"internalType": "uint256",
							"name": "",
							"type": "uint256"
						}
					],
					"name": "tiers",
					"outputs": [
						{
							"internalType": "string",
							"name": "name",
							"type": "string"
						},
						{
							"internalType": "uint256",
							"name": "amount",
							"type": "uint256"
						},
						{
							"internalType": "uint256",
							"name": "backers",
							"type": "uint256"
						}
					],
					"stateMutability": "view",
					"type": "function"
				},
				{
					"inputs": [],
					"name": "togglePause",
					"outputs": [],
					"stateMutability": "nonpayable",
					"type": "function"
				},
				{
					"inputs": [],
					"name": "withdraw",
					"outputs": [],
					"stateMutability": "nonpayable",
					"type": "function"
				}
			],
			"devdoc": {
				"kind": "dev",
				"methods": {},
				"version": 1
			},
			"evm": {
				"assembly": "    /* \"contracts/Crowdfunding.sol\":57:4169  contract Crowdfunding {... */\n  mstore(0x40, 0x80)\n    /* \"contracts/Crowdfunding.sol\":955:1333  constructor(... */\n  callvalue\n  dup1\n  iszero\n  tag_1\n  jumpi\n  revert(0x00, 0x00)\ntag_1:\n  pop\n  mload(0x40)\n  sub(codesize, bytecodeSize)\n  dup1\n  bytecodeSize\n  dup4\n  codecopy\n  dup2\n  add\n  0x40\n  dup2\n  swap1\n  mstore\n  tag_2\n  swap2\n  tag_3\n  jump\t// in\ntag_2:\n    /* \"contracts/Crowdfunding.sol\":1128:1132  name */\n  0x00\n    /* \"contracts/Crowdfunding.sol\":1128:1140  name = _name */\n  tag_6\n    /* \"contracts/Crowdfunding.sol\":1135:1140  _name */\n  dup6\n    /* \"contracts/Crowdfunding.sol\":1128:1132  name */\n  dup3\n    /* \"contracts/Crowdfunding.sol\":1128:1140  name = _name */\n  tag_7\n  jump\t// in\ntag_6:\n  pop\n    /* \"contracts/Crowdfunding.sol\":1150:1161  description */\n  0x01\n    /* \"contracts/Crowdfunding.sol\":1150:1176  description = _description */\n  tag_8\n    /* \"contracts/Crowdfunding.sol\":1164:1176  _description */\n  dup5\n    /* \"contracts/Crowdfunding.sol\":1150:1161  description */\n  dup3\n    /* \"contracts/Crowdfunding.sol\":1150:1176  description = _description */\n  tag_7\n  jump\t// in\ntag_8:\n  pop\n    /* \"contracts/Crowdfunding.sol\":1186:1190  goal */\n  0x02\n    /* \"contracts/Crowdfunding.sol\":1186:1198  goal = _goal */\n  dup3\n  swap1\n  sstore\n    /* \"contracts/Crowdfunding.sol\":1238:1262  _durationInDays * 1 days */\n  tag_9\n    /* \"contracts/Crowdfunding.sol\":1238:1253  _durationInDays */\n  dup2\n    /* \"contracts/Crowdfunding.sol\":1256:1262  1 days */\n  0x015180\n    /* \"contracts/Crowdfunding.sol\":1238:1262  _durationInDays * 1 days */\n  tag_10\n  jump\t// in\ntag_9:\n    /* \"contracts/Crowdfunding.sol\":1219:1263  block.timestamp + (_durationInDays * 1 days) */\n  tag_11\n  swap1\n    /* \"contracts/Crowdfunding.sol\":1219:1234  block.timestamp */\n  timestamp\n    /* \"contracts/Crowdfunding.sol\":1219:1263  block.timestamp + (_durationInDays * 1 days) */\n  tag_12\n  jump\t// in\ntag_11:\n    /* \"contracts/Crowdfunding.sol\":1208:1216  deadline */\n  0x03\n    /* \"contracts/Crowdfunding.sol\":1208:1263  deadline = block.timestamp + (_durationInDays * 1 days) */\n  sstore\n  pop\n  pop\n    /* \"contracts/Crowdfunding.sol\":1273:1278  owner */\n  0x04\n    /* \"contracts/Crowdfunding.sol\":1273:1287  owner = _owner */\n  dup1\n  sload\n  not(sub(shl(0xa0, 0xff01), 0x01))\n    /* \"contracts/Crowdfunding.sol\":1298:1326  state = CampaignState.Active */\n  and\n  sub(shl(0xa0, 0x01), 0x01)\n    /* \"contracts/Crowdfunding.sol\":1273:1287  owner = _owner */\n  swap5\n  swap1\n  swap5\n  and\n    /* \"contracts/Crowdfunding.sol\":1298:1326  state = CampaignState.Active */\n  swap4\n  swap1\n  swap4\n  or\n  swap1\n  swap3\n  sstore\n  pop\n    /* \"contracts/Crowdfunding.sol\":57:4169  contract Crowdfunding {... */\n  tag_24\n  swap1\n  pop\n  jump\n    /* \"#utility.yul\":14:141   */\ntag_17:\n    /* \"#utility.yul\":75:85   */\n  0x4e487b71\n    /* \"#utility.yul\":70:73   */\n  0xe0\n    /* \"#utility.yul\":66:86   */\n  shl\n    /* \"#utility.yul\":63:64   */\n  0x00\n    /* \"#utility.yul\":56:87   */\n  mstore\n    /* \"#utility.yul\":106:110   */\n  0x41\n    /* \"#utility.yul\":103:104   */\n  0x04\n    /* \"#utility.yul\":96:111   */\n  mstore\n    /* \"#utility.yul\":130:134   */\n  0x24\n    /* \"#utility.yul\":127:128   */\n  0x00\n    /* \"#utility.yul\":120:135   */\n  revert\n    /* \"#utility.yul\":146:869   */\ntag_18:\n    /* \"#utility.yul\":200:205   */\n  0x00\n    /* \"#utility.yul\":253:256   */\n  dup3\n    /* \"#utility.yul\":246:250   */\n  0x1f\n    /* \"#utility.yul\":238:244   */\n  dup4\n    /* \"#utility.yul\":234:251   */\n  add\n    /* \"#utility.yul\":230:257   */\n  slt\n    /* \"#utility.yul\":220:275   */\n  tag_27\n  jumpi\n    /* \"#utility.yul\":271:272   */\n  0x00\n    /* \"#utility.yul\":268:269   */\n  0x00\n    /* \"#utility.yul\":261:273   */\n  revert\n    /* \"#utility.yul\":220:275   */\ntag_27:\n    /* \"#utility.yul\":298:311   */\n  dup2\n  mload\n  sub(shl(0x40, 0x01), 0x01)\n    /* \"#utility.yul\":323:353   */\n  dup2\n  gt\n    /* \"#utility.yul\":320:376   */\n  iszero\n  tag_29\n  jumpi\n    /* \"#utility.yul\":356:374   */\n  tag_29\n  tag_17\n  jump\t// in\ntag_29:\n    /* \"#utility.yul\":405:407   */\n  0x40\n    /* \"#utility.yul\":399:408   */\n  mload\n    /* \"#utility.yul\":497:499   */\n  0x1f\n    /* \"#utility.yul\":459:476   */\n  dup3\n  add\n  not(0x1f)\n    /* \"#utility.yul\":455:486   */\n  swap1\n  dup2\n  and\n    /* \"#utility.yul\":488:490   */\n  0x3f\n    /* \"#utility.yul\":451:491   */\n  add\n    /* \"#utility.yul\":447:501   */\n  and\n    /* \"#utility.yul\":435:502   */\n  dup2\n  add\n  sub(shl(0x40, 0x01), 0x01)\n    /* \"#utility.yul\":517:551   */\n  dup2\n  gt\n    /* \"#utility.yul\":553:575   */\n  dup3\n  dup3\n  lt\n    /* \"#utility.yul\":514:576   */\n  or\n    /* \"#utility.yul\":511:599   */\n  iszero\n  tag_31\n  jumpi\n    /* \"#utility.yul\":579:597   */\n  tag_31\n  tag_17\n  jump\t// in\ntag_31:\n    /* \"#utility.yul\":615:617   */\n  0x40\n    /* \"#utility.yul\":608:630   */\n  mstore\n    /* \"#utility.yul\":639:661   */\n  dup2\n  dup2\n  mstore\n    /* \"#utility.yul\":680:699   */\n  dup4\n  dup3\n  add\n    /* \"#utility.yul\":701:705   */\n  0x20\n    /* \"#utility.yul\":676:706   */\n  add\n    /* \"#utility.yul\":673:712   */\n  dup6\n  lt\n    /* \"#utility.yul\":670:729   */\n  iszero\n  tag_32\n  jumpi\n    /* \"#utility.yul\":725:726   */\n  0x00\n    /* \"#utility.yul\":722:723   */\n  0x00\n    /* \"#utility.yul\":715:727   */\n  revert\n    /* \"#utility.yul\":670:729   */\ntag_32:\n    /* \"#utility.yul\":782:788   */\n  dup2\n    /* \"#utility.yul\":775:779   */\n  0x20\n    /* \"#utility.yul\":767:773   */\n  dup6\n    /* \"#utility.yul\":763:780   */\n  add\n    /* \"#utility.yul\":756:760   */\n  0x20\n    /* \"#utility.yul\":748:754   */\n  dup4\n    /* \"#utility.yul\":744:761   */\n  add\n    /* \"#utility.yul\":738:789   */\n  mcopy\n    /* \"#utility.yul\":837:838   */\n  0x00\n    /* \"#utility.yul\":809:828   */\n  swap2\n  dup2\n  add\n    /* \"#utility.yul\":830:834   */\n  0x20\n    /* \"#utility.yul\":805:835   */\n  add\n    /* \"#utility.yul\":798:839   */\n  swap2\n  swap1\n  swap2\n  mstore\n    /* \"#utility.yul\":813:819   */\n  swap4\n    /* \"#utility.yul\":146:869   */\n  swap3\n  pop\n  pop\n  pop\n  jump\t// out\n    /* \"#utility.yul\":874:1826   */\ntag_3:\n    /* \"#utility.yul\":1000:1006   */\n  0x00\n    /* \"#utility.yul\":1008:1014   */\n  0x00\n    /* \"#utility.yul\":1016:1022   */\n  0x00\n    /* \"#utility.yul\":1024:1030   */\n  0x00\n    /* \"#utility.yul\":1032:1038   */\n  0x00\n    /* \"#utility.yul\":1085:1088   */\n  0xa0\n    /* \"#utility.yul\":1073:1082   */\n  dup7\n    /* \"#utility.yul\":1064:1071   */\n  dup9\n    /* \"#utility.yul\":1060:1083   */\n  sub\n    /* \"#utility.yul\":1056:1089   */\n  slt\n    /* \"#utility.yul\":1053:1106   */\n  iszero\n  tag_34\n  jumpi\n    /* \"#utility.yul\":1102:1103   */\n  0x00\n    /* \"#utility.yul\":1099:1100   */\n  0x00\n    /* \"#utility.yul\":1092:1104   */\n  revert\n    /* \"#utility.yul\":1053:1106   */\ntag_34:\n    /* \"#utility.yul\":1128:1144   */\n  dup6\n  mload\n  sub(shl(0xa0, 0x01), 0x01)\n    /* \"#utility.yul\":1173:1204   */\n  dup2\n  and\n    /* \"#utility.yul\":1163:1205   */\n  dup2\n  eq\n    /* \"#utility.yul\":1153:1223   */\n  tag_35\n  jumpi\n    /* \"#utility.yul\":1219:1220   */\n  0x00\n    /* \"#utility.yul\":1216:1217   */\n  0x00\n    /* \"#utility.yul\":1209:1221   */\n  revert\n    /* \"#utility.yul\":1153:1223   */\ntag_35:\n    /* \"#utility.yul\":1291:1293   */\n  0x20\n    /* \"#utility.yul\":1276:1294   */\n  dup8\n  add\n    /* \"#utility.yul\":1270:1295   */\n  mload\n    /* \"#utility.yul\":1242:1247   */\n  swap1\n  swap6\n  pop\n  sub(shl(0x40, 0x01), 0x01)\n    /* \"#utility.yul\":1307:1337   */\n  dup2\n  gt\n    /* \"#utility.yul\":1304:1354   */\n  iszero\n  tag_36\n  jumpi\n    /* \"#utility.yul\":1350:1351   */\n  0x00\n    /* \"#utility.yul\":1347:1348   */\n  0x00\n    /* \"#utility.yul\":1340:1352   */\n  revert\n    /* \"#utility.yul\":1304:1354   */\ntag_36:\n    /* \"#utility.yul\":1373:1434   */\n  tag_37\n    /* \"#utility.yul\":1426:1433   */\n  dup9\n    /* \"#utility.yul\":1417:1423   */\n  dup3\n    /* \"#utility.yul\":1406:1415   */\n  dup10\n    /* \"#utility.yul\":1402:1424   */\n  add\n    /* \"#utility.yul\":1373:1434   */\n  tag_18\n  jump\t// in\ntag_37:\n    /* \"#utility.yul\":1480:1482   */\n  0x40\n    /* \"#utility.yul\":1465:1483   */\n  dup9\n  add\n    /* \"#utility.yul\":1459:1484   */\n  mload\n    /* \"#utility.yul\":1363:1434   */\n  swap1\n  swap6\n  pop\n    /* \"#utility.yul\":1459:1484   */\n  swap1\n  pop\n  sub(shl(0x40, 0x01), 0x01)\n    /* \"#utility.yul\":1496:1528   */\n  dup2\n  gt\n    /* \"#utility.yul\":1493:1545   */\n  iszero\n  tag_38\n  jumpi\n    /* \"#utility.yul\":1541:1542   */\n  0x00\n    /* \"#utility.yul\":1538:1539   */\n  0x00\n    /* \"#utility.yul\":1531:1543   */\n  revert\n    /* \"#utility.yul\":1493:1545   */\ntag_38:\n    /* \"#utility.yul\":1564:1627   */\n  tag_39\n    /* \"#utility.yul\":1619:1626   */\n  dup9\n    /* \"#utility.yul\":1608:1616   */\n  dup3\n    /* \"#utility.yul\":1597:1606   */\n  dup10\n    /* \"#utility.yul\":1593:1617   */\n  add\n    /* \"#utility.yul\":1564:1627   */\n  tag_18\n  jump\t// in\ntag_39:\n    /* \"#utility.yul\":1693:1695   */\n  0x60\n    /* \"#utility.yul\":1678:1696   */\n  dup9\n  add\n    /* \"#utility.yul\":1672:1697   */\n  mload\n    /* \"#utility.yul\":1789:1792   */\n  0x80\n    /* \"#utility.yul\":1774:1793   */\n  swap1\n  swap9\n  add\n    /* \"#utility.yul\":1768:1794   */\n  mload\n    /* \"#utility.yul\":874:1826   */\n  swap7\n  swap10\n  swap6\n  swap9\n  pop\n    /* \"#utility.yul\":1554:1627   */\n  swap7\n    /* \"#utility.yul\":1672:1697   */\n  swap6\n    /* \"#utility.yul\":1768:1794   */\n  swap5\n    /* \"#utility.yul\":874:1826   */\n  swap4\n  pop\n  pop\n  pop\n  pop\n  jump\t// out\n    /* \"#utility.yul\":1831:2211   */\ntag_19:\n    /* \"#utility.yul\":1910:1911   */\n  0x01\n    /* \"#utility.yul\":1906:1918   */\n  dup2\n  dup2\n  shr\n  swap1\n    /* \"#utility.yul\":1953:1965   */\n  dup3\n  and\n  dup1\n    /* \"#utility.yul\":1974:2035   */\n  tag_41\n  jumpi\n    /* \"#utility.yul\":2028:2032   */\n  0x7f\n    /* \"#utility.yul\":2020:2026   */\n  dup3\n    /* \"#utility.yul\":2016:2033   */\n  and\n    /* \"#utility.yul\":2006:2033   */\n  swap2\n  pop\n    /* \"#utility.yul\":1974:2035   */\ntag_41:\n    /* \"#utility.yul\":2081:2083   */\n  0x20\n    /* \"#utility.yul\":2073:2079   */\n  dup3\n    /* \"#utility.yul\":2070:2084   */\n  lt\n    /* \"#utility.yul\":2050:2068   */\n  dup2\n    /* \"#utility.yul\":2047:2085   */\n  sub\n    /* \"#utility.yul\":2044:2205   */\n  tag_42\n  jumpi\n    /* \"#utility.yul\":2127:2137   */\n  0x4e487b71\n    /* \"#utility.yul\":2122:2125   */\n  0xe0\n    /* \"#utility.yul\":2118:2138   */\n  shl\n    /* \"#utility.yul\":2115:2116   */\n  0x00\n    /* \"#utility.yul\":2108:2139   */\n  mstore\n    /* \"#utility.yul\":2162:2166   */\n  0x22\n    /* \"#utility.yul\":2159:2160   */\n  0x04\n    /* \"#utility.yul\":2152:2167   */\n  mstore\n    /* \"#utility.yul\":2190:2194   */\n  0x24\n    /* \"#utility.yul\":2187:2188   */\n  0x00\n    /* \"#utility.yul\":2180:2195   */\n  revert\n    /* \"#utility.yul\":2044:2205   */\ntag_42:\n  pop\n    /* \"#utility.yul\":1831:2211   */\n  swap2\n  swap1\n  pop\n  jump\t// out\n    /* \"#utility.yul\":2342:2860   */\ntag_21:\n    /* \"#utility.yul\":2444:2446   */\n  0x1f\n    /* \"#utility.yul\":2439:2442   */\n  dup3\n    /* \"#utility.yul\":2436:2447   */\n  gt\n    /* \"#utility.yul\":2433:2854   */\n  iszero\n  tag_45\n  jumpi\n    /* \"#utility.yul\":2480:2485   */\n  dup1\n    /* \"#utility.yul\":2477:2478   */\n  0x00\n    /* \"#utility.yul\":2470:2486   */\n  mstore\n    /* \"#utility.yul\":2524:2528   */\n  0x20\n    /* \"#utility.yul\":2521:2522   */\n  0x00\n    /* \"#utility.yul\":2511:2529   */\n  keccak256\n    /* \"#utility.yul\":2594:2596   */\n  0x1f\n    /* \"#utility.yul\":2582:2592   */\n  dup5\n    /* \"#utility.yul\":2578:2597   */\n  add\n    /* \"#utility.yul\":2575:2576   */\n  0x05\n    /* \"#utility.yul\":2571:2598   */\n  shr\n    /* \"#utility.yul\":2565:2569   */\n  dup2\n    /* \"#utility.yul\":2561:2599   */\n  add\n    /* \"#utility.yul\":2630:2634   */\n  0x20\n    /* \"#utility.yul\":2618:2628   */\n  dup6\n    /* \"#utility.yul\":2615:2635   */\n  lt\n    /* \"#utility.yul\":2612:2659   */\n  iszero\n  tag_46\n  jumpi\n  pop\n    /* \"#utility.yul\":2653:2657   */\n  dup1\n    /* \"#utility.yul\":2612:2659   */\ntag_46:\n    /* \"#utility.yul\":2708:2710   */\n  0x1f\n    /* \"#utility.yul\":2703:2706   */\n  dup5\n    /* \"#utility.yul\":2699:2711   */\n  add\n    /* \"#utility.yul\":2696:2697   */\n  0x05\n    /* \"#utility.yul\":2692:2712   */\n  shr\n    /* \"#utility.yul\":2686:2690   */\n  dup3\n    /* \"#utility.yul\":2682:2713   */\n  add\n    /* \"#utility.yul\":2672:2713   */\n  swap2\n  pop\n    /* \"#utility.yul\":2763:2844   */\ntag_47:\n    /* \"#utility.yul\":2781:2783   */\n  dup2\n    /* \"#utility.yul\":2774:2779   */\n  dup2\n    /* \"#utility.yul\":2771:2784   */\n  lt\n    /* \"#utility.yul\":2763:2844   */\n  iszero\n  tag_49\n  jumpi\n    /* \"#utility.yul\":2840:2841   */\n  0x00\n    /* \"#utility.yul\":2826:2842   */\n  dup2\n  sstore\n    /* \"#utility.yul\":2807:2808   */\n  0x01\n    /* \"#utility.yul\":2796:2809   */\n  add\n    /* \"#utility.yul\":2763:2844   */\n  jump(tag_47)\ntag_49:\n    /* \"#utility.yul\":2767:2770   */\n  pop\n  pop\n    /* \"#utility.yul\":2433:2854   */\ntag_45:\n    /* \"#utility.yul\":2342:2860   */\n  pop\n  pop\n  pop\n  jump\t// out\n    /* \"#utility.yul\":3036:4335   */\ntag_7:\n    /* \"#utility.yul\":3156:3166   */\n  dup2\n  mload\n  sub(shl(0x40, 0x01), 0x01)\n    /* \"#utility.yul\":3178:3208   */\n  dup2\n  gt\n    /* \"#utility.yul\":3175:3231   */\n  iszero\n  tag_53\n  jumpi\n    /* \"#utility.yul\":3211:3229   */\n  tag_53\n  tag_17\n  jump\t// in\ntag_53:\n    /* \"#utility.yul\":3240:3337   */\n  tag_54\n    /* \"#utility.yul\":3330:3336   */\n  dup2\n    /* \"#utility.yul\":3290:3328   */\n  tag_55\n    /* \"#utility.yul\":3322:3326   */\n  dup5\n    /* \"#utility.yul\":3316:3327   */\n  sload\n    /* \"#utility.yul\":3290:3328   */\n  tag_19\n  jump\t// in\ntag_55:\n    /* \"#utility.yul\":3284:3288   */\n  dup5\n    /* \"#utility.yul\":3240:3337   */\n  tag_21\n  jump\t// in\ntag_54:\n    /* \"#utility.yul\":3386:3390   */\n  0x20\n    /* \"#utility.yul\":3417:3419   */\n  0x1f\n    /* \"#utility.yul\":3406:3420   */\n  dup3\n  gt\n    /* \"#utility.yul\":3434:3435   */\n  0x01\n    /* \"#utility.yul\":3429:4078   */\n  dup2\n  eq\n  tag_57\n  jumpi\n    /* \"#utility.yul\":4122:4123   */\n  0x00\n    /* \"#utility.yul\":4139:4145   */\n  dup4\n    /* \"#utility.yul\":4136:4225   */\n  iszero\n  tag_58\n  jumpi\n  pop\n    /* \"#utility.yul\":4191:4210   */\n  dup5\n  dup3\n  add\n    /* \"#utility.yul\":4185:4211   */\n  mload\n    /* \"#utility.yul\":4136:4225   */\ntag_58:\n  not(0x00)\n    /* \"#utility.yul\":2993:2994   */\n  0x03\n    /* \"#utility.yul\":2989:3000   */\n  dup6\n  swap1\n  shl\n    /* \"#utility.yul\":2985:3009   */\n  shr\n    /* \"#utility.yul\":2981:3010   */\n  not\n    /* \"#utility.yul\":2971:3011   */\n  and\n    /* \"#utility.yul\":3017:3018   */\n  0x01\n    /* \"#utility.yul\":3013:3024   */\n  dup5\n  swap1\n  shl\n    /* \"#utility.yul\":2968:3025   */\n  or\n    /* \"#utility.yul\":4238:4319   */\n  dup5\n  sstore\n    /* \"#utility.yul\":3399:4329   */\n  jump(tag_49)\n    /* \"#utility.yul\":3429:4078   */\ntag_57:\n    /* \"#utility.yul\":2289:2290   */\n  0x00\n    /* \"#utility.yul\":2282:2296   */\n  dup5\n  dup2\n  mstore\n    /* \"#utility.yul\":2326:2330   */\n  0x20\n    /* \"#utility.yul\":2313:2331   */\n  dup2\n  keccak256\n  not(0x1f)\n    /* \"#utility.yul\":3465:3485   */\n  dup6\n  and\n  swap2\n    /* \"#utility.yul\":3583:3805   */\ntag_61:\n    /* \"#utility.yul\":3597:3604   */\n  dup3\n    /* \"#utility.yul\":3594:3595   */\n  dup2\n    /* \"#utility.yul\":3591:3605   */\n  lt\n    /* \"#utility.yul\":3583:3805   */\n  iszero\n  tag_63\n  jumpi\n    /* \"#utility.yul\":3679:3698   */\n  dup8\n  dup6\n  add\n    /* \"#utility.yul\":3673:3699   */\n  mload\n    /* \"#utility.yul\":3658:3700   */\n  dup3\n  sstore\n    /* \"#utility.yul\":3786:3790   */\n  0x20\n    /* \"#utility.yul\":3771:3791   */\n  swap5\n  dup6\n  add\n  swap5\n    /* \"#utility.yul\":3739:3740   */\n  0x01\n    /* \"#utility.yul\":3727:3741   */\n  swap1\n  swap3\n  add\n  swap2\n    /* \"#utility.yul\":3613:3625   */\n  add\n    /* \"#utility.yul\":3583:3805   */\n  jump(tag_61)\ntag_63:\n    /* \"#utility.yul\":3587:3590   */\n  pop\n    /* \"#utility.yul\":3833:3839   */\n  dup5\n    /* \"#utility.yul\":3824:3831   */\n  dup3\n    /* \"#utility.yul\":3821:3840   */\n  lt\n    /* \"#utility.yul\":3818:4019   */\n  iszero\n  tag_64\n  jumpi\n    /* \"#utility.yul\":3894:3913   */\n  dup7\n  dup5\n  add\n    /* \"#utility.yul\":3888:3914   */\n  mload\n  not(0x00)\n    /* \"#utility.yul\":3977:3978   */\n  0x03\n    /* \"#utility.yul\":3973:3987   */\n  dup8\n  swap1\n  shl\n    /* \"#utility.yul\":3989:3992   */\n  0xf8\n    /* \"#utility.yul\":3969:3993   */\n  and\n    /* \"#utility.yul\":3965:4002   */\n  shr\n    /* \"#utility.yul\":3961:4003   */\n  not\n    /* \"#utility.yul\":3946:4004   */\n  and\n    /* \"#utility.yul\":3931:4005   */\n  dup2\n  sstore\n    /* \"#utility.yul\":3818:4019   */\ntag_64:\n  pop\n  pop\n  pop\n  pop\n    /* \"#utility.yul\":4065:4066   */\n  0x01\n    /* \"#utility.yul\":4049:4063   */\n  swap1\n  dup2\n  shl\n    /* \"#utility.yul\":4045:4067   */\n  add\n    /* \"#utility.yul\":4032:4068   */\n  swap1\n  sstore\n  pop\n    /* \"#utility.yul\":3036:4335   */\n  jump\t// out\n    /* \"#utility.yul\":4340:4467   */\ntag_23:\n    /* \"#utility.yul\":4401:4411   */\n  0x4e487b71\n    /* \"#utility.yul\":4396:4399   */\n  0xe0\n    /* \"#utility.yul\":4392:4412   */\n  shl\n    /* \"#utility.yul\":4389:4390   */\n  0x00\n    /* \"#utility.yul\":4382:4413   */\n  mstore\n    /* \"#utility.yul\":4432:4436   */\n  0x11\n    /* \"#utility.yul\":4429:4430   */\n  0x04\n    /* \"#utility.yul\":4422:4437   */\n  mstore\n    /* \"#utility.yul\":4456:4460   */\n  0x24\n    /* \"#utility.yul\":4453:4454   */\n  0x00\n    /* \"#utility.yul\":4446:4461   */\n  revert\n    /* \"#utility.yul\":4472:4640   */\ntag_10:\n    /* \"#utility.yul\":4545:4554   */\n  dup1\n  dup3\n  mul\n    /* \"#utility.yul\":4576:4585   */\n  dup2\n  iszero\n    /* \"#utility.yul\":4593:4608   */\n  dup3\n  dup3\n  div\n    /* \"#utility.yul\":4587:4609   */\n  dup5\n  eq\n    /* \"#utility.yul\":4573:4610   */\n  or\n    /* \"#utility.yul\":4563:4634   */\n  tag_68\n  jumpi\n    /* \"#utility.yul\":4614:4632   */\n  tag_68\n  tag_23\n  jump\t// in\ntag_68:\n    /* \"#utility.yul\":4472:4640   */\n  swap3\n  swap2\n  pop\n  pop\n  jump\t// out\n    /* \"#utility.yul\":4645:4770   */\ntag_12:\n    /* \"#utility.yul\":4710:4719   */\n  dup1\n  dup3\n  add\n    /* \"#utility.yul\":4731:4741   */\n  dup1\n  dup3\n  gt\n    /* \"#utility.yul\":4728:4764   */\n  iszero\n  tag_68\n  jumpi\n    /* \"#utility.yul\":4744:4762   */\n  tag_68\n  tag_23\n  jump\t// in\n    /* \"#utility.yul\":4775:4902   */\ntag_24:\n    /* \"contracts/Crowdfunding.sol\":57:4169  contract Crowdfunding {... */\n  dataSize(sub_0)\n  dup1\n  dataOffset(sub_0)\n  0x00\n  codecopy\n  0x00\n  return\nstop\n\nsub_0: assembly {\n        /* \"contracts/Crowdfunding.sol\":57:4169  contract Crowdfunding {... */\n      mstore(0x40, 0x80)\n      jumpi(tag_1, lt(calldatasize, 0x04))\n      shr(0xe0, calldataload(0x00))\n      dup1\n      0x7497211b\n      gt\n      tag_22\n      jumpi\n      dup1\n      0xc19d93fb\n      gt\n      tag_23\n      jumpi\n      dup1\n      0xc19d93fb\n      eq\n      tag_17\n      jumpi\n      dup1\n      0xc4ae3168\n      eq\n      tag_18\n      jumpi\n      dup1\n      0xca1d209d\n      eq\n      tag_19\n      jumpi\n      dup1\n      0xde170570\n      eq\n      tag_20\n      jumpi\n      dup1\n      0xe5e3c065\n      eq\n      tag_21\n      jumpi\n      revert(0x00, 0x00)\n    tag_23:\n      dup1\n      0x7497211b\n      eq\n      tag_12\n      jumpi\n      dup1\n      0x7adba527\n      eq\n      tag_13\n      jumpi\n      dup1\n      0x8da5cb5b\n      eq\n      tag_14\n      jumpi\n      dup1\n      0x8ece7b91\n      eq\n      tag_15\n      jumpi\n      dup1\n      0xb85dfb80\n      eq\n      tag_16\n      jumpi\n      revert(0x00, 0x00)\n    tag_22:\n      dup1\n      0x40193883\n      gt\n      tag_24\n      jumpi\n      dup1\n      0x40193883\n      eq\n      tag_7\n      jumpi\n      dup1\n      0x590e1ae3\n      eq\n      tag_8\n      jumpi\n      dup1\n      0x5c975abb\n      eq\n      tag_9\n      jumpi\n      dup1\n      0x6f9fb98a\n      eq\n      tag_10\n      jumpi\n      dup1\n      0x7284e416\n      eq\n      tag_11\n      jumpi\n      revert(0x00, 0x00)\n    tag_24:\n      dup1\n      0x039af9eb\n      eq\n      tag_2\n      jumpi\n      dup1\n      0x06fdde03\n      eq\n      tag_3\n      jumpi\n      dup1\n      0x29dcb0cf\n      eq\n      tag_4\n      jumpi\n      dup1\n      0x389b7533\n      eq\n      tag_5\n      jumpi\n      dup1\n      0x3ccfd60b\n      eq\n      tag_6\n      jumpi\n    tag_1:\n      revert(0x00, 0x00)\n        /* \"contracts/Crowdfunding.sol\":564:583  Tier[] public tiers */\n    tag_2:\n      callvalue\n      dup1\n      iszero\n      tag_25\n      jumpi\n      revert(0x00, 0x00)\n    tag_25:\n      pop\n      tag_26\n      tag_27\n      calldatasize\n      0x04\n      tag_28\n      jump\t// in\n    tag_27:\n      tag_29\n      jump\t// in\n    tag_26:\n      mload(0x40)\n      tag_30\n      swap4\n      swap3\n      swap2\n      swap1\n      tag_31\n      jump\t// in\n    tag_30:\n      mload(0x40)\n      dup1\n      swap2\n      sub\n      swap1\n      return\n        /* \"contracts/Crowdfunding.sol\":85:103  string public name */\n    tag_3:\n      callvalue\n      dup1\n      iszero\n      tag_32\n      jumpi\n      revert(0x00, 0x00)\n    tag_32:\n      pop\n      tag_33\n      tag_34\n      jump\t// in\n    tag_33:\n      mload(0x40)\n      tag_30\n      swap2\n      swap1\n      tag_36\n      jump\t// in\n        /* \"contracts/Crowdfunding.sol\":165:188  uint256 public deadline */\n    tag_4:\n      callvalue\n      dup1\n      iszero\n      tag_37\n      jumpi\n      revert(0x00, 0x00)\n    tag_37:\n      pop\n      tag_38\n      sload(0x03)\n      dup2\n      jump\n    tag_38:\n      mload(0x40)\n        /* \"#utility.yul\":1277:1302   */\n      swap1\n      dup2\n      mstore\n        /* \"#utility.yul\":1265:1267   */\n      0x20\n        /* \"#utility.yul\":1250:1268   */\n      add\n        /* \"contracts/Crowdfunding.sol\":165:188  uint256 public deadline */\n      tag_30\n        /* \"#utility.yul\":1131:1308   */\n      jump\n        /* \"contracts/Crowdfunding.sol\":4044:4167  function extendDeadline (uint256 _daysToAdd) public onlyOwner campaignOpen {... */\n    tag_5:\n      callvalue\n      dup1\n      iszero\n      tag_42\n      jumpi\n      revert(0x00, 0x00)\n    tag_42:\n      pop\n      tag_43\n      tag_44\n      calldatasize\n      0x04\n      tag_28\n      jump\t// in\n    tag_44:\n      tag_45\n      jump\t// in\n    tag_43:\n      stop\n        /* \"contracts/Crowdfunding.sol\":2638:2949  function withdraw() public onlyOwner {... */\n    tag_6:\n      callvalue\n      dup1\n      iszero\n      tag_46\n      jumpi\n      revert(0x00, 0x00)\n    tag_46:\n      pop\n      tag_43\n      tag_48\n      jump\t// in\n        /* \"contracts/Crowdfunding.sol\":140:159  uint256 public goal */\n    tag_7:\n      callvalue\n      dup1\n      iszero\n      tag_49\n      jumpi\n      revert(0x00, 0x00)\n    tag_49:\n      pop\n      tag_38\n      sload(0x02)\n      dup2\n      jump\n        /* \"contracts/Crowdfunding.sol\":3066:3427  function refund() public {... */\n    tag_8:\n      callvalue\n      dup1\n      iszero\n      tag_53\n      jumpi\n      revert(0x00, 0x00)\n    tag_53:\n      pop\n      tag_43\n      tag_55\n      jump\t// in\n        /* \"contracts/Crowdfunding.sol\":220:238  bool public paused */\n    tag_9:\n      callvalue\n      dup1\n      iszero\n      tag_56\n      jumpi\n      revert(0x00, 0x00)\n    tag_56:\n      pop\n      sload(0x04)\n      tag_57\n      swap1\n      shl(0xa0, 0x01)\n      swap1\n      div\n      0xff\n      and\n      dup2\n      jump\n    tag_57:\n      mload(0x40)\n        /* \"#utility.yul\":1478:1492   */\n      swap1\n      iszero\n        /* \"#utility.yul\":1471:1493   */\n      iszero\n        /* \"#utility.yul\":1453:1494   */\n      dup2\n      mstore\n        /* \"#utility.yul\":1441:1443   */\n      0x20\n        /* \"#utility.yul\":1426:1444   */\n      add\n        /* \"contracts/Crowdfunding.sol\":220:238  bool public paused */\n      tag_30\n        /* \"#utility.yul\":1313:1500   */\n      jump\n        /* \"contracts/Crowdfunding.sol\":2955:3060  function getContractBalance() public view returns (uint256) {... */\n    tag_10:\n      callvalue\n      dup1\n      iszero\n      tag_61\n      jumpi\n      revert(0x00, 0x00)\n    tag_61:\n      pop\n        /* \"contracts/Crowdfunding.sol\":3032:3053  address(this).balance */\n      selfbalance\n        /* \"contracts/Crowdfunding.sol\":2955:3060  function getContractBalance() public view returns (uint256) {... */\n      jump(tag_38)\n        /* \"contracts/Crowdfunding.sol\":109:134  string public description */\n    tag_11:\n      callvalue\n      dup1\n      iszero\n      tag_65\n      jumpi\n      revert(0x00, 0x00)\n    tag_65:\n      pop\n      tag_33\n      tag_67\n      jump\t// in\n        /* \"contracts/Crowdfunding.sol\":2438:2632  function removeTier(uint256 _index) public  onlyOwner {... */\n    tag_12:\n      callvalue\n      dup1\n      iszero\n      tag_69\n      jumpi\n      revert(0x00, 0x00)\n    tag_69:\n      pop\n      tag_43\n      tag_71\n      calldatasize\n      0x04\n      tag_28\n      jump\t// in\n    tag_71:\n      tag_72\n      jump\t// in\n        /* \"contracts/Crowdfunding.sol\":3433:3584  function hasFundedTier(address _backer, uint256 _tierIndex) public view returns (bool) {... */\n    tag_13:\n      callvalue\n      dup1\n      iszero\n      tag_73\n      jumpi\n      revert(0x00, 0x00)\n    tag_73:\n      pop\n      tag_57\n      tag_75\n      calldatasize\n      0x04\n      tag_76\n      jump\t// in\n    tag_75:\n      tag_77\n      jump\t// in\n        /* \"contracts/Crowdfunding.sol\":194:214  address public owner */\n    tag_14:\n      callvalue\n      dup1\n      iszero\n      tag_79\n      jumpi\n      revert(0x00, 0x00)\n    tag_79:\n      pop\n      sload(0x04)\n      tag_80\n      swap1\n      sub(shl(0xa0, 0x01), 0x01)\n      and\n      dup2\n      jump\n    tag_80:\n      mload(0x40)\n      sub(shl(0xa0, 0x01), 0x01)\n        /* \"#utility.yul\":2152:2184   */\n      swap1\n      swap2\n      and\n        /* \"#utility.yul\":2134:2185   */\n      dup2\n      mstore\n        /* \"#utility.yul\":2122:2124   */\n      0x20\n        /* \"#utility.yul\":2107:2125   */\n      add\n        /* \"contracts/Crowdfunding.sol\":194:214  address public owner */\n      tag_30\n        /* \"#utility.yul\":1988:2191   */\n      jump\n        /* \"contracts/Crowdfunding.sol\":2234:2432  function addTier(... */\n    tag_15:\n      callvalue\n      dup1\n      iszero\n      tag_84\n      jumpi\n      revert(0x00, 0x00)\n    tag_84:\n      pop\n      tag_43\n      tag_86\n      calldatasize\n      0x04\n      tag_87\n      jump\t// in\n    tag_86:\n      tag_88\n      jump\t// in\n        /* \"contracts/Crowdfunding.sol\":589:630  mapping(address => Backer) public backers */\n    tag_16:\n      callvalue\n      dup1\n      iszero\n      tag_89\n      jumpi\n      revert(0x00, 0x00)\n    tag_89:\n      pop\n      tag_38\n      tag_91\n      calldatasize\n      0x04\n      tag_92\n      jump\t// in\n    tag_91:\n      mstore(0x20, 0x06)\n      0x00\n      swap1\n      dup2\n      mstore\n      0x40\n      swap1\n      keccak256\n      sload\n      dup2\n      jump\n        /* \"contracts/Crowdfunding.sol\":328:354  CampaignState public state */\n    tag_17:\n      callvalue\n      dup1\n      iszero\n      tag_95\n      jumpi\n      revert(0x00, 0x00)\n    tag_95:\n      pop\n      sload(0x04)\n      tag_96\n      swap1\n      shl(0xa8, 0x01)\n      swap1\n      div\n      0xff\n      and\n      dup2\n      jump\n    tag_96:\n      mload(0x40)\n      tag_30\n      swap2\n      swap1\n      tag_99\n      jump\t// in\n        /* \"contracts/Crowdfunding.sol\":3681:3754  function togglePause() public onlyOwner {... */\n    tag_18:\n      callvalue\n      dup1\n      iszero\n      tag_100\n      jumpi\n      revert(0x00, 0x00)\n    tag_100:\n      pop\n      tag_43\n      tag_102\n      jump\t// in\n        /* \"contracts/Crowdfunding.sol\":1747:2228  function fund(uint256 _tierIndex) public payable campaignOpen notPaused {... */\n    tag_19:\n      tag_43\n      tag_104\n      calldatasize\n      0x04\n      tag_28\n      jump\t// in\n    tag_104:\n      tag_105\n      jump\t// in\n        /* \"contracts/Crowdfunding.sol\":3590:3675  function getTiers() public view returns(Tier[] memory) {... */\n    tag_20:\n      callvalue\n      dup1\n      iszero\n      tag_106\n      jumpi\n      revert(0x00, 0x00)\n    tag_106:\n      pop\n      tag_107\n      tag_108\n      jump\t// in\n    tag_107:\n      mload(0x40)\n      tag_30\n      swap2\n      swap1\n      tag_110\n      jump\t// in\n        /* \"contracts/Crowdfunding.sol\":3760:4038  function getCampaginStatus() public view returns(CampaignState) {... */\n    tag_21:\n      callvalue\n      dup1\n      iszero\n      tag_111\n      jumpi\n      revert(0x00, 0x00)\n    tag_111:\n      pop\n      tag_96\n      tag_113\n      jump\t// in\n        /* \"contracts/Crowdfunding.sol\":564:583  Tier[] public tiers */\n    tag_29:\n      0x05\n      dup2\n      dup2\n      sload\n      dup2\n      lt\n      tag_115\n      jumpi\n      0x00\n      dup1\n      revert\n    tag_115:\n      swap1\n      0x00\n      mstore\n      keccak256(0x00, 0x20)\n      swap1\n      0x03\n      mul\n      add\n      0x00\n      swap2\n      pop\n      swap1\n      pop\n      dup1\n      0x00\n      add\n      dup1\n      sload\n      tag_117\n      swap1\n      tag_118\n      jump\t// in\n    tag_117:\n      dup1\n      0x1f\n      add\n      0x20\n      dup1\n      swap2\n      div\n      mul\n      0x20\n      add\n      mload(0x40)\n      swap1\n      dup2\n      add\n      0x40\n      mstore\n      dup1\n      swap3\n      swap2\n      swap1\n      dup2\n      dup2\n      mstore\n      0x20\n      add\n      dup3\n      dup1\n      sload\n      tag_119\n      swap1\n      tag_118\n      jump\t// in\n    tag_119:\n      dup1\n      iszero\n      tag_120\n      jumpi\n      dup1\n      0x1f\n      lt\n      tag_121\n      jumpi\n      0x0100\n      dup1\n      dup4\n      sload\n      div\n      mul\n      dup4\n      mstore\n      swap2\n      0x20\n      add\n      swap2\n      jump(tag_120)\n    tag_121:\n      dup3\n      add\n      swap2\n      swap1\n      0x00\n      mstore\n      keccak256(0x00, 0x20)\n      swap1\n    tag_122:\n      dup2\n      sload\n      dup2\n      mstore\n      swap1\n      0x01\n      add\n      swap1\n      0x20\n      add\n      dup1\n      dup4\n      gt\n      tag_122\n      jumpi\n      dup3\n      swap1\n      sub\n      0x1f\n      and\n      dup3\n      add\n      swap2\n    tag_120:\n      pop\n      pop\n      pop\n      pop\n      pop\n      swap1\n      dup1\n      0x01\n      add\n      sload\n      swap1\n      dup1\n      0x02\n      add\n      sload\n      swap1\n      pop\n      dup4\n      jump\t// out\n        /* \"contracts/Crowdfunding.sol\":85:103  string public name */\n    tag_34:\n      0x00\n      dup1\n      sload\n      tag_123\n      swap1\n      tag_118\n      jump\t// in\n    tag_123:\n      dup1\n      0x1f\n      add\n      0x20\n      dup1\n      swap2\n      div\n      mul\n      0x20\n      add\n      mload(0x40)\n      swap1\n      dup2\n      add\n      0x40\n      mstore\n      dup1\n      swap3\n      swap2\n      swap1\n      dup2\n      dup2\n      mstore\n      0x20\n      add\n      dup3\n      dup1\n      sload\n      tag_124\n      swap1\n      tag_118\n      jump\t// in\n    tag_124:\n      dup1\n      iszero\n      tag_125\n      jumpi\n      dup1\n      0x1f\n      lt\n      tag_126\n      jumpi\n      0x0100\n      dup1\n      dup4\n      sload\n      div\n      mul\n      dup4\n      mstore\n      swap2\n      0x20\n      add\n      swap2\n      jump(tag_125)\n    tag_126:\n      dup3\n      add\n      swap2\n      swap1\n      0x00\n      mstore\n      keccak256(0x00, 0x20)\n      swap1\n    tag_127:\n      dup2\n      sload\n      dup2\n      mstore\n      swap1\n      0x01\n      add\n      swap1\n      0x20\n      add\n      dup1\n      dup4\n      gt\n      tag_127\n      jumpi\n      dup3\n      swap1\n      sub\n      0x1f\n      and\n      dup3\n      add\n      swap2\n    tag_125:\n      pop\n      pop\n      pop\n      pop\n      pop\n      dup2\n      jump\t// out\n        /* \"contracts/Crowdfunding.sol\":4044:4167  function extendDeadline (uint256 _daysToAdd) public onlyOwner campaignOpen {... */\n    tag_45:\n        /* \"contracts/Crowdfunding.sol\":690:695  owner */\n      and(sub(shl(0xa0, 0x01), 0x01), sload(0x04))\n        /* \"contracts/Crowdfunding.sol\":676:686  msg.sender */\n      caller\n        /* \"contracts/Crowdfunding.sol\":676:695  msg.sender == owner */\n      eq\n        /* \"contracts/Crowdfunding.sol\":668:713  require(msg.sender == owner, \"Not the owner\") */\n      tag_129\n      jumpi\n      mload(0x40)\n      shl(0xe5, 0x461bcd)\n      dup2\n      mstore\n      0x04\n      add\n      tag_130\n      swap1\n      tag_131\n      jump\t// in\n    tag_130:\n      mload(0x40)\n      dup1\n      swap2\n      sub\n      swap1\n      revert\n    tag_129:\n        /* \"contracts/Crowdfunding.sol\":789:809  CampaignState.Active */\n      0x00\n        /* \"contracts/Crowdfunding.sol\":780:785  state */\n      sload(0x04)\n      shl(0xa8, 0x01)\n      swap1\n      div\n      0xff\n      and\n        /* \"contracts/Crowdfunding.sol\":780:809  state == CampaignState.Active */\n      0x02\n      dup2\n      gt\n      iszero\n      tag_137\n      jumpi\n      tag_137\n      tag_135\n      jump\t// in\n    tag_137:\n      eq\n        /* \"contracts/Crowdfunding.sol\":772:836  require(state == CampaignState.Active, \"Campagin is not Active\") */\n      tag_138\n      jumpi\n      mload(0x40)\n      shl(0xe5, 0x461bcd)\n      dup2\n      mstore\n        /* \"#utility.yul\":6076:6078   */\n      0x20\n        /* \"contracts/Crowdfunding.sol\":772:836  require(state == CampaignState.Active, \"Campagin is not Active\") */\n      0x04\n      dup3\n      add\n        /* \"#utility.yul\":6058:6079   */\n      mstore\n        /* \"#utility.yul\":6115:6117   */\n      0x16\n        /* \"#utility.yul\":6095:6113   */\n      0x24\n      dup3\n      add\n        /* \"#utility.yul\":6088:6118   */\n      mstore\n      shl(0x50, 0x43616d706167696e206973206e6f7420416374697665)\n        /* \"#utility.yul\":6134:6152   */\n      0x44\n      dup3\n      add\n        /* \"#utility.yul\":6127:6179   */\n      mstore\n        /* \"#utility.yul\":6196:6214   */\n      0x64\n      add\n        /* \"contracts/Crowdfunding.sol\":772:836  require(state == CampaignState.Active, \"Campagin is not Active\") */\n      tag_130\n        /* \"#utility.yul\":5874:6220   */\n      jump\n        /* \"contracts/Crowdfunding.sol\":772:836  require(state == CampaignState.Active, \"Campagin is not Active\") */\n    tag_138:\n        /* \"contracts/Crowdfunding.sol\":4141:4160  _daysToAdd * 1 days */\n      tag_142\n        /* \"contracts/Crowdfunding.sol\":4141:4151  _daysToAdd */\n      dup2\n        /* \"contracts/Crowdfunding.sol\":4154:4160  1 days */\n      0x015180\n        /* \"contracts/Crowdfunding.sol\":4141:4160  _daysToAdd * 1 days */\n      tag_143\n      jump\t// in\n    tag_142:\n        /* \"contracts/Crowdfunding.sol\":4129:4137  deadline */\n      0x03\n      0x00\n        /* \"contracts/Crowdfunding.sol\":4129:4160  deadline += _daysToAdd * 1 days */\n      dup3\n      dup3\n      sload\n      tag_144\n      swap2\n      swap1\n      tag_145\n      jump\t// in\n    tag_144:\n      swap1\n      swap2\n      sstore\n      pop\n      pop\n      pop\n        /* \"contracts/Crowdfunding.sol\":4044:4167  function extendDeadline (uint256 _daysToAdd) public onlyOwner campaignOpen {... */\n      jump\t// out\n        /* \"contracts/Crowdfunding.sol\":2638:2949  function withdraw() public onlyOwner {... */\n    tag_48:\n        /* \"contracts/Crowdfunding.sol\":690:695  owner */\n      and(sub(shl(0xa0, 0x01), 0x01), sload(0x04))\n        /* \"contracts/Crowdfunding.sol\":676:686  msg.sender */\n      caller\n        /* \"contracts/Crowdfunding.sol\":676:695  msg.sender == owner */\n      eq\n        /* \"contracts/Crowdfunding.sol\":668:713  require(msg.sender == owner, \"Not the owner\") */\n      tag_147\n      jumpi\n      mload(0x40)\n      shl(0xe5, 0x461bcd)\n      dup2\n      mstore\n      0x04\n      add\n      tag_130\n      swap1\n      tag_131\n      jump\t// in\n    tag_147:\n        /* \"contracts/Crowdfunding.sol\":2685:2714  checkAndUpdateCampaignState() */\n      tag_150\n        /* \"contracts/Crowdfunding.sol\":2685:2712  checkAndUpdateCampaignState */\n      tag_151\n        /* \"contracts/Crowdfunding.sol\":2685:2714  checkAndUpdateCampaignState() */\n      jump\t// in\n    tag_150:\n        /* \"contracts/Crowdfunding.sol\":2741:2765  CampaignState.Successful */\n      0x01\n        /* \"contracts/Crowdfunding.sol\":2732:2737  state */\n      sload(0x04)\n      shl(0xa8, 0x01)\n      swap1\n      div\n      0xff\n      and\n        /* \"contracts/Crowdfunding.sol\":2732:2765  state == CampaignState.Successful */\n      0x02\n      dup2\n      gt\n      iszero\n      tag_155\n      jumpi\n      tag_155\n      tag_135\n      jump\t// in\n    tag_155:\n      eq\n        /* \"contracts/Crowdfunding.sol\":2724:2793  require(state == CampaignState.Successful, \"Campagin not successful\") */\n      tag_156\n      jumpi\n      mload(0x40)\n      shl(0xe5, 0x461bcd)\n      dup2\n      mstore\n        /* \"#utility.yul\":6862:6864   */\n      0x20\n        /* \"contracts/Crowdfunding.sol\":2724:2793  require(state == CampaignState.Successful, \"Campagin not successful\") */\n      0x04\n      dup3\n      add\n        /* \"#utility.yul\":6844:6865   */\n      mstore\n        /* \"#utility.yul\":6901:6903   */\n      0x17\n        /* \"#utility.yul\":6881:6899   */\n      0x24\n      dup3\n      add\n        /* \"#utility.yul\":6874:6904   */\n      mstore\n        /* \"#utility.yul\":6940:6965   */\n      0x43616d706167696e206e6f74207375636365737366756c000000000000000000\n        /* \"#utility.yul\":6920:6938   */\n      0x44\n      dup3\n      add\n        /* \"#utility.yul\":6913:6966   */\n      mstore\n        /* \"#utility.yul\":6983:7001   */\n      0x64\n      add\n        /* \"contracts/Crowdfunding.sol\":2724:2793  require(state == CampaignState.Successful, \"Campagin not successful\") */\n      tag_130\n        /* \"#utility.yul\":6660:7007   */\n      jump\n        /* \"contracts/Crowdfunding.sol\":2724:2793  require(state == CampaignState.Successful, \"Campagin not successful\") */\n    tag_156:\n        /* \"contracts/Crowdfunding.sol\":2822:2843  address(this).balance */\n      selfbalance\n        /* \"contracts/Crowdfunding.sol\":2861:2872  balance > 0 */\n      dup1\n        /* \"contracts/Crowdfunding.sol\":2853:2899  require(balance > 0, \"No Balance to withdraw\") */\n      tag_159\n      jumpi\n      mload(0x40)\n      shl(0xe5, 0x461bcd)\n      dup2\n      mstore\n        /* \"#utility.yul\":7214:7216   */\n      0x20\n        /* \"contracts/Crowdfunding.sol\":2853:2899  require(balance > 0, \"No Balance to withdraw\") */\n      0x04\n      dup3\n      add\n        /* \"#utility.yul\":7196:7217   */\n      mstore\n        /* \"#utility.yul\":7253:7255   */\n      0x16\n        /* \"#utility.yul\":7233:7251   */\n      0x24\n      dup3\n      add\n        /* \"#utility.yul\":7226:7256   */\n      mstore\n      shl(0x50, 0x4e6f2042616c616e636520746f207769746864726177)\n        /* \"#utility.yul\":7272:7290   */\n      0x44\n      dup3\n      add\n        /* \"#utility.yul\":7265:7317   */\n      mstore\n        /* \"#utility.yul\":7334:7352   */\n      0x64\n      add\n        /* \"contracts/Crowdfunding.sol\":2853:2899  require(balance > 0, \"No Balance to withdraw\") */\n      tag_130\n        /* \"#utility.yul\":7012:7358   */\n      jump\n        /* \"contracts/Crowdfunding.sol\":2853:2899  require(balance > 0, \"No Balance to withdraw\") */\n    tag_159:\n        /* \"contracts/Crowdfunding.sol\":2918:2923  owner */\n      sload(0x04)\n        /* \"contracts/Crowdfunding.sol\":2910:2942  payable(owner).transfer(balance) */\n      mload(0x40)\n      sub(shl(0xa0, 0x01), 0x01)\n        /* \"contracts/Crowdfunding.sol\":2918:2923  owner */\n      swap1\n      swap2\n      and\n      swap1\n        /* \"contracts/Crowdfunding.sol\":2910:2942  payable(owner).transfer(balance) */\n      dup3\n      iszero\n      0x08fc\n      mul\n      swap1\n        /* \"contracts/Crowdfunding.sol\":2934:2941  balance */\n      dup4\n      swap1\n        /* \"contracts/Crowdfunding.sol\":2918:2923  owner */\n      0x00\n        /* \"contracts/Crowdfunding.sol\":2910:2942  payable(owner).transfer(balance) */\n      dup2\n        /* \"contracts/Crowdfunding.sol\":2918:2923  owner */\n      dup2\n        /* \"contracts/Crowdfunding.sol\":2910:2942  payable(owner).transfer(balance) */\n      dup2\n        /* \"contracts/Crowdfunding.sol\":2934:2941  balance */\n      dup6\n        /* \"contracts/Crowdfunding.sol\":2918:2923  owner */\n      dup9\n        /* \"contracts/Crowdfunding.sol\":2910:2942  payable(owner).transfer(balance) */\n      dup9\n      call\n      swap4\n      pop\n      pop\n      pop\n      pop\n      iszero\n      dup1\n      iszero\n      tag_163\n      jumpi\n      returndatacopy(0x00, 0x00, returndatasize)\n      revert(0x00, returndatasize)\n    tag_163:\n      pop\n        /* \"contracts/Crowdfunding.sol\":2675:2949  {... */\n      pop\n        /* \"contracts/Crowdfunding.sol\":2638:2949  function withdraw() public onlyOwner {... */\n      jump\t// out\n        /* \"contracts/Crowdfunding.sol\":3066:3427  function refund() public {... */\n    tag_55:\n        /* \"contracts/Crowdfunding.sol\":3101:3130  checkAndUpdateCampaignState() */\n      tag_165\n        /* \"contracts/Crowdfunding.sol\":3101:3128  checkAndUpdateCampaignState */\n      tag_151\n        /* \"contracts/Crowdfunding.sol\":3101:3130  checkAndUpdateCampaignState() */\n      jump\t// in\n    tag_165:\n        /* \"contracts/Crowdfunding.sol\":3157:3177  CampaignState.Failed */\n      0x02\n        /* \"contracts/Crowdfunding.sol\":3148:3153  state */\n      sload(0x04)\n      shl(0xa8, 0x01)\n      swap1\n      div\n      0xff\n      and\n        /* \"contracts/Crowdfunding.sol\":3148:3177  state == CampaignState.Failed */\n      0x02\n      dup2\n      gt\n      iszero\n      tag_169\n      jumpi\n      tag_169\n      tag_135\n      jump\t// in\n    tag_169:\n      eq\n        /* \"contracts/Crowdfunding.sol\":3140:3200  require(state == CampaignState.Failed, \"Refunds not failed\") */\n      tag_170\n      jumpi\n      mload(0x40)\n      shl(0xe5, 0x461bcd)\n      dup2\n      mstore\n        /* \"#utility.yul\":7565:7567   */\n      0x20\n        /* \"contracts/Crowdfunding.sol\":3140:3200  require(state == CampaignState.Failed, \"Refunds not failed\") */\n      0x04\n      dup3\n      add\n        /* \"#utility.yul\":7547:7568   */\n      mstore\n        /* \"#utility.yul\":7604:7606   */\n      0x12\n        /* \"#utility.yul\":7584:7602   */\n      0x24\n      dup3\n      add\n        /* \"#utility.yul\":7577:7607   */\n      mstore\n      shl(0x72, 0x1499599d5b991cc81b9bdd0819985a5b1959)\n        /* \"#utility.yul\":7623:7641   */\n      0x44\n      dup3\n      add\n        /* \"#utility.yul\":7616:7664   */\n      mstore\n        /* \"#utility.yul\":7681:7699   */\n      0x64\n      add\n        /* \"contracts/Crowdfunding.sol\":3140:3200  require(state == CampaignState.Failed, \"Refunds not failed\") */\n      tag_130\n        /* \"#utility.yul\":7363:7705   */\n      jump\n        /* \"contracts/Crowdfunding.sol\":3140:3200  require(state == CampaignState.Failed, \"Refunds not failed\") */\n    tag_170:\n        /* \"contracts/Crowdfunding.sol\":3235:3245  msg.sender */\n      caller\n        /* \"contracts/Crowdfunding.sol\":3210:3224  uint256 amount */\n      0x00\n        /* \"contracts/Crowdfunding.sol\":3227:3246  backers[msg.sender] */\n      swap1\n      dup2\n      mstore\n        /* \"contracts/Crowdfunding.sol\":3227:3234  backers */\n      0x06\n        /* \"contracts/Crowdfunding.sol\":3227:3246  backers[msg.sender] */\n      0x20\n      mstore\n      0x40\n      swap1\n      keccak256\n        /* \"contracts/Crowdfunding.sol\":3227:3264  backers[msg.sender].totalContribution */\n      sload\n        /* \"contracts/Crowdfunding.sol\":3282:3292  amount > 0 */\n      dup1\n        /* \"contracts/Crowdfunding.sol\":3274:3322  require(amount > 0, \"no contribution to refund\") */\n      tag_173\n      jumpi\n      mload(0x40)\n      shl(0xe5, 0x461bcd)\n      dup2\n      mstore\n        /* \"#utility.yul\":7912:7914   */\n      0x20\n        /* \"contracts/Crowdfunding.sol\":3274:3322  require(amount > 0, \"no contribution to refund\") */\n      0x04\n      dup3\n      add\n        /* \"#utility.yul\":7894:7915   */\n      mstore\n        /* \"#utility.yul\":7951:7953   */\n      0x19\n        /* \"#utility.yul\":7931:7949   */\n      0x24\n      dup3\n      add\n        /* \"#utility.yul\":7924:7954   */\n      mstore\n        /* \"#utility.yul\":7990:8017   */\n      0x6e6f20636f6e747269627574696f6e20746f20726566756e6400000000000000\n        /* \"#utility.yul\":7970:7988   */\n      0x44\n      dup3\n      add\n        /* \"#utility.yul\":7963:8018   */\n      mstore\n        /* \"#utility.yul\":8035:8053   */\n      0x64\n      add\n        /* \"contracts/Crowdfunding.sol\":3274:3322  require(amount > 0, \"no contribution to refund\") */\n      tag_130\n        /* \"#utility.yul\":7710:8059   */\n      jump\n        /* \"contracts/Crowdfunding.sol\":3274:3322  require(amount > 0, \"no contribution to refund\") */\n    tag_173:\n        /* \"contracts/Crowdfunding.sol\":3341:3351  msg.sender */\n      caller\n        /* \"contracts/Crowdfunding.sol\":3373:3374  0 */\n      0x00\n        /* \"contracts/Crowdfunding.sol\":3333:3352  backers[msg.sender] */\n      dup2\n      dup2\n      mstore\n        /* \"contracts/Crowdfunding.sol\":3333:3340  backers */\n      0x06\n        /* \"contracts/Crowdfunding.sol\":3333:3352  backers[msg.sender] */\n      0x20\n      mstore\n      0x40\n      dup1\n      dup3\n      keccak256\n        /* \"contracts/Crowdfunding.sol\":3333:3374  backers[msg.sender].totalContribution = 0 */\n      dup3\n      swap1\n      sstore\n        /* \"contracts/Crowdfunding.sol\":3384:3420  payable(msg.sender).transfer(amount) */\n      mload\n      dup4\n      iszero\n      0x08fc\n      mul\n      swap2\n        /* \"contracts/Crowdfunding.sol\":3413:3419  amount */\n      dup5\n      swap2\n        /* \"contracts/Crowdfunding.sol\":3384:3420  payable(msg.sender).transfer(amount) */\n      swap1\n      dup2\n        /* \"contracts/Crowdfunding.sol\":3373:3374  0 */\n      dup2\n        /* \"contracts/Crowdfunding.sol\":3384:3420  payable(msg.sender).transfer(amount) */\n      dup2\n        /* \"contracts/Crowdfunding.sol\":3413:3419  amount */\n      dup6\n        /* \"contracts/Crowdfunding.sol\":3341:3351  msg.sender */\n      dup9\n        /* \"contracts/Crowdfunding.sol\":3384:3420  payable(msg.sender).transfer(amount) */\n      dup9\n      call\n      swap4\n      pop\n      pop\n      pop\n      pop\n      iszero\n      dup1\n      iszero\n      tag_163\n      jumpi\n      returndatacopy(0x00, 0x00, returndatasize)\n      revert(0x00, returndatasize)\n        /* \"contracts/Crowdfunding.sol\":109:134  string public description */\n    tag_67:\n      0x01\n      dup1\n      sload\n      tag_123\n      swap1\n      tag_118\n      jump\t// in\n        /* \"contracts/Crowdfunding.sol\":2438:2632  function removeTier(uint256 _index) public  onlyOwner {... */\n    tag_72:\n        /* \"contracts/Crowdfunding.sol\":690:695  owner */\n      and(sub(shl(0xa0, 0x01), 0x01), sload(0x04))\n        /* \"contracts/Crowdfunding.sol\":676:686  msg.sender */\n      caller\n        /* \"contracts/Crowdfunding.sol\":676:695  msg.sender == owner */\n      eq\n        /* \"contracts/Crowdfunding.sol\":668:713  require(msg.sender == owner, \"Not the owner\") */\n      tag_185\n      jumpi\n      mload(0x40)\n      shl(0xe5, 0x461bcd)\n      dup2\n      mstore\n      0x04\n      add\n      tag_130\n      swap1\n      tag_131\n      jump\t// in\n    tag_185:\n        /* \"contracts/Crowdfunding.sol\":2519:2524  tiers */\n      0x05\n        /* \"contracts/Crowdfunding.sol\":2519:2531  tiers.length */\n      sload\n        /* \"contracts/Crowdfunding.sol\":2510:2531  _index < tiers.length */\n      dup2\n      lt\n        /* \"contracts/Crowdfunding.sol\":2502:2555  require(_index < tiers.length, \"tier does not exist\") */\n      tag_188\n      jumpi\n      mload(0x40)\n      shl(0xe5, 0x461bcd)\n      dup2\n      mstore\n        /* \"#utility.yul\":8266:8268   */\n      0x20\n        /* \"contracts/Crowdfunding.sol\":2502:2555  require(_index < tiers.length, \"tier does not exist\") */\n      0x04\n      dup3\n      add\n        /* \"#utility.yul\":8248:8269   */\n      mstore\n        /* \"#utility.yul\":8305:8307   */\n      0x13\n        /* \"#utility.yul\":8285:8303   */\n      0x24\n      dup3\n      add\n        /* \"#utility.yul\":8278:8308   */\n      mstore\n      shl(0x6a, 0x1d1a595c88191bd95cc81b9bdd08195e1a5cdd)\n        /* \"#utility.yul\":8324:8342   */\n      0x44\n      dup3\n      add\n        /* \"#utility.yul\":8317:8366   */\n      mstore\n        /* \"#utility.yul\":8383:8401   */\n      0x64\n      add\n        /* \"contracts/Crowdfunding.sol\":2502:2555  require(_index < tiers.length, \"tier does not exist\") */\n      tag_130\n        /* \"#utility.yul\":8064:8407   */\n      jump\n        /* \"contracts/Crowdfunding.sol\":2502:2555  require(_index < tiers.length, \"tier does not exist\") */\n    tag_188:\n        /* \"contracts/Crowdfunding.sol\":2581:2586  tiers */\n      0x05\n        /* \"contracts/Crowdfunding.sol\":2587:2599  tiers.length */\n      dup1\n      sload\n        /* \"contracts/Crowdfunding.sol\":2587:2603  tiers.length - 1 */\n      tag_191\n      swap1\n        /* \"contracts/Crowdfunding.sol\":2602:2603  1 */\n      0x01\n      swap1\n        /* \"contracts/Crowdfunding.sol\":2587:2603  tiers.length - 1 */\n      tag_192\n      jump\t// in\n    tag_191:\n        /* \"contracts/Crowdfunding.sol\":2581:2604  tiers[tiers.length - 1] */\n      dup2\n      sload\n      dup2\n      lt\n      tag_194\n      jumpi\n      tag_194\n      tag_195\n      jump\t// in\n    tag_194:\n      swap1\n      0x00\n      mstore\n      keccak256(0x00, 0x20)\n      swap1\n      0x03\n      mul\n      add\n        /* \"contracts/Crowdfunding.sol\":2565:2570  tiers */\n      0x05\n        /* \"contracts/Crowdfunding.sol\":2571:2577  _index */\n      dup3\n        /* \"contracts/Crowdfunding.sol\":2565:2578  tiers[_index] */\n      dup2\n      sload\n      dup2\n      lt\n      tag_198\n      jumpi\n      tag_198\n      tag_195\n      jump\t// in\n    tag_198:\n      0x00\n      swap2\n      dup3\n      mstore\n      0x20\n      swap1\n      swap2\n      keccak256\n      0x03\n      swap1\n      swap2\n      mul\n      add\n      dup1\n        /* \"contracts/Crowdfunding.sol\":2565:2604  tiers[_index] = tiers[tiers.length - 1] */\n      tag_200\n      dup4\n        /* \"contracts/Crowdfunding.sol\":2565:2578  tiers[_index] */\n      dup3\n        /* \"contracts/Crowdfunding.sol\":2565:2604  tiers[_index] = tiers[tiers.length - 1] */\n      tag_201\n      jump\t// in\n    tag_200:\n      pop\n      0x01\n      dup3\n      dup2\n      add\n      sload\n      swap1\n      dup3\n      add\n      sstore\n      0x02\n      swap2\n      dup3\n      add\n      sload\n      swap2\n      add\n      sstore\n        /* \"contracts/Crowdfunding.sol\":2614:2619  tiers */\n      0x05\n        /* \"contracts/Crowdfunding.sol\":2614:2625  tiers.pop() */\n      dup1\n      sload\n      dup1\n      tag_203\n      jumpi\n      tag_203\n      tag_204\n      jump\t// in\n    tag_203:\n      0x00\n      dup3\n      dup2\n      mstore\n      0x20\n      dup2\n      keccak256\n      not(0x00)\n      swap1\n      swap3\n      add\n      swap2\n      0x03\n      dup4\n      mul\n      add\n      swap1\n      tag_206\n      dup3\n      dup3\n      tag_207\n      jump\t// in\n    tag_206:\n      pop\n      0x00\n      0x01\n      dup3\n      add\n      dup2\n      swap1\n      sstore\n      0x02\n      swap1\n      swap2\n      add\n      sstore\n      swap1\n      sstore\n      pop\n        /* \"contracts/Crowdfunding.sol\":2438:2632  function removeTier(uint256 _index) public  onlyOwner {... */\n      jump\t// out\n        /* \"contracts/Crowdfunding.sol\":3433:3584  function hasFundedTier(address _backer, uint256 _tierIndex) public view returns (bool) {... */\n    tag_77:\n      sub(shl(0xa0, 0x01), 0x01)\n        /* \"contracts/Crowdfunding.sol\":3537:3553  backers[_backer] */\n      dup3\n      and\n        /* \"contracts/Crowdfunding.sol\":3514:3518  bool */\n      0x00\n        /* \"contracts/Crowdfunding.sol\":3537:3553  backers[_backer] */\n      swap1\n      dup2\n      mstore\n        /* \"contracts/Crowdfunding.sol\":3537:3544  backers */\n      0x06\n        /* \"contracts/Crowdfunding.sol\":3537:3553  backers[_backer] */\n      0x20\n      swap1\n      dup2\n      mstore\n      0x40\n      dup1\n      dup4\n      keccak256\n        /* \"contracts/Crowdfunding.sol\":3537:3577  backers[_backer].fundedTiers[_tierIndex] */\n      dup5\n      dup5\n      mstore\n        /* \"contracts/Crowdfunding.sol\":3537:3565  backers[_backer].fundedTiers */\n      0x01\n      add\n        /* \"contracts/Crowdfunding.sol\":3537:3577  backers[_backer].fundedTiers[_tierIndex] */\n      swap1\n      swap2\n      mstore\n      swap1\n      keccak256\n      sload\n      0xff\n      and\n        /* \"contracts/Crowdfunding.sol\":3433:3584  function hasFundedTier(address _backer, uint256 _tierIndex) public view returns (bool) {... */\n    tag_208:\n      swap3\n      swap2\n      pop\n      pop\n      jump\t// out\n        /* \"contracts/Crowdfunding.sol\":2234:2432  function addTier(... */\n    tag_88:\n        /* \"contracts/Crowdfunding.sol\":690:695  owner */\n      and(sub(shl(0xa0, 0x01), 0x01), sload(0x04))\n        /* \"contracts/Crowdfunding.sol\":676:686  msg.sender */\n      caller\n        /* \"contracts/Crowdfunding.sol\":676:695  msg.sender == owner */\n      eq\n        /* \"contracts/Crowdfunding.sol\":668:713  require(msg.sender == owner, \"Not the owner\") */\n      tag_210\n      jumpi\n      mload(0x40)\n      shl(0xe5, 0x461bcd)\n      dup2\n      mstore\n      0x04\n      add\n      tag_130\n      swap1\n      tag_131\n      jump\t// in\n    tag_210:\n        /* \"contracts/Crowdfunding.sol\":2356:2357  0 */\n      0x00\n        /* \"contracts/Crowdfunding.sol\":2346:2353  _amount */\n      dup2\n        /* \"contracts/Crowdfunding.sol\":2346:2357  _amount > 0 */\n      gt\n        /* \"contracts/Crowdfunding.sol\":2338:2380  require(_amount > 0, \"Amount must be > 0\") */\n      tag_213\n      jumpi\n      mload(0x40)\n      shl(0xe5, 0x461bcd)\n      dup2\n      mstore\n        /* \"#utility.yul\":11229:11231   */\n      0x20\n        /* \"contracts/Crowdfunding.sol\":2338:2380  require(_amount > 0, \"Amount must be > 0\") */\n      0x04\n      dup3\n      add\n        /* \"#utility.yul\":11211:11232   */\n      mstore\n        /* \"#utility.yul\":11268:11270   */\n      0x12\n        /* \"#utility.yul\":11248:11266   */\n      0x24\n      dup3\n      add\n        /* \"#utility.yul\":11241:11271   */\n      mstore\n      shl(0x74, 0x0416d6f756e74206d757374206265203e203)\n        /* \"#utility.yul\":11287:11305   */\n      0x44\n      dup3\n      add\n        /* \"#utility.yul\":11280:11328   */\n      mstore\n        /* \"#utility.yul\":11345:11363   */\n      0x64\n      add\n        /* \"contracts/Crowdfunding.sol\":2338:2380  require(_amount > 0, \"Amount must be > 0\") */\n      tag_130\n        /* \"#utility.yul\":11027:11369   */\n      jump\n        /* \"contracts/Crowdfunding.sol\":2338:2380  require(_amount > 0, \"Amount must be > 0\") */\n    tag_213:\n        /* \"contracts/Crowdfunding.sol\":2401:2424  Tier(_name, _amount, 0) */\n      0x40\n      dup1\n      mload\n      0x60\n      dup2\n      add\n      dup3\n      mstore\n      dup4\n      dup2\n      mstore\n      0x20\n      dup2\n      add\n      dup4\n      swap1\n      mstore\n      0x00\n      swap2\n      dup2\n      add\n      dup3\n      swap1\n      mstore\n        /* \"contracts/Crowdfunding.sol\":2390:2395  tiers */\n      0x05\n        /* \"contracts/Crowdfunding.sol\":2390:2425  tiers.push(Tier(_name, _amount, 0)) */\n      dup1\n      sload\n      0x01\n      dup2\n      add\n      dup3\n      sstore\n      swap3\n      mstore\n      dup1\n      mload\n        /* \"contracts/Crowdfunding.sol\":2401:2424  Tier(_name, _amount, 0) */\n      swap1\n      swap2\n        /* \"contracts/Crowdfunding.sol\":2390:2425  tiers.push(Tier(_name, _amount, 0)) */\n      0x03\n      mul\n      0x036b6384b5eca791c62761152d0c79bb0604c104a5fb6f4eb0703f3154bb3db0\n      add\n      swap1\n      dup2\n      swap1\n      tag_217\n      swap1\n      dup3\n      tag_218\n      jump\t// in\n    tag_217:\n      pop\n      0x20\n      dup3\n      add\n      mload\n      dup2\n      0x01\n      add\n      sstore\n      0x40\n      dup3\n      add\n      mload\n      dup2\n      0x02\n      add\n      sstore\n      pop\n      pop\n        /* \"contracts/Crowdfunding.sol\":2234:2432  function addTier(... */\n      pop\n      pop\n      jump\t// out\n        /* \"contracts/Crowdfunding.sol\":3681:3754  function togglePause() public onlyOwner {... */\n    tag_102:\n        /* \"contracts/Crowdfunding.sol\":690:695  owner */\n      and(sub(shl(0xa0, 0x01), 0x01), sload(0x04))\n        /* \"contracts/Crowdfunding.sol\":676:686  msg.sender */\n      caller\n        /* \"contracts/Crowdfunding.sol\":676:695  msg.sender == owner */\n      eq\n        /* \"contracts/Crowdfunding.sol\":668:713  require(msg.sender == owner, \"Not the owner\") */\n      tag_220\n      jumpi\n      mload(0x40)\n      shl(0xe5, 0x461bcd)\n      dup2\n      mstore\n      0x04\n      add\n      tag_130\n      swap1\n      tag_131\n      jump\t// in\n    tag_220:\n        /* \"contracts/Crowdfunding.sol\":3741:3747  paused */\n      0x04\n      dup1\n      sload\n      not(shl(0xa0, 0xff))\n        /* \"contracts/Crowdfunding.sol\":3731:3747  paused = !paused */\n      dup2\n      and\n      shl(0xa0, 0x01)\n        /* \"contracts/Crowdfunding.sol\":3741:3747  paused */\n      swap2\n      dup3\n      swap1\n      div\n      0xff\n      and\n        /* \"contracts/Crowdfunding.sol\":3740:3747  !paused */\n      iszero\n        /* \"contracts/Crowdfunding.sol\":3731:3747  paused = !paused */\n      swap1\n      swap2\n      mul\n      or\n      swap1\n      sstore\n        /* \"contracts/Crowdfunding.sol\":3681:3754  function togglePause() public onlyOwner {... */\n      jump\t// out\n        /* \"contracts/Crowdfunding.sol\":1747:2228  function fund(uint256 _tierIndex) public payable campaignOpen notPaused {... */\n    tag_105:\n        /* \"contracts/Crowdfunding.sol\":789:809  CampaignState.Active */\n      0x00\n        /* \"contracts/Crowdfunding.sol\":780:785  state */\n      sload(0x04)\n      shl(0xa8, 0x01)\n      swap1\n      div\n      0xff\n      and\n        /* \"contracts/Crowdfunding.sol\":780:809  state == CampaignState.Active */\n      0x02\n      dup2\n      gt\n      iszero\n      tag_227\n      jumpi\n      tag_227\n      tag_135\n      jump\t// in\n    tag_227:\n      eq\n        /* \"contracts/Crowdfunding.sol\":772:836  require(state == CampaignState.Active, \"Campagin is not Active\") */\n      tag_228\n      jumpi\n      mload(0x40)\n      shl(0xe5, 0x461bcd)\n      dup2\n      mstore\n        /* \"#utility.yul\":6076:6078   */\n      0x20\n        /* \"contracts/Crowdfunding.sol\":772:836  require(state == CampaignState.Active, \"Campagin is not Active\") */\n      0x04\n      dup3\n      add\n        /* \"#utility.yul\":6058:6079   */\n      mstore\n        /* \"#utility.yul\":6115:6117   */\n      0x16\n        /* \"#utility.yul\":6095:6113   */\n      0x24\n      dup3\n      add\n        /* \"#utility.yul\":6088:6118   */\n      mstore\n      shl(0x50, 0x43616d706167696e206973206e6f7420416374697665)\n        /* \"#utility.yul\":6134:6152   */\n      0x44\n      dup3\n      add\n        /* \"#utility.yul\":6127:6179   */\n      mstore\n        /* \"#utility.yul\":6196:6214   */\n      0x64\n      add\n        /* \"contracts/Crowdfunding.sol\":772:836  require(state == CampaignState.Active, \"Campagin is not Active\") */\n      tag_130\n        /* \"#utility.yul\":5874:6220   */\n      jump\n        /* \"contracts/Crowdfunding.sol\":772:836  require(state == CampaignState.Active, \"Campagin is not Active\") */\n    tag_228:\n        /* \"contracts/Crowdfunding.sol\":900:906  paused */\n      sload(0x04)\n      shl(0xa0, 0x01)\n      swap1\n      div\n      0xff\n      and\n        /* \"contracts/Crowdfunding.sol\":899:906  !paused */\n      iszero\n        /* \"contracts/Crowdfunding.sol\":891:930  require(!paused, \"contract is paused.\") */\n      tag_231\n      jumpi\n      mload(0x40)\n      shl(0xe5, 0x461bcd)\n      dup2\n      mstore\n        /* \"#utility.yul\":12880:12882   */\n      0x20\n        /* \"contracts/Crowdfunding.sol\":891:930  require(!paused, \"contract is paused.\") */\n      0x04\n      dup3\n      add\n        /* \"#utility.yul\":12862:12883   */\n      mstore\n        /* \"#utility.yul\":12919:12921   */\n      0x13\n        /* \"#utility.yul\":12899:12917   */\n      0x24\n      dup3\n      add\n        /* \"#utility.yul\":12892:12922   */\n      mstore\n      shl(0x69, 0x31b7b73a3930b1ba1034b9903830bab9b2b217)\n        /* \"#utility.yul\":12938:12956   */\n      0x44\n      dup3\n      add\n        /* \"#utility.yul\":12931:12980   */\n      mstore\n        /* \"#utility.yul\":12997:13015   */\n      0x64\n      add\n        /* \"contracts/Crowdfunding.sol\":891:930  require(!paused, \"contract is paused.\") */\n      tag_130\n        /* \"#utility.yul\":12678:13021   */\n      jump\n        /* \"contracts/Crowdfunding.sol\":891:930  require(!paused, \"contract is paused.\") */\n    tag_231:\n        /* \"contracts/Crowdfunding.sol\":1855:1863  deadline */\n      sload(0x03)\n        /* \"contracts/Crowdfunding.sol\":1837:1852  block.timestamp */\n      timestamp\n        /* \"contracts/Crowdfunding.sol\":1837:1863  block.timestamp < deadline */\n      lt\n        /* \"contracts/Crowdfunding.sol\":1829:1886  require(block.timestamp < deadline, \"Compagin has ended\") */\n      tag_235\n      jumpi\n      mload(0x40)\n      shl(0xe5, 0x461bcd)\n      dup2\n      mstore\n        /* \"#utility.yul\":13228:13230   */\n      0x20\n        /* \"contracts/Crowdfunding.sol\":1829:1886  require(block.timestamp < deadline, \"Compagin has ended\") */\n      0x04\n      dup3\n      add\n        /* \"#utility.yul\":13210:13231   */\n      mstore\n        /* \"#utility.yul\":13267:13269   */\n      0x12\n        /* \"#utility.yul\":13247:13265   */\n      0x24\n      dup3\n      add\n        /* \"#utility.yul\":13240:13270   */\n      mstore\n      shl(0x72, 0x10dbdb5c1859da5b881a185cc8195b991959)\n        /* \"#utility.yul\":13286:13304   */\n      0x44\n      dup3\n      add\n        /* \"#utility.yul\":13279:13327   */\n      mstore\n        /* \"#utility.yul\":13344:13362   */\n      0x64\n      add\n        /* \"contracts/Crowdfunding.sol\":1829:1886  require(block.timestamp < deadline, \"Compagin has ended\") */\n      tag_130\n        /* \"#utility.yul\":13026:13368   */\n      jump\n        /* \"contracts/Crowdfunding.sol\":1829:1886  require(block.timestamp < deadline, \"Compagin has ended\") */\n    tag_235:\n        /* \"contracts/Crowdfunding.sol\":1917:1922  tiers */\n      0x05\n        /* \"contracts/Crowdfunding.sol\":1917:1929  tiers.length */\n      sload\n        /* \"contracts/Crowdfunding.sol\":1904:1929  _tierIndex < tiers.length */\n      dup2\n      lt\n        /* \"contracts/Crowdfunding.sol\":1896:1946  require(_tierIndex < tiers.length, \"Invalid Tier\") */\n      tag_238\n      jumpi\n      mload(0x40)\n      shl(0xe5, 0x461bcd)\n      dup2\n      mstore\n        /* \"#utility.yul\":13575:13577   */\n      0x20\n        /* \"contracts/Crowdfunding.sol\":1896:1946  require(_tierIndex < tiers.length, \"Invalid Tier\") */\n      0x04\n      dup3\n      add\n        /* \"#utility.yul\":13557:13578   */\n      mstore\n        /* \"#utility.yul\":13614:13616   */\n      0x0c\n        /* \"#utility.yul\":13594:13612   */\n      0x24\n      dup3\n      add\n        /* \"#utility.yul\":13587:13617   */\n      mstore\n      shl(0xa1, 0x24b73b30b634b2102a34b2b9)\n        /* \"#utility.yul\":13633:13651   */\n      0x44\n      dup3\n      add\n        /* \"#utility.yul\":13626:13668   */\n      mstore\n        /* \"#utility.yul\":13685:13703   */\n      0x64\n      add\n        /* \"contracts/Crowdfunding.sol\":1896:1946  require(_tierIndex < tiers.length, \"Invalid Tier\") */\n      tag_130\n        /* \"#utility.yul\":13373:13709   */\n      jump\n        /* \"contracts/Crowdfunding.sol\":1896:1946  require(_tierIndex < tiers.length, \"Invalid Tier\") */\n    tag_238:\n        /* \"contracts/Crowdfunding.sol\":1977:1982  tiers */\n      0x05\n        /* \"contracts/Crowdfunding.sol\":1983:1993  _tierIndex */\n      dup2\n        /* \"contracts/Crowdfunding.sol\":1977:1994  tiers[_tierIndex] */\n      dup2\n      sload\n      dup2\n      lt\n      tag_242\n      jumpi\n      tag_242\n      tag_195\n      jump\t// in\n    tag_242:\n      swap1\n      0x00\n      mstore\n      keccak256(0x00, 0x20)\n      swap1\n      0x03\n      mul\n      add\n        /* \"contracts/Crowdfunding.sol\":1977:2001  tiers[_tierIndex].amount */\n      0x01\n      add\n      sload\n        /* \"contracts/Crowdfunding.sol\":1964:1973  msg.value */\n      callvalue\n        /* \"contracts/Crowdfunding.sol\":1964:2001  msg.value == tiers[_tierIndex].amount */\n      eq\n        /* \"contracts/Crowdfunding.sol\":1956:2022  require(msg.value == tiers[_tierIndex].amount, \"Incorrect amount\") */\n      tag_244\n      jumpi\n      mload(0x40)\n      shl(0xe5, 0x461bcd)\n      dup2\n      mstore\n        /* \"#utility.yul\":13916:13918   */\n      0x20\n        /* \"contracts/Crowdfunding.sol\":1956:2022  require(msg.value == tiers[_tierIndex].amount, \"Incorrect amount\") */\n      0x04\n      dup3\n      add\n        /* \"#utility.yul\":13898:13919   */\n      mstore\n        /* \"#utility.yul\":13955:13957   */\n      0x10\n        /* \"#utility.yul\":13935:13953   */\n      0x24\n      dup3\n      add\n        /* \"#utility.yul\":13928:13958   */\n      mstore\n      shl(0x82, 0x125b98dbdc9c9958dd08185b5bdd5b9d)\n        /* \"#utility.yul\":13974:13992   */\n      0x44\n      dup3\n      add\n        /* \"#utility.yul\":13967:14013   */\n      mstore\n        /* \"#utility.yul\":14030:14048   */\n      0x64\n      add\n        /* \"contracts/Crowdfunding.sol\":1956:2022  require(msg.value == tiers[_tierIndex].amount, \"Incorrect amount\") */\n      tag_130\n        /* \"#utility.yul\":13714:14054   */\n      jump\n        /* \"contracts/Crowdfunding.sol\":1956:2022  require(msg.value == tiers[_tierIndex].amount, \"Incorrect amount\") */\n    tag_244:\n        /* \"contracts/Crowdfunding.sol\":2033:2038  tiers */\n      0x05\n        /* \"contracts/Crowdfunding.sol\":2039:2049  _tierIndex */\n      dup2\n        /* \"contracts/Crowdfunding.sol\":2033:2050  tiers[_tierIndex] */\n      dup2\n      sload\n      dup2\n      lt\n      tag_248\n      jumpi\n      tag_248\n      tag_195\n      jump\t// in\n    tag_248:\n      0x00\n      swap2\n      dup3\n      mstore\n      0x20\n      dup3\n      keccak256\n        /* \"contracts/Crowdfunding.sol\":2033:2058  tiers[_tierIndex].backers */\n      0x02\n        /* \"contracts/Crowdfunding.sol\":2033:2050  tiers[_tierIndex] */\n      0x03\n      swap1\n      swap3\n      mul\n      add\n        /* \"contracts/Crowdfunding.sol\":2033:2058  tiers[_tierIndex].backers */\n      add\n        /* \"contracts/Crowdfunding.sol\":2033:2060  tiers[_tierIndex].backers++ */\n      dup1\n      sload\n      swap2\n      tag_250\n      dup4\n      tag_251\n      jump\t// in\n    tag_250:\n      swap1\n      swap2\n      sstore\n      pop\n      pop\n        /* \"contracts/Crowdfunding.sol\":2079:2089  msg.sender */\n      caller\n        /* \"contracts/Crowdfunding.sol\":2071:2090  backers[msg.sender] */\n      0x00\n      swap1\n      dup2\n      mstore\n        /* \"contracts/Crowdfunding.sol\":2071:2078  backers */\n      0x06\n        /* \"contracts/Crowdfunding.sol\":2071:2090  backers[msg.sender] */\n      0x20\n      mstore\n      0x40\n      dup2\n      keccak256\n        /* \"contracts/Crowdfunding.sol\":2071:2121  backers[msg.sender].totalContribution += msg.value */\n      dup1\n      sload\n        /* \"contracts/Crowdfunding.sol\":2112:2121  msg.value */\n      callvalue\n      swap3\n        /* \"contracts/Crowdfunding.sol\":2071:2090  backers[msg.sender] */\n      swap1\n        /* \"contracts/Crowdfunding.sol\":2071:2121  backers[msg.sender].totalContribution += msg.value */\n      tag_252\n      swap1\n        /* \"contracts/Crowdfunding.sol\":2112:2121  msg.value */\n      dup5\n      swap1\n        /* \"contracts/Crowdfunding.sol\":2071:2121  backers[msg.sender].totalContribution += msg.value */\n      tag_145\n      jump\t// in\n    tag_252:\n      swap1\n      swap2\n      sstore\n      pop\n      pop\n        /* \"contracts/Crowdfunding.sol\":2139:2149  msg.sender */\n      caller\n        /* \"contracts/Crowdfunding.sol\":2131:2150  backers[msg.sender] */\n      0x00\n      swap1\n      dup2\n      mstore\n        /* \"contracts/Crowdfunding.sol\":2131:2138  backers */\n      0x06\n        /* \"contracts/Crowdfunding.sol\":2131:2150  backers[msg.sender] */\n      0x20\n      swap1\n      dup2\n      mstore\n      0x40\n      dup1\n      dup4\n      keccak256\n        /* \"contracts/Crowdfunding.sol\":2131:2174  backers[msg.sender].fundedTiers[_tierIndex] */\n      dup5\n      dup5\n      mstore\n        /* \"contracts/Crowdfunding.sol\":2177:2181  true */\n      0x01\n        /* \"contracts/Crowdfunding.sol\":2131:2162  backers[msg.sender].fundedTiers */\n      swap1\n      dup2\n      add\n        /* \"contracts/Crowdfunding.sol\":2131:2174  backers[msg.sender].fundedTiers[_tierIndex] */\n      swap1\n      swap3\n      mstore\n      swap1\n      swap2\n      keccak256\n        /* \"contracts/Crowdfunding.sol\":2131:2181  backers[msg.sender].fundedTiers[_tierIndex] = true */\n      dup1\n      sload\n      not(0xff)\n      and\n      swap1\n      swap2\n      or\n      swap1\n      sstore\n        /* \"contracts/Crowdfunding.sol\":2192:2221  checkAndUpdateCampaignState() */\n      tag_253\n        /* \"contracts/Crowdfunding.sol\":2192:2219  checkAndUpdateCampaignState */\n      tag_151\n        /* \"contracts/Crowdfunding.sol\":2192:2221  checkAndUpdateCampaignState() */\n      jump\t// in\n    tag_253:\n        /* \"contracts/Crowdfunding.sol\":1747:2228  function fund(uint256 _tierIndex) public payable campaignOpen notPaused {... */\n      pop\n      jump\t// out\n        /* \"contracts/Crowdfunding.sol\":3590:3675  function getTiers() public view returns(Tier[] memory) {... */\n    tag_108:\n        /* \"contracts/Crowdfunding.sol\":3630:3643  Tier[] memory */\n      0x60\n        /* \"contracts/Crowdfunding.sol\":3662:3667  tiers */\n      0x05\n        /* \"contracts/Crowdfunding.sol\":3655:3667  return tiers */\n      dup1\n      sload\n      dup1\n      0x20\n      mul\n      0x20\n      add\n      mload(0x40)\n      swap1\n      dup2\n      add\n      0x40\n      mstore\n      dup1\n      swap3\n      swap2\n      swap1\n      dup2\n      dup2\n      mstore\n      0x20\n      add\n      0x00\n      swap1\n    tag_255:\n      dup3\n      dup3\n      lt\n      iszero\n      tag_256\n      jumpi\n      dup4\n      dup3\n      swap1\n      0x00\n      mstore\n      keccak256(0x00, 0x20)\n      swap1\n      0x03\n      mul\n      add\n      mload(0x40)\n      dup1\n      0x60\n      add\n      0x40\n      mstore\n      swap1\n      dup2\n      0x00\n      dup3\n      add\n      dup1\n      sload\n      tag_258\n      swap1\n      tag_118\n      jump\t// in\n    tag_258:\n      dup1\n      0x1f\n      add\n      0x20\n      dup1\n      swap2\n      div\n      mul\n      0x20\n      add\n      mload(0x40)\n      swap1\n      dup2\n      add\n      0x40\n      mstore\n      dup1\n      swap3\n      swap2\n      swap1\n      dup2\n      dup2\n      mstore\n      0x20\n      add\n      dup3\n      dup1\n      sload\n      tag_259\n      swap1\n      tag_118\n      jump\t// in\n    tag_259:\n      dup1\n      iszero\n      tag_260\n      jumpi\n      dup1\n      0x1f\n      lt\n      tag_261\n      jumpi\n      0x0100\n      dup1\n      dup4\n      sload\n      div\n      mul\n      dup4\n      mstore\n      swap2\n      0x20\n      add\n      swap2\n      jump(tag_260)\n    tag_261:\n      dup3\n      add\n      swap2\n      swap1\n      0x00\n      mstore\n      keccak256(0x00, 0x20)\n      swap1\n    tag_262:\n      dup2\n      sload\n      dup2\n      mstore\n      swap1\n      0x01\n      add\n      swap1\n      0x20\n      add\n      dup1\n      dup4\n      gt\n      tag_262\n      jumpi\n      dup3\n      swap1\n      sub\n      0x1f\n      and\n      dup3\n      add\n      swap2\n    tag_260:\n      pop\n      pop\n      pop\n      pop\n      pop\n      dup2\n      mstore\n      0x20\n      add\n      0x01\n      dup3\n      add\n      sload\n      dup2\n      mstore\n      0x20\n      add\n      0x02\n      dup3\n      add\n      sload\n      dup2\n      mstore\n      pop\n      pop\n      dup2\n      mstore\n      0x20\n      add\n      swap1\n      0x01\n      add\n      swap1\n      jump(tag_255)\n    tag_256:\n      pop\n      pop\n      pop\n      pop\n      swap1\n      pop\n        /* \"contracts/Crowdfunding.sol\":3590:3675  function getTiers() public view returns(Tier[] memory) {... */\n      swap1\n      jump\t// out\n        /* \"contracts/Crowdfunding.sol\":3760:4038  function getCampaginStatus() public view returns(CampaignState) {... */\n    tag_113:\n        /* \"contracts/Crowdfunding.sol\":3809:3822  CampaignState */\n      0x00\n      dup1\n        /* \"contracts/Crowdfunding.sol\":3838:3843  state */\n      sload(0x04)\n      shl(0xa8, 0x01)\n      swap1\n      div\n      0xff\n      and\n        /* \"contracts/Crowdfunding.sol\":3838:3867  state == CampaignState.Active */\n      0x02\n      dup2\n      gt\n      iszero\n      tag_267\n      jumpi\n      tag_267\n      tag_135\n      jump\t// in\n    tag_267:\n      eq\n        /* \"contracts/Crowdfunding.sol\":3838:3897  state == CampaignState.Active && block.timestamp > deadline */\n      dup1\n      iszero\n      tag_268\n      jumpi\n      pop\n        /* \"contracts/Crowdfunding.sol\":3889:3897  deadline */\n      sload(0x03)\n        /* \"contracts/Crowdfunding.sol\":3871:3886  block.timestamp */\n      timestamp\n        /* \"contracts/Crowdfunding.sol\":3871:3897  block.timestamp > deadline */\n      gt\n        /* \"contracts/Crowdfunding.sol\":3838:3897  state == CampaignState.Active && block.timestamp > deadline */\n    tag_268:\n        /* \"contracts/Crowdfunding.sol\":3834:4010  if (state == CampaignState.Active && block.timestamp > deadline) {... */\n      iszero\n      tag_269\n      jumpi\n        /* \"contracts/Crowdfunding.sol\":3945:3949  goal */\n      sload(0x02)\n        /* \"contracts/Crowdfunding.sol\":3920:3941  address(this).balance */\n      selfbalance\n        /* \"contracts/Crowdfunding.sol\":3920:3949  address(this).balance >= goal */\n      lt\n      iszero\n        /* \"contracts/Crowdfunding.sol\":3920:3999  address(this).balance >= goal ? CampaignState.Successful : CampaignState.Failed */\n      tag_270\n      jumpi\n      pop\n        /* \"contracts/Crowdfunding.sol\":3979:3999  CampaignState.Failed */\n      0x02\n      swap1\n        /* \"contracts/Crowdfunding.sol\":3760:4038  function getCampaginStatus() public view returns(CampaignState) {... */\n      jump\t// out\n        /* \"contracts/Crowdfunding.sol\":3920:3999  address(this).balance >= goal ? CampaignState.Successful : CampaignState.Failed */\n    tag_270:\n      pop\n        /* \"contracts/Crowdfunding.sol\":3952:3976  CampaignState.Successful */\n      0x01\n      swap1\n        /* \"contracts/Crowdfunding.sol\":3760:4038  function getCampaginStatus() public view returns(CampaignState) {... */\n      jump\t// out\n        /* \"contracts/Crowdfunding.sol\":3834:4010  if (state == CampaignState.Active && block.timestamp > deadline) {... */\n    tag_269:\n      pop\n        /* \"contracts/Crowdfunding.sol\":4026:4031  state */\n      sload(0x04)\n      shl(0xa8, 0x01)\n      swap1\n      div\n      0xff\n      and\n      swap1\n        /* \"contracts/Crowdfunding.sol\":3760:4038  function getCampaginStatus() public view returns(CampaignState) {... */\n      jump\t// out\n        /* \"contracts/Crowdfunding.sol\":1339:1741  function checkAndUpdateCampaignState() internal {... */\n    tag_151:\n        /* \"contracts/Crowdfunding.sol\":1410:1430  CampaignState.Active */\n      0x00\n        /* \"contracts/Crowdfunding.sol\":1401:1406  state */\n      sload(0x04)\n      shl(0xa8, 0x01)\n      swap1\n      div\n      0xff\n      and\n        /* \"contracts/Crowdfunding.sol\":1401:1430  state == CampaignState.Active */\n      0x02\n      dup2\n      gt\n      iszero\n      tag_276\n      jumpi\n      tag_276\n      tag_135\n      jump\t// in\n    tag_276:\n      sub\n        /* \"contracts/Crowdfunding.sol\":1397:1735  if (state == CampaignState.Active) {... */\n      tag_283\n      jumpi\n        /* \"contracts/Crowdfunding.sol\":1469:1477  deadline */\n      sload(0x03)\n        /* \"contracts/Crowdfunding.sol\":1450:1465  block.timestamp */\n      timestamp\n        /* \"contracts/Crowdfunding.sol\":1450:1477  block.timestamp >= deadline */\n      lt\n        /* \"contracts/Crowdfunding.sol\":1446:1725  if (block.timestamp >= deadline) {... */\n      tag_278\n      jumpi\n        /* \"contracts/Crowdfunding.sol\":1530:1534  goal */\n      sload(0x02)\n        /* \"contracts/Crowdfunding.sol\":1505:1526  address(this).balance */\n      selfbalance\n        /* \"contracts/Crowdfunding.sol\":1505:1534  address(this).balance >= goal */\n      lt\n      iszero\n        /* \"contracts/Crowdfunding.sol\":1505:1584  address(this).balance >= goal ? CampaignState.Successful : CampaignState.Failed */\n      tag_279\n      jumpi\n        /* \"contracts/Crowdfunding.sol\":1564:1584  CampaignState.Failed */\n      0x02\n        /* \"contracts/Crowdfunding.sol\":1505:1584  address(this).balance >= goal ? CampaignState.Successful : CampaignState.Failed */\n      jump(tag_280)\n    tag_279:\n        /* \"contracts/Crowdfunding.sol\":1537:1561  CampaignState.Successful */\n      0x01\n        /* \"contracts/Crowdfunding.sol\":1505:1584  address(this).balance >= goal ? CampaignState.Successful : CampaignState.Failed */\n    tag_280:\n        /* \"contracts/Crowdfunding.sol\":1497:1502  state */\n      0x04\n        /* \"contracts/Crowdfunding.sol\":1497:1584  state = address(this).balance >= goal ? CampaignState.Successful : CampaignState.Failed */\n      dup1\n      sload\n      not(shl(0xa8, 0xff))\n      and\n      shl(0xa8, 0x01)\n      dup4\n      0x02\n      dup2\n      gt\n      iszero\n      tag_282\n      jumpi\n      tag_282\n      tag_135\n      jump\t// in\n    tag_282:\n      mul\n      or\n      swap1\n      sstore\n      pop\n        /* \"contracts/Crowdfunding.sol\":1339:1741  function checkAndUpdateCampaignState() internal {... */\n      jump\t// out\n        /* \"contracts/Crowdfunding.sol\":1446:1725  if (block.timestamp >= deadline) {... */\n    tag_278:\n        /* \"contracts/Crowdfunding.sol\":1656:1660  goal */\n      sload(0x02)\n        /* \"contracts/Crowdfunding.sol\":1631:1652  address(this).balance */\n      selfbalance\n        /* \"contracts/Crowdfunding.sol\":1631:1660  address(this).balance >= goal */\n      lt\n      iszero\n        /* \"contracts/Crowdfunding.sol\":1631:1710  address(this).balance >= goal ? CampaignState.Successful : CampaignState.Active */\n      tag_279\n      jumpi\n        /* \"contracts/Crowdfunding.sol\":1690:1710  CampaignState.Active */\n      0x00\n        /* \"contracts/Crowdfunding.sol\":1631:1710  address(this).balance >= goal ? CampaignState.Successful : CampaignState.Active */\n      jump(tag_280)\n        /* \"contracts/Crowdfunding.sol\":1446:1725  if (block.timestamp >= deadline) {... */\n    tag_283:\n        /* \"contracts/Crowdfunding.sol\":1339:1741  function checkAndUpdateCampaignState() internal {... */\n      jump\t// out\n    tag_207:\n      pop\n      dup1\n      sload\n      tag_288\n      swap1\n      tag_118\n      jump\t// in\n    tag_288:\n      0x00\n      dup3\n      sstore\n      dup1\n      0x1f\n      lt\n      tag_290\n      jumpi\n      pop\n      pop\n      jump\t// out\n    tag_290:\n      0x1f\n      add\n      0x20\n      swap1\n      div\n      swap1\n      0x00\n      mstore\n      keccak256(0x00, 0x20)\n      swap1\n      dup2\n      add\n      swap1\n      tag_253\n      swap2\n      swap1\n    tag_293:\n      dup1\n      dup3\n      gt\n      iszero\n      tag_294\n      jumpi\n      0x00\n      dup2\n      sstore\n      0x01\n      add\n      jump(tag_293)\n    tag_294:\n      pop\n      swap1\n      jump\t// out\n        /* \"#utility.yul\":14:240   */\n    tag_28:\n        /* \"#utility.yul\":73:79   */\n      0x00\n        /* \"#utility.yul\":126:128   */\n      0x20\n        /* \"#utility.yul\":114:123   */\n      dup3\n        /* \"#utility.yul\":105:112   */\n      dup5\n        /* \"#utility.yul\":101:124   */\n      sub\n        /* \"#utility.yul\":97:129   */\n      slt\n        /* \"#utility.yul\":94:146   */\n      iszero\n      tag_304\n      jumpi\n        /* \"#utility.yul\":142:143   */\n      0x00\n        /* \"#utility.yul\":139:140   */\n      0x00\n        /* \"#utility.yul\":132:144   */\n      revert\n        /* \"#utility.yul\":94:146   */\n    tag_304:\n      pop\n        /* \"#utility.yul\":187:210   */\n      calldataload\n      swap2\n        /* \"#utility.yul\":14:240   */\n      swap1\n      pop\n      jump\t// out\n        /* \"#utility.yul\":245:534   */\n    tag_295:\n        /* \"#utility.yul\":287:290   */\n      0x00\n        /* \"#utility.yul\":325:330   */\n      dup2\n        /* \"#utility.yul\":319:331   */\n      mload\n        /* \"#utility.yul\":352:358   */\n      dup1\n        /* \"#utility.yul\":347:350   */\n      dup5\n        /* \"#utility.yul\":340:359   */\n      mstore\n        /* \"#utility.yul\":408:414   */\n      dup1\n        /* \"#utility.yul\":401:405   */\n      0x20\n        /* \"#utility.yul\":394:399   */\n      dup5\n        /* \"#utility.yul\":390:406   */\n      add\n        /* \"#utility.yul\":383:387   */\n      0x20\n        /* \"#utility.yul\":378:381   */\n      dup7\n        /* \"#utility.yul\":374:388   */\n      add\n        /* \"#utility.yul\":368:415   */\n      mcopy\n        /* \"#utility.yul\":460:461   */\n      0x00\n        /* \"#utility.yul\":453:457   */\n      0x20\n        /* \"#utility.yul\":444:450   */\n      dup3\n        /* \"#utility.yul\":439:442   */\n      dup7\n        /* \"#utility.yul\":435:451   */\n      add\n        /* \"#utility.yul\":431:458   */\n      add\n        /* \"#utility.yul\":424:462   */\n      mstore\n        /* \"#utility.yul\":523:527   */\n      0x20\n        /* \"#utility.yul\":516:518   */\n      0x1f\n        /* \"#utility.yul\":512:519   */\n      not\n        /* \"#utility.yul\":507:509   */\n      0x1f\n        /* \"#utility.yul\":499:505   */\n      dup4\n        /* \"#utility.yul\":495:510   */\n      add\n        /* \"#utility.yul\":491:520   */\n      and\n        /* \"#utility.yul\":486:489   */\n      dup6\n        /* \"#utility.yul\":482:521   */\n      add\n        /* \"#utility.yul\":478:528   */\n      add\n        /* \"#utility.yul\":471:528   */\n      swap2\n      pop\n      pop\n        /* \"#utility.yul\":245:534   */\n      swap3\n      swap2\n      pop\n      pop\n      jump\t// out\n        /* \"#utility.yul\":539:901   */\n    tag_31:\n        /* \"#utility.yul\":744:746   */\n      0x60\n        /* \"#utility.yul\":733:742   */\n      dup2\n        /* \"#utility.yul\":726:747   */\n      mstore\n        /* \"#utility.yul\":707:711   */\n      0x00\n        /* \"#utility.yul\":764:809   */\n      tag_307\n        /* \"#utility.yul\":805:807   */\n      0x60\n        /* \"#utility.yul\":794:803   */\n      dup4\n        /* \"#utility.yul\":790:808   */\n      add\n        /* \"#utility.yul\":782:788   */\n      dup7\n        /* \"#utility.yul\":764:809   */\n      tag_295\n      jump\t// in\n    tag_307:\n        /* \"#utility.yul\":840:842   */\n      0x20\n        /* \"#utility.yul\":825:843   */\n      dup4\n      add\n        /* \"#utility.yul\":818:852   */\n      swap5\n      swap1\n      swap5\n      mstore\n      pop\n        /* \"#utility.yul\":883:885   */\n      0x40\n        /* \"#utility.yul\":868:886   */\n      add\n        /* \"#utility.yul\":861:895   */\n      mstore\n        /* \"#utility.yul\":756:809   */\n      swap2\n        /* \"#utility.yul\":539:901   */\n      swap1\n      pop\n      jump\t// out\n        /* \"#utility.yul\":906:1126   */\n    tag_36:\n        /* \"#utility.yul\":1055:1057   */\n      0x20\n        /* \"#utility.yul\":1044:1053   */\n      dup2\n        /* \"#utility.yul\":1037:1058   */\n      mstore\n        /* \"#utility.yul\":1018:1022   */\n      0x00\n        /* \"#utility.yul\":1075:1120   */\n      tag_309\n        /* \"#utility.yul\":1116:1118   */\n      0x20\n        /* \"#utility.yul\":1105:1114   */\n      dup4\n        /* \"#utility.yul\":1101:1119   */\n      add\n        /* \"#utility.yul\":1093:1099   */\n      dup5\n        /* \"#utility.yul\":1075:1120   */\n      tag_295\n      jump\t// in\n    tag_309:\n        /* \"#utility.yul\":1067:1120   */\n      swap4\n        /* \"#utility.yul\":906:1126   */\n      swap3\n      pop\n      pop\n      pop\n      jump\t// out\n        /* \"#utility.yul\":1505:1678   */\n    tag_296:\n        /* \"#utility.yul\":1573:1593   */\n      dup1\n      calldataload\n      sub(shl(0xa0, 0x01), 0x01)\n        /* \"#utility.yul\":1622:1653   */\n      dup2\n      and\n        /* \"#utility.yul\":1612:1654   */\n      dup2\n      eq\n        /* \"#utility.yul\":1602:1672   */\n      tag_313\n      jumpi\n        /* \"#utility.yul\":1668:1669   */\n      0x00\n        /* \"#utility.yul\":1665:1666   */\n      0x00\n        /* \"#utility.yul\":1658:1670   */\n      revert\n        /* \"#utility.yul\":1602:1672   */\n    tag_313:\n        /* \"#utility.yul\":1505:1678   */\n      swap2\n      swap1\n      pop\n      jump\t// out\n        /* \"#utility.yul\":1683:1983   */\n    tag_76:\n        /* \"#utility.yul\":1751:1757   */\n      0x00\n        /* \"#utility.yul\":1759:1765   */\n      0x00\n        /* \"#utility.yul\":1812:1814   */\n      0x40\n        /* \"#utility.yul\":1800:1809   */\n      dup4\n        /* \"#utility.yul\":1791:1798   */\n      dup6\n        /* \"#utility.yul\":1787:1810   */\n      sub\n        /* \"#utility.yul\":1783:1815   */\n      slt\n        /* \"#utility.yul\":1780:1832   */\n      iszero\n      tag_315\n      jumpi\n        /* \"#utility.yul\":1828:1829   */\n      0x00\n        /* \"#utility.yul\":1825:1826   */\n      0x00\n        /* \"#utility.yul\":1818:1830   */\n      revert\n        /* \"#utility.yul\":1780:1832   */\n    tag_315:\n        /* \"#utility.yul\":1851:1880   */\n      tag_316\n        /* \"#utility.yul\":1870:1879   */\n      dup4\n        /* \"#utility.yul\":1851:1880   */\n      tag_296\n      jump\t// in\n    tag_316:\n        /* \"#utility.yul\":1841:1880   */\n      swap5\n        /* \"#utility.yul\":1949:1951   */\n      0x20\n        /* \"#utility.yul\":1934:1952   */\n      swap4\n      swap1\n      swap4\n      add\n        /* \"#utility.yul\":1921:1953   */\n      calldataload\n      swap4\n      pop\n      pop\n      pop\n        /* \"#utility.yul\":1683:1983   */\n      jump\t// out\n        /* \"#utility.yul\":2196:2323   */\n    tag_297:\n        /* \"#utility.yul\":2257:2267   */\n      0x4e487b71\n        /* \"#utility.yul\":2252:2255   */\n      0xe0\n        /* \"#utility.yul\":2248:2268   */\n      shl\n        /* \"#utility.yul\":2245:2246   */\n      0x00\n        /* \"#utility.yul\":2238:2269   */\n      mstore\n        /* \"#utility.yul\":2288:2292   */\n      0x41\n        /* \"#utility.yul\":2285:2286   */\n      0x04\n        /* \"#utility.yul\":2278:2293   */\n      mstore\n        /* \"#utility.yul\":2312:2316   */\n      0x24\n        /* \"#utility.yul\":2309:2310   */\n      0x00\n        /* \"#utility.yul\":2302:2317   */\n      revert\n        /* \"#utility.yul\":2328:3397   */\n    tag_87:\n        /* \"#utility.yul\":2406:2412   */\n      0x00\n        /* \"#utility.yul\":2414:2420   */\n      0x00\n        /* \"#utility.yul\":2467:2469   */\n      0x40\n        /* \"#utility.yul\":2455:2464   */\n      dup4\n        /* \"#utility.yul\":2446:2453   */\n      dup6\n        /* \"#utility.yul\":2442:2465   */\n      sub\n        /* \"#utility.yul\":2438:2470   */\n      slt\n        /* \"#utility.yul\":2435:2487   */\n      iszero\n      tag_320\n      jumpi\n        /* \"#utility.yul\":2483:2484   */\n      0x00\n        /* \"#utility.yul\":2480:2481   */\n      0x00\n        /* \"#utility.yul\":2473:2485   */\n      revert\n        /* \"#utility.yul\":2435:2487   */\n    tag_320:\n        /* \"#utility.yul\":2523:2532   */\n      dup3\n        /* \"#utility.yul\":2510:2533   */\n      calldataload\n        /* \"#utility.yul\":2556:2574   */\n      0xffffffffffffffff\n        /* \"#utility.yul\":2548:2554   */\n      dup2\n        /* \"#utility.yul\":2545:2575   */\n      gt\n        /* \"#utility.yul\":2542:2592   */\n      iszero\n      tag_321\n      jumpi\n        /* \"#utility.yul\":2588:2589   */\n      0x00\n        /* \"#utility.yul\":2585:2586   */\n      0x00\n        /* \"#utility.yul\":2578:2590   */\n      revert\n        /* \"#utility.yul\":2542:2592   */\n    tag_321:\n        /* \"#utility.yul\":2611:2633   */\n      dup4\n      add\n        /* \"#utility.yul\":2664:2668   */\n      0x1f\n        /* \"#utility.yul\":2656:2669   */\n      dup2\n      add\n        /* \"#utility.yul\":2652:2679   */\n      dup6\n      sgt\n        /* \"#utility.yul\":2642:2697   */\n      tag_322\n      jumpi\n        /* \"#utility.yul\":2693:2694   */\n      0x00\n        /* \"#utility.yul\":2690:2691   */\n      0x00\n        /* \"#utility.yul\":2683:2695   */\n      revert\n        /* \"#utility.yul\":2642:2697   */\n    tag_322:\n        /* \"#utility.yul\":2733:2735   */\n      dup1\n        /* \"#utility.yul\":2720:2736   */\n      calldataload\n        /* \"#utility.yul\":2759:2777   */\n      0xffffffffffffffff\n        /* \"#utility.yul\":2751:2757   */\n      dup2\n        /* \"#utility.yul\":2748:2778   */\n      gt\n        /* \"#utility.yul\":2745:2801   */\n      iszero\n      tag_324\n      jumpi\n        /* \"#utility.yul\":2781:2799   */\n      tag_324\n      tag_297\n      jump\t// in\n    tag_324:\n        /* \"#utility.yul\":2830:2832   */\n      0x40\n        /* \"#utility.yul\":2824:2833   */\n      mload\n        /* \"#utility.yul\":2922:2924   */\n      0x1f\n        /* \"#utility.yul\":2884:2901   */\n      dup3\n      add\n      not(0x1f)\n        /* \"#utility.yul\":2880:2911   */\n      swap1\n      dup2\n      and\n        /* \"#utility.yul\":2913:2915   */\n      0x3f\n        /* \"#utility.yul\":2876:2916   */\n      add\n        /* \"#utility.yul\":2872:2926   */\n      and\n        /* \"#utility.yul\":2860:2927   */\n      dup2\n      add\n        /* \"#utility.yul\":2957:2975   */\n      0xffffffffffffffff\n        /* \"#utility.yul\":2942:2976   */\n      dup2\n      gt\n        /* \"#utility.yul\":2978:3000   */\n      dup3\n      dup3\n      lt\n        /* \"#utility.yul\":2939:3001   */\n      or\n        /* \"#utility.yul\":2936:3024   */\n      iszero\n      tag_326\n      jumpi\n        /* \"#utility.yul\":3004:3022   */\n      tag_326\n      tag_297\n      jump\t// in\n    tag_326:\n        /* \"#utility.yul\":3040:3042   */\n      0x40\n        /* \"#utility.yul\":3033:3055   */\n      mstore\n        /* \"#utility.yul\":3064:3086   */\n      dup2\n      dup2\n      mstore\n        /* \"#utility.yul\":3105:3120   */\n      dup3\n      dup3\n      add\n        /* \"#utility.yul\":3122:3126   */\n      0x20\n        /* \"#utility.yul\":3101:3127   */\n      add\n        /* \"#utility.yul\":3098:3137   */\n      dup8\n      lt\n        /* \"#utility.yul\":3095:3154   */\n      iszero\n      tag_327\n      jumpi\n        /* \"#utility.yul\":3150:3151   */\n      0x00\n        /* \"#utility.yul\":3147:3148   */\n      0x00\n        /* \"#utility.yul\":3140:3152   */\n      revert\n        /* \"#utility.yul\":3095:3154   */\n    tag_327:\n        /* \"#utility.yul\":3210:3216   */\n      dup2\n        /* \"#utility.yul\":3203:3207   */\n      0x20\n        /* \"#utility.yul\":3199:3201   */\n      dup5\n        /* \"#utility.yul\":3195:3208   */\n      add\n        /* \"#utility.yul\":3188:3192   */\n      0x20\n        /* \"#utility.yul\":3180:3186   */\n      dup4\n        /* \"#utility.yul\":3176:3193   */\n      add\n        /* \"#utility.yul\":3163:3217   */\n      calldatacopy\n        /* \"#utility.yul\":3265:3266   */\n      0x00\n        /* \"#utility.yul\":3258:3262   */\n      0x20\n        /* \"#utility.yul\":3237:3256   */\n      swap3\n      dup3\n      add\n        /* \"#utility.yul\":3233:3263   */\n      dup4\n      add\n        /* \"#utility.yul\":3226:3267   */\n      mstore\n        /* \"#utility.yul\":3237:3256   */\n      swap7\n        /* \"#utility.yul\":3346:3366   */\n      swap5\n      add\n        /* \"#utility.yul\":3333:3367   */\n      calldataload\n      swap5\n      pop\n      pop\n      pop\n      pop\n        /* \"#utility.yul\":2328:3397   */\n      jump\t// out\n        /* \"#utility.yul\":3402:3588   */\n    tag_92:\n        /* \"#utility.yul\":3461:3467   */\n      0x00\n        /* \"#utility.yul\":3514:3516   */\n      0x20\n        /* \"#utility.yul\":3502:3511   */\n      dup3\n        /* \"#utility.yul\":3493:3500   */\n      dup5\n        /* \"#utility.yul\":3489:3512   */\n      sub\n        /* \"#utility.yul\":3485:3517   */\n      slt\n        /* \"#utility.yul\":3482:3534   */\n      iszero\n      tag_329\n      jumpi\n        /* \"#utility.yul\":3530:3531   */\n      0x00\n        /* \"#utility.yul\":3527:3528   */\n      0x00\n        /* \"#utility.yul\":3520:3532   */\n      revert\n        /* \"#utility.yul\":3482:3534   */\n    tag_329:\n        /* \"#utility.yul\":3553:3582   */\n      tag_309\n        /* \"#utility.yul\":3572:3581   */\n      dup3\n        /* \"#utility.yul\":3553:3582   */\n      tag_296\n      jump\t// in\n        /* \"#utility.yul\":3593:3720   */\n    tag_135:\n        /* \"#utility.yul\":3654:3664   */\n      0x4e487b71\n        /* \"#utility.yul\":3649:3652   */\n      0xe0\n        /* \"#utility.yul\":3645:3665   */\n      shl\n        /* \"#utility.yul\":3642:3643   */\n      0x00\n        /* \"#utility.yul\":3635:3666   */\n      mstore\n        /* \"#utility.yul\":3685:3689   */\n      0x21\n        /* \"#utility.yul\":3682:3683   */\n      0x04\n        /* \"#utility.yul\":3675:3690   */\n      mstore\n        /* \"#utility.yul\":3709:3713   */\n      0x24\n        /* \"#utility.yul\":3706:3707   */\n      0x00\n        /* \"#utility.yul\":3699:3714   */\n      revert\n        /* \"#utility.yul\":3725:4069   */\n    tag_99:\n        /* \"#utility.yul\":3873:3875   */\n      0x20\n        /* \"#utility.yul\":3858:3876   */\n      dup2\n      add\n        /* \"#utility.yul\":3906:3907   */\n      0x03\n        /* \"#utility.yul\":3895:3908   */\n      dup4\n      lt\n        /* \"#utility.yul\":3885:4029   */\n      tag_333\n      jumpi\n        /* \"#utility.yul\":3951:3961   */\n      0x4e487b71\n        /* \"#utility.yul\":3946:3949   */\n      0xe0\n        /* \"#utility.yul\":3942:3962   */\n      shl\n        /* \"#utility.yul\":3939:3940   */\n      0x00\n        /* \"#utility.yul\":3932:3963   */\n      mstore\n        /* \"#utility.yul\":3986:3990   */\n      0x21\n        /* \"#utility.yul\":3983:3984   */\n      0x04\n        /* \"#utility.yul\":3976:3991   */\n      mstore\n        /* \"#utility.yul\":4014:4018   */\n      0x24\n        /* \"#utility.yul\":4011:4012   */\n      0x00\n        /* \"#utility.yul\":4004:4019   */\n      revert\n        /* \"#utility.yul\":3885:4029   */\n    tag_333:\n        /* \"#utility.yul\":4038:4063   */\n      swap2\n      swap1\n      mstore\n        /* \"#utility.yul\":3725:4069   */\n      swap1\n      jump\t// out\n        /* \"#utility.yul\":4074:5142   */\n    tag_110:\n        /* \"#utility.yul\":4256:4260   */\n      0x00\n        /* \"#utility.yul\":4304:4306   */\n      0x20\n        /* \"#utility.yul\":4293:4302   */\n      dup3\n        /* \"#utility.yul\":4289:4307   */\n      add\n        /* \"#utility.yul\":4334:4336   */\n      0x20\n        /* \"#utility.yul\":4323:4332   */\n      dup4\n        /* \"#utility.yul\":4316:4337   */\n      mstore\n        /* \"#utility.yul\":4357:4363   */\n      dup1\n        /* \"#utility.yul\":4392:4398   */\n      dup5\n        /* \"#utility.yul\":4386:4399   */\n      mload\n        /* \"#utility.yul\":4423:4429   */\n      dup1\n        /* \"#utility.yul\":4415:4421   */\n      dup4\n        /* \"#utility.yul\":4408:4430   */\n      mstore\n        /* \"#utility.yul\":4461:4463   */\n      0x40\n        /* \"#utility.yul\":4450:4459   */\n      dup6\n        /* \"#utility.yul\":4446:4464   */\n      add\n        /* \"#utility.yul\":4439:4464   */\n      swap2\n      pop\n        /* \"#utility.yul\":4523:4525   */\n      0x40\n        /* \"#utility.yul\":4513:4519   */\n      dup2\n        /* \"#utility.yul\":4510:4511   */\n      0x05\n        /* \"#utility.yul\":4506:4520   */\n      shl\n        /* \"#utility.yul\":4495:4504   */\n      dup7\n        /* \"#utility.yul\":4491:4521   */\n      add\n        /* \"#utility.yul\":4487:4526   */\n      add\n        /* \"#utility.yul\":4473:4526   */\n      swap3\n      pop\n        /* \"#utility.yul\":4561:4563   */\n      0x20\n        /* \"#utility.yul\":4553:4559   */\n      dup7\n        /* \"#utility.yul\":4549:4564   */\n      add\n        /* \"#utility.yul\":4582:4583   */\n      0x00\n        /* \"#utility.yul\":4592:5113   */\n    tag_335:\n        /* \"#utility.yul\":4606:4612   */\n      dup3\n        /* \"#utility.yul\":4603:4604   */\n      dup2\n        /* \"#utility.yul\":4600:4613   */\n      lt\n        /* \"#utility.yul\":4592:5113   */\n      iszero\n      tag_337\n      jumpi\n        /* \"#utility.yul\":4699:4701   */\n      0x3f\n        /* \"#utility.yul\":4695:4702   */\n      not\n        /* \"#utility.yul\":4683:4692   */\n      dup8\n        /* \"#utility.yul\":4675:4681   */\n      dup7\n        /* \"#utility.yul\":4671:4693   */\n      sub\n        /* \"#utility.yul\":4667:4703   */\n      add\n        /* \"#utility.yul\":4662:4665   */\n      dup5\n        /* \"#utility.yul\":4655:4704   */\n      mstore\n        /* \"#utility.yul\":4733:4739   */\n      dup2\n        /* \"#utility.yul\":4727:4740   */\n      mload\n        /* \"#utility.yul\":4779:4781   */\n      dup1\n        /* \"#utility.yul\":4773:4782   */\n      mload\n        /* \"#utility.yul\":4810:4814   */\n      0x60\n        /* \"#utility.yul\":4802:4808   */\n      dup8\n        /* \"#utility.yul\":4795:4815   */\n      mstore\n        /* \"#utility.yul\":4842:4892   */\n      tag_338\n        /* \"#utility.yul\":4886:4890   */\n      0x60\n        /* \"#utility.yul\":4878:4884   */\n      dup9\n        /* \"#utility.yul\":4874:4891   */\n      add\n        /* \"#utility.yul\":4860:4872   */\n      dup3\n        /* \"#utility.yul\":4842:4892   */\n      tag_295\n      jump\t// in\n    tag_338:\n        /* \"#utility.yul\":4943:4945   */\n      0x20\n        /* \"#utility.yul\":4935:4946   */\n      dup4\n      dup2\n      add\n        /* \"#utility.yul\":4929:4947   */\n      mload\n        /* \"#utility.yul\":4912:4927   */\n      dup10\n      dup3\n      add\n        /* \"#utility.yul\":4905:4948   */\n      mstore\n        /* \"#utility.yul\":4999:5001   */\n      0x40\n        /* \"#utility.yul\":4991:5002   */\n      swap4\n      dup5\n      add\n        /* \"#utility.yul\":4985:5003   */\n      mload\n        /* \"#utility.yul\":4968:4983   */\n      swap4\n      swap1\n      swap9\n      add\n        /* \"#utility.yul\":4961:5004   */\n      swap3\n      swap1\n      swap3\n      mstore\n      pop\n        /* \"#utility.yul\":4828:4892   */\n      swap5\n        /* \"#utility.yul\":5091:5103   */\n      swap4\n      dup5\n      add\n      swap4\n        /* \"#utility.yul\":5056:5071   */\n      swap2\n      swap1\n      swap2\n      add\n      swap1\n        /* \"#utility.yul\":4628:4629   */\n      0x01\n        /* \"#utility.yul\":4621:4630   */\n      add\n        /* \"#utility.yul\":4592:5113   */\n      jump(tag_335)\n    tag_337:\n      pop\n        /* \"#utility.yul\":5130:5136   */\n      swap3\n      swap7\n        /* \"#utility.yul\":4074:5142   */\n      swap6\n      pop\n      pop\n      pop\n      pop\n      pop\n      pop\n      jump\t// out\n        /* \"#utility.yul\":5147:5527   */\n    tag_118:\n        /* \"#utility.yul\":5226:5227   */\n      0x01\n        /* \"#utility.yul\":5222:5234   */\n      dup2\n      dup2\n      shr\n      swap1\n        /* \"#utility.yul\":5269:5281   */\n      dup3\n      and\n      dup1\n        /* \"#utility.yul\":5290:5351   */\n      tag_340\n      jumpi\n        /* \"#utility.yul\":5344:5348   */\n      0x7f\n        /* \"#utility.yul\":5336:5342   */\n      dup3\n        /* \"#utility.yul\":5332:5349   */\n      and\n        /* \"#utility.yul\":5322:5349   */\n      swap2\n      pop\n        /* \"#utility.yul\":5290:5351   */\n    tag_340:\n        /* \"#utility.yul\":5397:5399   */\n      0x20\n        /* \"#utility.yul\":5389:5395   */\n      dup3\n        /* \"#utility.yul\":5386:5400   */\n      lt\n        /* \"#utility.yul\":5366:5384   */\n      dup2\n        /* \"#utility.yul\":5363:5401   */\n      sub\n        /* \"#utility.yul\":5360:5521   */\n      tag_341\n      jumpi\n        /* \"#utility.yul\":5443:5453   */\n      0x4e487b71\n        /* \"#utility.yul\":5438:5441   */\n      0xe0\n        /* \"#utility.yul\":5434:5454   */\n      shl\n        /* \"#utility.yul\":5431:5432   */\n      0x00\n        /* \"#utility.yul\":5424:5455   */\n      mstore\n        /* \"#utility.yul\":5478:5482   */\n      0x22\n        /* \"#utility.yul\":5475:5476   */\n      0x04\n        /* \"#utility.yul\":5468:5483   */\n      mstore\n        /* \"#utility.yul\":5506:5510   */\n      0x24\n        /* \"#utility.yul\":5503:5504   */\n      0x00\n        /* \"#utility.yul\":5496:5511   */\n      revert\n        /* \"#utility.yul\":5360:5521   */\n    tag_341:\n      pop\n        /* \"#utility.yul\":5147:5527   */\n      swap2\n      swap1\n      pop\n      jump\t// out\n        /* \"#utility.yul\":5532:5869   */\n    tag_131:\n        /* \"#utility.yul\":5734:5736   */\n      0x20\n        /* \"#utility.yul\":5716:5737   */\n      dup1\n      dup3\n      mstore\n        /* \"#utility.yul\":5773:5775   */\n      0x0d\n        /* \"#utility.yul\":5753:5771   */\n      swap1\n      dup3\n      add\n        /* \"#utility.yul\":5746:5776   */\n      mstore\n      shl(0x99, 0x2737ba103a34329037bbb732b9)\n        /* \"#utility.yul\":5807:5809   */\n      0x40\n        /* \"#utility.yul\":5792:5810   */\n      dup3\n      add\n        /* \"#utility.yul\":5785:5828   */\n      mstore\n        /* \"#utility.yul\":5860:5862   */\n      0x60\n        /* \"#utility.yul\":5845:5863   */\n      add\n      swap1\n        /* \"#utility.yul\":5532:5869   */\n      jump\t// out\n        /* \"#utility.yul\":6225:6352   */\n    tag_298:\n        /* \"#utility.yul\":6286:6296   */\n      0x4e487b71\n        /* \"#utility.yul\":6281:6284   */\n      0xe0\n        /* \"#utility.yul\":6277:6297   */\n      shl\n        /* \"#utility.yul\":6274:6275   */\n      0x00\n        /* \"#utility.yul\":6267:6298   */\n      mstore\n        /* \"#utility.yul\":6317:6321   */\n      0x11\n        /* \"#utility.yul\":6314:6315   */\n      0x04\n        /* \"#utility.yul\":6307:6322   */\n      mstore\n        /* \"#utility.yul\":6341:6345   */\n      0x24\n        /* \"#utility.yul\":6338:6339   */\n      0x00\n        /* \"#utility.yul\":6331:6346   */\n      revert\n        /* \"#utility.yul\":6357:6525   */\n    tag_143:\n        /* \"#utility.yul\":6430:6439   */\n      dup1\n      dup3\n      mul\n        /* \"#utility.yul\":6461:6470   */\n      dup2\n      iszero\n        /* \"#utility.yul\":6478:6493   */\n      dup3\n      dup3\n      div\n        /* \"#utility.yul\":6472:6494   */\n      dup5\n      eq\n        /* \"#utility.yul\":6458:6495   */\n      or\n        /* \"#utility.yul\":6448:6519   */\n      tag_208\n      jumpi\n        /* \"#utility.yul\":6499:6517   */\n      tag_208\n      tag_298\n      jump\t// in\n        /* \"#utility.yul\":6530:6655   */\n    tag_145:\n        /* \"#utility.yul\":6595:6604   */\n      dup1\n      dup3\n      add\n        /* \"#utility.yul\":6616:6626   */\n      dup1\n      dup3\n      gt\n        /* \"#utility.yul\":6613:6649   */\n      iszero\n      tag_208\n      jumpi\n        /* \"#utility.yul\":6629:6647   */\n      tag_208\n      tag_298\n      jump\t// in\n        /* \"#utility.yul\":8412:8540   */\n    tag_192:\n        /* \"#utility.yul\":8479:8488   */\n      dup2\n      dup2\n      sub\n        /* \"#utility.yul\":8500:8511   */\n      dup2\n      dup2\n      gt\n        /* \"#utility.yul\":8497:8534   */\n      iszero\n      tag_208\n      jumpi\n        /* \"#utility.yul\":8514:8532   */\n      tag_208\n      tag_298\n      jump\t// in\n        /* \"#utility.yul\":8545:8672   */\n    tag_195:\n        /* \"#utility.yul\":8606:8616   */\n      0x4e487b71\n        /* \"#utility.yul\":8601:8604   */\n      0xe0\n        /* \"#utility.yul\":8597:8617   */\n      shl\n        /* \"#utility.yul\":8594:8595   */\n      0x00\n        /* \"#utility.yul\":8587:8618   */\n      mstore\n        /* \"#utility.yul\":8637:8641   */\n      0x32\n        /* \"#utility.yul\":8634:8635   */\n      0x04\n        /* \"#utility.yul\":8627:8642   */\n      mstore\n        /* \"#utility.yul\":8661:8665   */\n      0x24\n        /* \"#utility.yul\":8658:8659   */\n      0x00\n        /* \"#utility.yul\":8651:8666   */\n      revert\n        /* \"#utility.yul\":8803:9321   */\n    tag_300:\n        /* \"#utility.yul\":8905:8907   */\n      0x1f\n        /* \"#utility.yul\":8900:8903   */\n      dup3\n        /* \"#utility.yul\":8897:8908   */\n      gt\n        /* \"#utility.yul\":8894:9315   */\n      iszero\n      tag_362\n      jumpi\n        /* \"#utility.yul\":8941:8946   */\n      dup1\n        /* \"#utility.yul\":8938:8939   */\n      0x00\n        /* \"#utility.yul\":8931:8947   */\n      mstore\n        /* \"#utility.yul\":8985:8989   */\n      0x20\n        /* \"#utility.yul\":8982:8983   */\n      0x00\n        /* \"#utility.yul\":8972:8990   */\n      keccak256\n        /* \"#utility.yul\":9055:9057   */\n      0x1f\n        /* \"#utility.yul\":9043:9053   */\n      dup5\n        /* \"#utility.yul\":9039:9058   */\n      add\n        /* \"#utility.yul\":9036:9037   */\n      0x05\n        /* \"#utility.yul\":9032:9059   */\n      shr\n        /* \"#utility.yul\":9026:9030   */\n      dup2\n        /* \"#utility.yul\":9022:9060   */\n      add\n        /* \"#utility.yul\":9091:9095   */\n      0x20\n        /* \"#utility.yul\":9079:9089   */\n      dup6\n        /* \"#utility.yul\":9076:9096   */\n      lt\n        /* \"#utility.yul\":9073:9120   */\n      iszero\n      tag_363\n      jumpi\n      pop\n        /* \"#utility.yul\":9114:9118   */\n      dup1\n        /* \"#utility.yul\":9073:9120   */\n    tag_363:\n        /* \"#utility.yul\":9169:9171   */\n      0x1f\n        /* \"#utility.yul\":9164:9167   */\n      dup5\n        /* \"#utility.yul\":9160:9172   */\n      add\n        /* \"#utility.yul\":9157:9158   */\n      0x05\n        /* \"#utility.yul\":9153:9173   */\n      shr\n        /* \"#utility.yul\":9147:9151   */\n      dup3\n        /* \"#utility.yul\":9143:9174   */\n      add\n        /* \"#utility.yul\":9133:9174   */\n      swap2\n      pop\n        /* \"#utility.yul\":9224:9305   */\n    tag_364:\n        /* \"#utility.yul\":9242:9244   */\n      dup2\n        /* \"#utility.yul\":9235:9240   */\n      dup2\n        /* \"#utility.yul\":9232:9245   */\n      lt\n        /* \"#utility.yul\":9224:9305   */\n      iszero\n      tag_366\n      jumpi\n        /* \"#utility.yul\":9301:9302   */\n      0x00\n        /* \"#utility.yul\":9287:9303   */\n      dup2\n      sstore\n        /* \"#utility.yul\":9268:9269   */\n      0x01\n        /* \"#utility.yul\":9257:9270   */\n      add\n        /* \"#utility.yul\":9224:9305   */\n      jump(tag_364)\n    tag_366:\n        /* \"#utility.yul\":9228:9231   */\n      pop\n      pop\n        /* \"#utility.yul\":8894:9315   */\n    tag_362:\n        /* \"#utility.yul\":8803:9321   */\n      pop\n      pop\n      pop\n      jump\t// out\n        /* \"#utility.yul\":9497:10890   */\n    tag_201:\n        /* \"#utility.yul\":9612:9615   */\n      dup2\n        /* \"#utility.yul\":9606:9610   */\n      dup2\n        /* \"#utility.yul\":9603:9616   */\n      sub\n        /* \"#utility.yul\":9600:9626   */\n      tag_369\n      jumpi\n        /* \"#utility.yul\":9619:9624   */\n      pop\n      pop\n        /* \"#utility.yul\":9497:10890   */\n      jump\t// out\n        /* \"#utility.yul\":9600:9626   */\n    tag_369:\n        /* \"#utility.yul\":9649:9686   */\n      tag_370\n        /* \"#utility.yul\":9681:9684   */\n      dup3\n        /* \"#utility.yul\":9675:9685   */\n      sload\n        /* \"#utility.yul\":9649:9686   */\n      tag_118\n      jump\t// in\n    tag_370:\n        /* \"#utility.yul\":9709:9727   */\n      0xffffffffffffffff\n        /* \"#utility.yul\":9701:9707   */\n      dup2\n        /* \"#utility.yul\":9698:9728   */\n      gt\n        /* \"#utility.yul\":9695:9751   */\n      iszero\n      tag_372\n      jumpi\n        /* \"#utility.yul\":9731:9749   */\n      tag_372\n      tag_297\n      jump\t// in\n    tag_372:\n        /* \"#utility.yul\":9760:9857   */\n      tag_373\n        /* \"#utility.yul\":9850:9856   */\n      dup2\n        /* \"#utility.yul\":9810:9848   */\n      tag_374\n        /* \"#utility.yul\":9842:9846   */\n      dup5\n        /* \"#utility.yul\":9836:9847   */\n      sload\n        /* \"#utility.yul\":9810:9848   */\n      tag_118\n      jump\t// in\n    tag_374:\n        /* \"#utility.yul\":9804:9808   */\n      dup5\n        /* \"#utility.yul\":9760:9857   */\n      tag_300\n      jump\t// in\n    tag_373:\n        /* \"#utility.yul\":9883:9884   */\n      0x00\n        /* \"#utility.yul\":9911:9913   */\n      0x1f\n        /* \"#utility.yul\":9903:9909   */\n      dup3\n        /* \"#utility.yul\":9900:9914   */\n      gt\n        /* \"#utility.yul\":9928:9929   */\n      0x01\n        /* \"#utility.yul\":9923:10633   */\n      dup2\n      eq\n      tag_376\n      jumpi\n        /* \"#utility.yul\":10677:10678   */\n      0x00\n        /* \"#utility.yul\":10694:10700   */\n      dup4\n        /* \"#utility.yul\":10691:10780   */\n      iszero\n      tag_377\n      jumpi\n      pop\n        /* \"#utility.yul\":10746:10765   */\n      dup5\n      dup3\n      add\n        /* \"#utility.yul\":10740:10766   */\n      sload\n        /* \"#utility.yul\":10691:10780   */\n    tag_377:\n        /* \"#utility.yul\":9478:9479   */\n      0x01\n        /* \"#utility.yul\":9474:9485   */\n      dup5\n      swap1\n      shl\n      not(0x00)\n        /* \"#utility.yul\":9454:9455   */\n      0x03\n        /* \"#utility.yul\":9450:9461   */\n      dup7\n      swap1\n      shl\n        /* \"#utility.yul\":9446:9470   */\n      shr\n        /* \"#utility.yul\":9442:9471   */\n      not\n        /* \"#utility.yul\":9432:9472   */\n      dup3\n      and\n        /* \"#utility.yul\":9429:9486   */\n      or\n        /* \"#utility.yul\":10806:10873   */\n    tag_378:\n        /* \"#utility.yul\":10800:10804   */\n      dup6\n        /* \"#utility.yul\":10793:10874   */\n      sstore\n      pop\n        /* \"#utility.yul\":9893:10884   */\n      jump(tag_366)\n        /* \"#utility.yul\":9923:10633   */\n    tag_376:\n        /* \"#utility.yul\":8750:8751   */\n      0x00\n        /* \"#utility.yul\":8743:8757   */\n      dup6\n      dup2\n      mstore\n        /* \"#utility.yul\":8787:8791   */\n      0x20\n        /* \"#utility.yul\":8774:8792   */\n      dup1\n      dup3\n      keccak256\n        /* \"#utility.yul\":8743:8757   */\n      dup7\n      dup4\n      mstore\n        /* \"#utility.yul\":8774:8792   */\n      swap1\n      dup3\n      keccak256\n      not(0x1f)\n        /* \"#utility.yul\":9959:9979   */\n      dup7\n      and\n      swap3\n        /* \"#utility.yul\":10137:10358   */\n    tag_381:\n        /* \"#utility.yul\":10151:10158   */\n      dup4\n        /* \"#utility.yul\":10148:10149   */\n      dup2\n        /* \"#utility.yul\":10145:10159   */\n      lt\n        /* \"#utility.yul\":10137:10358   */\n      iszero\n      tag_383\n      jumpi\n        /* \"#utility.yul\":10233:10254   */\n      dup3\n      dup7\n      add\n        /* \"#utility.yul\":10227:10255   */\n      sload\n        /* \"#utility.yul\":10212:10256   */\n      dup3\n      sstore\n        /* \"#utility.yul\":10295:10296   */\n      0x01\n        /* \"#utility.yul\":10327:10344   */\n      swap6\n      dup7\n      add\n      swap6\n        /* \"#utility.yul\":10283:10297   */\n      swap1\n      swap2\n      add\n      swap1\n        /* \"#utility.yul\":10174:10178   */\n      0x20\n        /* \"#utility.yul\":10167:10179   */\n      add\n        /* \"#utility.yul\":10137:10358   */\n      jump(tag_381)\n    tag_383:\n        /* \"#utility.yul\":10141:10144   */\n      pop\n        /* \"#utility.yul\":10386:10392   */\n      dup6\n        /* \"#utility.yul\":10377:10384   */\n      dup4\n        /* \"#utility.yul\":10374:10393   */\n      lt\n        /* \"#utility.yul\":10371:10574   */\n      iszero\n      tag_384\n      jumpi\n        /* \"#utility.yul\":10447:10468   */\n      dup2\n      dup6\n      add\n        /* \"#utility.yul\":10441:10469   */\n      sload\n      not(0x00)\n        /* \"#utility.yul\":10532:10533   */\n      0x03\n        /* \"#utility.yul\":10528:10542   */\n      dup9\n      swap1\n      shl\n        /* \"#utility.yul\":10544:10547   */\n      0xf8\n        /* \"#utility.yul\":10524:10548   */\n      and\n        /* \"#utility.yul\":10520:10557   */\n      shr\n        /* \"#utility.yul\":10516:10558   */\n      not\n        /* \"#utility.yul\":10501:10559   */\n      and\n        /* \"#utility.yul\":10486:10560   */\n      dup2\n      sstore\n        /* \"#utility.yul\":10371:10574   */\n    tag_384:\n      pop\n      pop\n      pop\n      pop\n      pop\n        /* \"#utility.yul\":10620:10621   */\n      0x01\n        /* \"#utility.yul\":10604:10618   */\n      swap1\n      dup2\n      shl\n        /* \"#utility.yul\":10600:10622   */\n      add\n        /* \"#utility.yul\":10587:10623   */\n      swap1\n      sstore\n      pop\n        /* \"#utility.yul\":9497:10890   */\n      jump\t// out\n        /* \"#utility.yul\":10895:11022   */\n    tag_204:\n        /* \"#utility.yul\":10956:10966   */\n      0x4e487b71\n        /* \"#utility.yul\":10951:10954   */\n      0xe0\n        /* \"#utility.yul\":10947:10967   */\n      shl\n        /* \"#utility.yul\":10944:10945   */\n      0x00\n        /* \"#utility.yul\":10937:10968   */\n      mstore\n        /* \"#utility.yul\":10987:10991   */\n      0x31\n        /* \"#utility.yul\":10984:10985   */\n      0x04\n        /* \"#utility.yul\":10977:10992   */\n      mstore\n        /* \"#utility.yul\":11011:11015   */\n      0x24\n        /* \"#utility.yul\":11008:11009   */\n      0x00\n        /* \"#utility.yul\":11001:11016   */\n      revert\n        /* \"#utility.yul\":11374:12673   */\n    tag_218:\n        /* \"#utility.yul\":11500:11503   */\n      dup2\n        /* \"#utility.yul\":11494:11504   */\n      mload\n        /* \"#utility.yul\":11527:11545   */\n      0xffffffffffffffff\n        /* \"#utility.yul\":11519:11525   */\n      dup2\n        /* \"#utility.yul\":11516:11546   */\n      gt\n        /* \"#utility.yul\":11513:11569   */\n      iszero\n      tag_389\n      jumpi\n        /* \"#utility.yul\":11549:11567   */\n      tag_389\n      tag_297\n      jump\t// in\n    tag_389:\n        /* \"#utility.yul\":11578:11675   */\n      tag_390\n        /* \"#utility.yul\":11668:11674   */\n      dup2\n        /* \"#utility.yul\":11628:11666   */\n      tag_374\n        /* \"#utility.yul\":11660:11664   */\n      dup5\n        /* \"#utility.yul\":11654:11665   */\n      sload\n        /* \"#utility.yul\":11628:11666   */\n      tag_118\n      jump\t// in\n        /* \"#utility.yul\":11578:11675   */\n    tag_390:\n        /* \"#utility.yul\":11724:11728   */\n      0x20\n        /* \"#utility.yul\":11755:11757   */\n      0x1f\n        /* \"#utility.yul\":11744:11758   */\n      dup3\n      gt\n        /* \"#utility.yul\":11772:11773   */\n      0x01\n        /* \"#utility.yul\":11767:12416   */\n      dup2\n      eq\n      tag_393\n      jumpi\n        /* \"#utility.yul\":12460:12461   */\n      0x00\n        /* \"#utility.yul\":12477:12483   */\n      dup4\n        /* \"#utility.yul\":12474:12563   */\n      iszero\n      tag_377\n      jumpi\n      pop\n        /* \"#utility.yul\":12529:12548   */\n      dup2\n      dup6\n      add\n        /* \"#utility.yul\":12523:12549   */\n      mload\n        /* \"#utility.yul\":9478:9479   */\n      0x01\n        /* \"#utility.yul\":9474:9485   */\n      dup5\n      swap1\n      shl\n      not(0x00)\n        /* \"#utility.yul\":9454:9455   */\n      0x03\n        /* \"#utility.yul\":9450:9461   */\n      dup7\n      swap1\n      shl\n        /* \"#utility.yul\":9446:9470   */\n      shr\n        /* \"#utility.yul\":9442:9471   */\n      not\n        /* \"#utility.yul\":9432:9472   */\n      dup3\n      and\n        /* \"#utility.yul\":9429:9486   */\n      or\n        /* \"#utility.yul\":12589:12656   */\n      tag_378\n        /* \"#utility.yul\":9326:9492   */\n      jump\n        /* \"#utility.yul\":11767:12416   */\n    tag_393:\n        /* \"#utility.yul\":8750:8751   */\n      0x00\n        /* \"#utility.yul\":8743:8757   */\n      dup5\n      dup2\n      mstore\n        /* \"#utility.yul\":8787:8791   */\n      0x20\n        /* \"#utility.yul\":8774:8792   */\n      dup2\n      keccak256\n      not(0x1f)\n        /* \"#utility.yul\":11803:11823   */\n      dup6\n      and\n      swap2\n        /* \"#utility.yul\":11921:12143   */\n    tag_397:\n        /* \"#utility.yul\":11935:11942   */\n      dup3\n        /* \"#utility.yul\":11932:11933   */\n      dup2\n        /* \"#utility.yul\":11929:11943   */\n      lt\n        /* \"#utility.yul\":11921:12143   */\n      iszero\n      tag_399\n      jumpi\n        /* \"#utility.yul\":12017:12036   */\n      dup8\n      dup6\n      add\n        /* \"#utility.yul\":12011:12037   */\n      mload\n        /* \"#utility.yul\":11996:12038   */\n      dup3\n      sstore\n        /* \"#utility.yul\":12124:12128   */\n      0x20\n        /* \"#utility.yul\":12109:12129   */\n      swap5\n      dup6\n      add\n      swap5\n        /* \"#utility.yul\":12077:12078   */\n      0x01\n        /* \"#utility.yul\":12065:12079   */\n      swap1\n      swap3\n      add\n      swap2\n        /* \"#utility.yul\":11951:11963   */\n      add\n        /* \"#utility.yul\":11921:12143   */\n      jump(tag_397)\n    tag_399:\n        /* \"#utility.yul\":11925:11928   */\n      pop\n        /* \"#utility.yul\":12171:12177   */\n      dup5\n        /* \"#utility.yul\":12162:12169   */\n      dup3\n        /* \"#utility.yul\":12159:12178   */\n      lt\n        /* \"#utility.yul\":12156:12357   */\n      iszero\n      tag_400\n      jumpi\n        /* \"#utility.yul\":12232:12251   */\n      dup7\n      dup5\n      add\n        /* \"#utility.yul\":12226:12252   */\n      mload\n      not(0x00)\n        /* \"#utility.yul\":12315:12316   */\n      0x03\n        /* \"#utility.yul\":12311:12325   */\n      dup8\n      swap1\n      shl\n        /* \"#utility.yul\":12327:12330   */\n      0xf8\n        /* \"#utility.yul\":12307:12331   */\n      and\n        /* \"#utility.yul\":12303:12340   */\n      shr\n        /* \"#utility.yul\":12299:12341   */\n      not\n        /* \"#utility.yul\":12284:12342   */\n      and\n        /* \"#utility.yul\":12269:12343   */\n      dup2\n      sstore\n        /* \"#utility.yul\":12156:12357   */\n    tag_400:\n      pop\n      pop\n      pop\n      pop\n        /* \"#utility.yul\":12403:12404   */\n      0x01\n        /* \"#utility.yul\":12387:12401   */\n      swap1\n      dup2\n      shl\n        /* \"#utility.yul\":12383:12405   */\n      add\n        /* \"#utility.yul\":12370:12406   */\n      swap1\n      sstore\n      pop\n        /* \"#utility.yul\":11374:12673   */\n      jump\t// out\n        /* \"#utility.yul\":14059:14194   */\n    tag_251:\n        /* \"#utility.yul\":14098:14101   */\n      0x00\n        /* \"#utility.yul\":14119:14136   */\n      0x01\n      dup3\n      add\n        /* \"#utility.yul\":14116:14159   */\n      tag_407\n      jumpi\n        /* \"#utility.yul\":14139:14157   */\n      tag_407\n      tag_298\n      jump\t// in\n    tag_407:\n      pop\n        /* \"#utility.yul\":14186:14187   */\n      0x01\n        /* \"#utility.yul\":14175:14188   */\n      add\n      swap1\n        /* \"#utility.yul\":14059:14194   */\n      jump\t// out\n\n    auxdata: 0xa264697066735822122061afce3b15e45b266a5c86e231e668021bbf89cc7891f89994e57ace38593bcb64736f6c634300081e0033\n}\n",
				"bytecode": {
					"linkReferences": {},
					"object": "608060405234801561000f575f5ffd5b5060405161174538038061174583398101604081905261002e9161012f565b5f6100398582610247565b5060016100468482610247565b5060028290556100598162015180610315565b6100639042610332565b600355505060048054600161ff0160a01b0319166001600160a01b039490941693909317909255506103459050565b634e487b7160e01b5f52604160045260245ffd5b5f82601f8301126100b5575f5ffd5b81516001600160401b038111156100ce576100ce610092565b604051601f8201601f19908116603f011681016001600160401b03811182821017156100fc576100fc610092565b604052818152838201602001851015610113575f5ffd5b8160208501602083015e5f918101602001919091529392505050565b5f5f5f5f5f60a08688031215610143575f5ffd5b85516001600160a01b0381168114610159575f5ffd5b60208701519095506001600160401b03811115610174575f5ffd5b610180888289016100a6565b604088015190955090506001600160401b0381111561019d575f5ffd5b6101a9888289016100a6565b606088015160809098015196999598509695949350505050565b600181811c908216806101d757607f821691505b6020821081036101f557634e487b7160e01b5f52602260045260245ffd5b50919050565b601f82111561024257805f5260205f20601f840160051c810160208510156102205750805b601f840160051c820191505b8181101561023f575f815560010161022c565b50505b505050565b81516001600160401b0381111561026057610260610092565b6102748161026e84546101c3565b846101fb565b6020601f8211600181146102a6575f831561028f5750848201515b5f19600385901b1c1916600184901b17845561023f565b5f84815260208120601f198516915b828110156102d557878501518255602094850194600190920191016102b5565b50848210156102f257868401515f19600387901b60f8161c191681555b50505050600190811b01905550565b634e487b7160e01b5f52601160045260245ffd5b808202811582820484141761032c5761032c610301565b92915050565b8082018082111561032c5761032c610301565b6113f3806103525f395ff3fe60806040526004361061011b575f3560e01c80637497211b1161009d578063c19d93fb11610062578063c19d93fb1461030d578063c4ae31681461033a578063ca1d209d1461034e578063de17057014610361578063e5e3c06514610382575f5ffd5b80637497211b1461024e5780637adba5271461026d5780638da5cb5b1461028c5780638ece7b91146102c3578063b85dfb80146102e2575f5ffd5b806340193883116100e357806340193883146101cf578063590e1ae3146101e45780635c975abb146101f85780636f9fb98a146102285780637284e4161461023a575f5ffd5b8063039af9eb1461011f57806306fdde031461015657806329dcb0cf14610177578063389b75331461019a5780633ccfd60b146101bb575b5f5ffd5b34801561012a575f5ffd5b5061013e610139366004610e92565b610396565b60405161014d93929190610ed7565b60405180910390f35b348015610161575f5ffd5b5061016a610451565b60405161014d9190610efb565b348015610182575f5ffd5b5061018c60035481565b60405190815260200161014d565b3480156101a5575f5ffd5b506101b96101b4366004610e92565b6104dc565b005b3480156101c6575f5ffd5b506101b9610599565b3480156101da575f5ffd5b5061018c60025481565b3480156101ef575f5ffd5b506101b96106ba565b348015610203575f5ffd5b5060045461021890600160a01b900460ff1681565b604051901515815260200161014d565b348015610233575f5ffd5b504761018c565b348015610245575f5ffd5b5061016a6107b8565b348015610259575f5ffd5b506101b9610268366004610e92565b6107c5565b348015610278575f5ffd5b50610218610287366004610f2f565b6108e6565b348015610297575f5ffd5b506004546102ab906001600160a01b031681565b6040516001600160a01b03909116815260200161014d565b3480156102ce575f5ffd5b506101b96102dd366004610f6b565b610916565b3480156102ed575f5ffd5b5061018c6102fc366004611020565b60066020525f908152604090205481565b348015610318575f5ffd5b5060045461032d90600160a81b900460ff1681565b60405161014d919061104d565b348015610345575f5ffd5b506101b96109fc565b6101b961035c366004610e92565b610a47565b34801561036c575f5ffd5b50610375610c73565b60405161014d9190611073565b34801561038d575f5ffd5b5061032d610d72565b600581815481106103a5575f80fd5b905f5260205f2090600302015f91509050805f0180546103c4906110f6565b80601f01602080910402602001604051908101604052809291908181526020018280546103f0906110f6565b801561043b5780601f106104125761010080835404028352916020019161043b565b820191905f5260205f20905b81548152906001019060200180831161041e57829003601f168201915b5050505050908060010154908060020154905083565b5f805461045d906110f6565b80601f0160208091040260200160405190810160405280929190818152602001828054610489906110f6565b80156104d45780601f106104ab576101008083540402835291602001916104d4565b820191905f5260205f20905b8154815290600101906020018083116104b757829003601f168201915b505050505081565b6004546001600160a01b0316331461050f5760405162461bcd60e51b81526004016105069061112e565b60405180910390fd5b5f600454600160a81b900460ff16600281111561052e5761052e611039565b146105745760405162461bcd60e51b815260206004820152601660248201527543616d706167696e206973206e6f742041637469766560501b6044820152606401610506565b6105818162015180611169565b60035f8282546105919190611180565b909155505050565b6004546001600160a01b031633146105c35760405162461bcd60e51b81526004016105069061112e565b6105cb610dcc565b6001600454600160a81b900460ff1660028111156105eb576105eb611039565b146106385760405162461bcd60e51b815260206004820152601760248201527f43616d706167696e206e6f74207375636365737366756c0000000000000000006044820152606401610506565b478061067f5760405162461bcd60e51b81526020600482015260166024820152754e6f2042616c616e636520746f20776974686472617760501b6044820152606401610506565b6004546040516001600160a01b039091169082156108fc029083905f818181858888f193505050501580156106b6573d5f5f3e3d5ffd5b5050565b6106c2610dcc565b6002600454600160a81b900460ff1660028111156106e2576106e2611039565b146107245760405162461bcd60e51b81526020600482015260126024820152711499599d5b991cc81b9bdd0819985a5b195960721b6044820152606401610506565b335f90815260066020526040902054806107805760405162461bcd60e51b815260206004820152601960248201527f6e6f20636f6e747269627574696f6e20746f20726566756e64000000000000006044820152606401610506565b335f818152600660205260408082208290555183156108fc0291849190818181858888f193505050501580156106b6573d5f5f3e3d5ffd5b6001805461045d906110f6565b6004546001600160a01b031633146107ef5760405162461bcd60e51b81526004016105069061112e565b60055481106108365760405162461bcd60e51b81526020600482015260136024820152721d1a595c88191bd95cc81b9bdd08195e1a5cdd606a1b6044820152606401610506565b6005805461084690600190611193565b81548110610856576108566111a6565b905f5260205f20906003020160058281548110610875576108756111a6565b5f91825260209091206003909102018061088f8382611206565b506001828101549082015560029182015491015560058054806108b4576108b46112de565b5f828152602081205f19909201916003830201906108d28282610e48565b505f60018201819055600290910155905550565b6001600160a01b0382165f90815260066020908152604080832084845260010190915290205460ff165b92915050565b6004546001600160a01b031633146109405760405162461bcd60e51b81526004016105069061112e565b5f81116109845760405162461bcd60e51b81526020600482015260126024820152710416d6f756e74206d757374206265203e20360741b6044820152606401610506565b60408051606081018252838152602081018390525f918101829052600580546001810182559252805190916003027f036b6384b5eca791c62761152d0c79bb0604c104a5fb6f4eb0703f3154bb3db0019081906109e190826112f2565b50602082015181600101556040820151816002015550505050565b6004546001600160a01b03163314610a265760405162461bcd60e51b81526004016105069061112e565b6004805460ff60a01b198116600160a01b9182900460ff1615909102179055565b5f600454600160a81b900460ff166002811115610a6657610a66611039565b14610aac5760405162461bcd60e51b815260206004820152601660248201527543616d706167696e206973206e6f742041637469766560501b6044820152606401610506565b600454600160a01b900460ff1615610afc5760405162461bcd60e51b815260206004820152601360248201527231b7b73a3930b1ba1034b9903830bab9b2b21760691b6044820152606401610506565b6003544210610b425760405162461bcd60e51b815260206004820152601260248201527110dbdb5c1859da5b881a185cc8195b99195960721b6044820152606401610506565b6005548110610b825760405162461bcd60e51b815260206004820152600c60248201526b24b73b30b634b2102a34b2b960a11b6044820152606401610506565b60058181548110610b9557610b956111a6565b905f5260205f209060030201600101543414610be65760405162461bcd60e51b815260206004820152601060248201526f125b98dbdc9c9958dd08185b5bdd5b9d60821b6044820152606401610506565b60058181548110610bf957610bf96111a6565b5f91825260208220600260039092020101805491610c16836113a5565b9091555050335f9081526006602052604081208054349290610c39908490611180565b9091555050335f9081526006602090815260408083208484526001908101909252909120805460ff19169091179055610c70610dcc565b50565b60606005805480602002602001604051908101604052809291908181526020015f905b82821015610d69578382905f5260205f2090600302016040518060600160405290815f82018054610cc6906110f6565b80601f0160208091040260200160405190810160405280929190818152602001828054610cf2906110f6565b8015610d3d5780601f10610d1457610100808354040283529160200191610d3d565b820191905f5260205f20905b815481529060010190602001808311610d2057829003601f168201915b505050505081526020016001820154815260200160028201548152505081526020019060010190610c96565b50505050905090565b5f80600454600160a81b900460ff166002811115610d9257610d92611039565b148015610da0575060035442115b15610dbb57600254471015610db55750600290565b50600190565b50600454600160a81b900460ff1690565b5f600454600160a81b900460ff166002811115610deb57610deb611039565b03610e46576003544210610e3657600254471015610e0a576002610e0d565b60015b6004805460ff60a81b1916600160a81b836002811115610e2f57610e2f611039565b0217905550565b600254471015610e0a575f610e0d565b565b508054610e54906110f6565b5f825580601f10610e63575050565b601f0160209004905f5260205f2090810190610c7091905b80821115610e8e575f8155600101610e7b565b5090565b5f60208284031215610ea2575f5ffd5b5035919050565b5f81518084528060208401602086015e5f602082860101526020601f19601f83011685010191505092915050565b606081525f610ee96060830186610ea9565b60208301949094525060400152919050565b602081525f610f0d6020830184610ea9565b9392505050565b80356001600160a01b0381168114610f2a575f5ffd5b919050565b5f5f60408385031215610f40575f5ffd5b610f4983610f14565b946020939093013593505050565b634e487b7160e01b5f52604160045260245ffd5b5f5f60408385031215610f7c575f5ffd5b823567ffffffffffffffff811115610f92575f5ffd5b8301601f81018513610fa2575f5ffd5b803567ffffffffffffffff811115610fbc57610fbc610f57565b604051601f8201601f19908116603f0116810167ffffffffffffffff81118282101715610feb57610feb610f57565b604052818152828201602001871015611002575f5ffd5b816020840160208301375f6020928201830152969401359450505050565b5f60208284031215611030575f5ffd5b610f0d82610f14565b634e487b7160e01b5f52602160045260245ffd5b602081016003831061106d57634e487b7160e01b5f52602160045260245ffd5b91905290565b5f602082016020835280845180835260408501915060408160051b8601019250602086015f5b828110156110ea57603f1987860301845281518051606087526110bf6060880182610ea9565b6020838101518982015260409384015193909801929092525094938401939190910190600101611099565b50929695505050505050565b600181811c9082168061110a57607f821691505b60208210810361112857634e487b7160e01b5f52602260045260245ffd5b50919050565b6020808252600d908201526c2737ba103a34329037bbb732b960991b604082015260600190565b634e487b7160e01b5f52601160045260245ffd5b808202811582820484141761091057610910611155565b8082018082111561091057610910611155565b8181038181111561091057610910611155565b634e487b7160e01b5f52603260045260245ffd5b601f82111561120157805f5260205f20601f840160051c810160208510156111df5750805b601f840160051c820191505b818110156111fe575f81556001016111eb565b50505b505050565b818103611211575050565b61121b82546110f6565b67ffffffffffffffff81111561123357611233610f57565b6112478161124184546110f6565b846111ba565b5f601f82116001811461127b575f83156112615750848201545b600184901b5f19600386901b1c198216175b8555506111fe565b5f8581526020808220868352908220601f198616925b838110156112b15782860154825560019586019590910190602001611291565b50858310156112ce57818501545f19600388901b60f8161c191681555b5050505050600190811b01905550565b634e487b7160e01b5f52603160045260245ffd5b815167ffffffffffffffff81111561130c5761130c610f57565b61131a8161124184546110f6565b6020601f82116001811461134a575f8315611261575081850151600184901b5f19600386901b1c19821617611273565b5f84815260208120601f198516915b828110156113795787850151825560209485019460019092019101611359565b508482101561139657868401515f19600387901b60f8161c191681555b50505050600190811b01905550565b5f600182016113b6576113b6611155565b506001019056fea264697066735822122061afce3b15e45b266a5c86e231e668021bbf89cc7891f89994e57ace38593bcb64736f6c634300081e0033",
					"opcodes": "PUSH1 0x80 PUSH1 0x40 MSTORE CALLVALUE DUP1 ISZERO PUSH2 0xF JUMPI PUSH0 PUSH0 REVERT JUMPDEST POP PUSH1 0x40 MLOAD PUSH2 0x1745 CODESIZE SUB DUP1 PUSH2 0x1745 DUP4 CODECOPY DUP2 ADD PUSH1 0x40 DUP2 SWAP1 MSTORE PUSH2 0x2E SWAP2 PUSH2 0x12F JUMP JUMPDEST PUSH0 PUSH2 0x39 DUP6 DUP3 PUSH2 0x247 JUMP JUMPDEST POP PUSH1 0x1 PUSH2 0x46 DUP5 DUP3 PUSH2 0x247 JUMP JUMPDEST POP PUSH1 0x2 DUP3 SWAP1 SSTORE PUSH2 0x59 DUP2 PUSH3 0x15180 PUSH2 0x315 JUMP JUMPDEST PUSH2 0x63 SWAP1 TIMESTAMP PUSH2 0x332 JUMP JUMPDEST PUSH1 0x3 SSTORE POP POP PUSH1 0x4 DUP1 SLOAD PUSH1 0x1 PUSH2 0xFF01 PUSH1 0xA0 SHL SUB NOT AND PUSH1 0x1 PUSH1 0x1 PUSH1 0xA0 SHL SUB SWAP5 SWAP1 SWAP5 AND SWAP4 SWAP1 SWAP4 OR SWAP1 SWAP3 SSTORE POP PUSH2 0x345 SWAP1 POP JUMP JUMPDEST PUSH4 0x4E487B71 PUSH1 0xE0 SHL PUSH0 MSTORE PUSH1 0x41 PUSH1 0x4 MSTORE PUSH1 0x24 PUSH0 REVERT JUMPDEST PUSH0 DUP3 PUSH1 0x1F DUP4 ADD SLT PUSH2 0xB5 JUMPI PUSH0 PUSH0 REVERT JUMPDEST DUP2 MLOAD PUSH1 0x1 PUSH1 0x1 PUSH1 0x40 SHL SUB DUP2 GT ISZERO PUSH2 0xCE JUMPI PUSH2 0xCE PUSH2 0x92 JUMP JUMPDEST PUSH1 0x40 MLOAD PUSH1 0x1F DUP3 ADD PUSH1 0x1F NOT SWAP1 DUP2 AND PUSH1 0x3F ADD AND DUP2 ADD PUSH1 0x1 PUSH1 0x1 PUSH1 0x40 SHL SUB DUP2 GT DUP3 DUP3 LT OR ISZERO PUSH2 0xFC JUMPI PUSH2 0xFC PUSH2 0x92 JUMP JUMPDEST PUSH1 0x40 MSTORE DUP2 DUP2 MSTORE DUP4 DUP3 ADD PUSH1 0x20 ADD DUP6 LT ISZERO PUSH2 0x113 JUMPI PUSH0 PUSH0 REVERT JUMPDEST DUP2 PUSH1 0x20 DUP6 ADD PUSH1 0x20 DUP4 ADD MCOPY PUSH0 SWAP2 DUP2 ADD PUSH1 0x20 ADD SWAP2 SWAP1 SWAP2 MSTORE SWAP4 SWAP3 POP POP POP JUMP JUMPDEST PUSH0 PUSH0 PUSH0 PUSH0 PUSH0 PUSH1 0xA0 DUP7 DUP9 SUB SLT ISZERO PUSH2 0x143 JUMPI PUSH0 PUSH0 REVERT JUMPDEST DUP6 MLOAD PUSH1 0x1 PUSH1 0x1 PUSH1 0xA0 SHL SUB DUP2 AND DUP2 EQ PUSH2 0x159 JUMPI PUSH0 PUSH0 REVERT JUMPDEST PUSH1 0x20 DUP8 ADD MLOAD SWAP1 SWAP6 POP PUSH1 0x1 PUSH1 0x1 PUSH1 0x40 SHL SUB DUP2 GT ISZERO PUSH2 0x174 JUMPI PUSH0 PUSH0 REVERT JUMPDEST PUSH2 0x180 DUP9 DUP3 DUP10 ADD PUSH2 0xA6 JUMP JUMPDEST PUSH1 0x40 DUP9 ADD MLOAD SWAP1 SWAP6 POP SWAP1 POP PUSH1 0x1 PUSH1 0x1 PUSH1 0x40 SHL SUB DUP2 GT ISZERO PUSH2 0x19D JUMPI PUSH0 PUSH0 REVERT JUMPDEST PUSH2 0x1A9 DUP9 DUP3 DUP10 ADD PUSH2 0xA6 JUMP JUMPDEST PUSH1 0x60 DUP9 ADD MLOAD PUSH1 0x80 SWAP1 SWAP9 ADD MLOAD SWAP7 SWAP10 SWAP6 SWAP9 POP SWAP7 SWAP6 SWAP5 SWAP4 POP POP POP POP JUMP JUMPDEST PUSH1 0x1 DUP2 DUP2 SHR SWAP1 DUP3 AND DUP1 PUSH2 0x1D7 JUMPI PUSH1 0x7F DUP3 AND SWAP2 POP JUMPDEST PUSH1 0x20 DUP3 LT DUP2 SUB PUSH2 0x1F5 JUMPI PUSH4 0x4E487B71 PUSH1 0xE0 SHL PUSH0 MSTORE PUSH1 0x22 PUSH1 0x4 MSTORE PUSH1 0x24 PUSH0 REVERT JUMPDEST POP SWAP2 SWAP1 POP JUMP JUMPDEST PUSH1 0x1F DUP3 GT ISZERO PUSH2 0x242 JUMPI DUP1 PUSH0 MSTORE PUSH1 0x20 PUSH0 KECCAK256 PUSH1 0x1F DUP5 ADD PUSH1 0x5 SHR DUP2 ADD PUSH1 0x20 DUP6 LT ISZERO PUSH2 0x220 JUMPI POP DUP1 JUMPDEST PUSH1 0x1F DUP5 ADD PUSH1 0x5 SHR DUP3 ADD SWAP2 POP JUMPDEST DUP2 DUP2 LT ISZERO PUSH2 0x23F JUMPI PUSH0 DUP2 SSTORE PUSH1 0x1 ADD PUSH2 0x22C JUMP JUMPDEST POP POP JUMPDEST POP POP POP JUMP JUMPDEST DUP2 MLOAD PUSH1 0x1 PUSH1 0x1 PUSH1 0x40 SHL SUB DUP2 GT ISZERO PUSH2 0x260 JUMPI PUSH2 0x260 PUSH2 0x92 JUMP JUMPDEST PUSH2 0x274 DUP2 PUSH2 0x26E DUP5 SLOAD PUSH2 0x1C3 JUMP JUMPDEST DUP5 PUSH2 0x1FB JUMP JUMPDEST PUSH1 0x20 PUSH1 0x1F DUP3 GT PUSH1 0x1 DUP2 EQ PUSH2 0x2A6 JUMPI PUSH0 DUP4 ISZERO PUSH2 0x28F JUMPI POP DUP5 DUP3 ADD MLOAD JUMPDEST PUSH0 NOT PUSH1 0x3 DUP6 SWAP1 SHL SHR NOT AND PUSH1 0x1 DUP5 SWAP1 SHL OR DUP5 SSTORE PUSH2 0x23F JUMP JUMPDEST PUSH0 DUP5 DUP2 MSTORE PUSH1 0x20 DUP2 KECCAK256 PUSH1 0x1F NOT DUP6 AND SWAP2 JUMPDEST DUP3 DUP2 LT ISZERO PUSH2 0x2D5 JUMPI DUP8 DUP6 ADD MLOAD DUP3 SSTORE PUSH1 0x20 SWAP5 DUP6 ADD SWAP5 PUSH1 0x1 SWAP1 SWAP3 ADD SWAP2 ADD PUSH2 0x2B5 JUMP JUMPDEST POP DUP5 DUP3 LT ISZERO PUSH2 0x2F2 JUMPI DUP7 DUP5 ADD MLOAD PUSH0 NOT PUSH1 0x3 DUP8 SWAP1 SHL PUSH1 0xF8 AND SHR NOT AND DUP2 SSTORE JUMPDEST POP POP POP POP PUSH1 0x1 SWAP1 DUP2 SHL ADD SWAP1 SSTORE POP JUMP JUMPDEST PUSH4 0x4E487B71 PUSH1 0xE0 SHL PUSH0 MSTORE PUSH1 0x11 PUSH1 0x4 MSTORE PUSH1 0x24 PUSH0 REVERT JUMPDEST DUP1 DUP3 MUL DUP2 ISZERO DUP3 DUP3 DIV DUP5 EQ OR PUSH2 0x32C JUMPI PUSH2 0x32C PUSH2 0x301 JUMP JUMPDEST SWAP3 SWAP2 POP POP JUMP JUMPDEST DUP1 DUP3 ADD DUP1 DUP3 GT ISZERO PUSH2 0x32C JUMPI PUSH2 0x32C PUSH2 0x301 JUMP JUMPDEST PUSH2 0x13F3 DUP1 PUSH2 0x352 PUSH0 CODECOPY PUSH0 RETURN INVALID PUSH1 0x80 PUSH1 0x40 MSTORE PUSH1 0x4 CALLDATASIZE LT PUSH2 0x11B JUMPI PUSH0 CALLDATALOAD PUSH1 0xE0 SHR DUP1 PUSH4 0x7497211B GT PUSH2 0x9D JUMPI DUP1 PUSH4 0xC19D93FB GT PUSH2 0x62 JUMPI DUP1 PUSH4 0xC19D93FB EQ PUSH2 0x30D JUMPI DUP1 PUSH4 0xC4AE3168 EQ PUSH2 0x33A JUMPI DUP1 PUSH4 0xCA1D209D EQ PUSH2 0x34E JUMPI DUP1 PUSH4 0xDE170570 EQ PUSH2 0x361 JUMPI DUP1 PUSH4 0xE5E3C065 EQ PUSH2 0x382 JUMPI PUSH0 PUSH0 REVERT JUMPDEST DUP1 PUSH4 0x7497211B EQ PUSH2 0x24E JUMPI DUP1 PUSH4 0x7ADBA527 EQ PUSH2 0x26D JUMPI DUP1 PUSH4 0x8DA5CB5B EQ PUSH2 0x28C JUMPI DUP1 PUSH4 0x8ECE7B91 EQ PUSH2 0x2C3 JUMPI DUP1 PUSH4 0xB85DFB80 EQ PUSH2 0x2E2 JUMPI PUSH0 PUSH0 REVERT JUMPDEST DUP1 PUSH4 0x40193883 GT PUSH2 0xE3 JUMPI DUP1 PUSH4 0x40193883 EQ PUSH2 0x1CF JUMPI DUP1 PUSH4 0x590E1AE3 EQ PUSH2 0x1E4 JUMPI DUP1 PUSH4 0x5C975ABB EQ PUSH2 0x1F8 JUMPI DUP1 PUSH4 0x6F9FB98A EQ PUSH2 0x228 JUMPI DUP1 PUSH4 0x7284E416 EQ PUSH2 0x23A JUMPI PUSH0 PUSH0 REVERT JUMPDEST DUP1 PUSH4 0x39AF9EB EQ PUSH2 0x11F JUMPI DUP1 PUSH4 0x6FDDE03 EQ PUSH2 0x156 JUMPI DUP1 PUSH4 0x29DCB0CF EQ PUSH2 0x177 JUMPI DUP1 PUSH4 0x389B7533 EQ PUSH2 0x19A JUMPI DUP1 PUSH4 0x3CCFD60B EQ PUSH2 0x1BB JUMPI JUMPDEST PUSH0 PUSH0 REVERT JUMPDEST CALLVALUE DUP1 ISZERO PUSH2 0x12A JUMPI PUSH0 PUSH0 REVERT JUMPDEST POP PUSH2 0x13E PUSH2 0x139 CALLDATASIZE PUSH1 0x4 PUSH2 0xE92 JUMP JUMPDEST PUSH2 0x396 JUMP JUMPDEST PUSH1 0x40 MLOAD PUSH2 0x14D SWAP4 SWAP3 SWAP2 SWAP1 PUSH2 0xED7 JUMP JUMPDEST PUSH1 0x40 MLOAD DUP1 SWAP2 SUB SWAP1 RETURN JUMPDEST CALLVALUE DUP1 ISZERO PUSH2 0x161 JUMPI PUSH0 PUSH0 REVERT JUMPDEST POP PUSH2 0x16A PUSH2 0x451 JUMP JUMPDEST PUSH1 0x40 MLOAD PUSH2 0x14D SWAP2 SWAP1 PUSH2 0xEFB JUMP JUMPDEST CALLVALUE DUP1 ISZERO PUSH2 0x182 JUMPI PUSH0 PUSH0 REVERT JUMPDEST POP PUSH2 0x18C PUSH1 0x3 SLOAD DUP2 JUMP JUMPDEST PUSH1 0x40 MLOAD SWAP1 DUP2 MSTORE PUSH1 0x20 ADD PUSH2 0x14D JUMP JUMPDEST CALLVALUE DUP1 ISZERO PUSH2 0x1A5 JUMPI PUSH0 PUSH0 REVERT JUMPDEST POP PUSH2 0x1B9 PUSH2 0x1B4 CALLDATASIZE PUSH1 0x4 PUSH2 0xE92 JUMP JUMPDEST PUSH2 0x4DC JUMP JUMPDEST STOP JUMPDEST CALLVALUE DUP1 ISZERO PUSH2 0x1C6 JUMPI PUSH0 PUSH0 REVERT JUMPDEST POP PUSH2 0x1B9 PUSH2 0x599 JUMP JUMPDEST CALLVALUE DUP1 ISZERO PUSH2 0x1DA JUMPI PUSH0 PUSH0 REVERT JUMPDEST POP PUSH2 0x18C PUSH1 0x2 SLOAD DUP2 JUMP JUMPDEST CALLVALUE DUP1 ISZERO PUSH2 0x1EF JUMPI PUSH0 PUSH0 REVERT JUMPDEST POP PUSH2 0x1B9 PUSH2 0x6BA JUMP JUMPDEST CALLVALUE DUP1 ISZERO PUSH2 0x203 JUMPI PUSH0 PUSH0 REVERT JUMPDEST POP PUSH1 0x4 SLOAD PUSH2 0x218 SWAP1 PUSH1 0x1 PUSH1 0xA0 SHL SWAP1 DIV PUSH1 0xFF AND DUP2 JUMP JUMPDEST PUSH1 0x40 MLOAD SWAP1 ISZERO ISZERO DUP2 MSTORE PUSH1 0x20 ADD PUSH2 0x14D JUMP JUMPDEST CALLVALUE DUP1 ISZERO PUSH2 0x233 JUMPI PUSH0 PUSH0 REVERT JUMPDEST POP SELFBALANCE PUSH2 0x18C JUMP JUMPDEST CALLVALUE DUP1 ISZERO PUSH2 0x245 JUMPI PUSH0 PUSH0 REVERT JUMPDEST POP PUSH2 0x16A PUSH2 0x7B8 JUMP JUMPDEST CALLVALUE DUP1 ISZERO PUSH2 0x259 JUMPI PUSH0 PUSH0 REVERT JUMPDEST POP PUSH2 0x1B9 PUSH2 0x268 CALLDATASIZE PUSH1 0x4 PUSH2 0xE92 JUMP JUMPDEST PUSH2 0x7C5 JUMP JUMPDEST CALLVALUE DUP1 ISZERO PUSH2 0x278 JUMPI PUSH0 PUSH0 REVERT JUMPDEST POP PUSH2 0x218 PUSH2 0x287 CALLDATASIZE PUSH1 0x4 PUSH2 0xF2F JUMP JUMPDEST PUSH2 0x8E6 JUMP JUMPDEST CALLVALUE DUP1 ISZERO PUSH2 0x297 JUMPI PUSH0 PUSH0 REVERT JUMPDEST POP PUSH1 0x4 SLOAD PUSH2 0x2AB SWAP1 PUSH1 0x1 PUSH1 0x1 PUSH1 0xA0 SHL SUB AND DUP2 JUMP JUMPDEST PUSH1 0x40 MLOAD PUSH1 0x1 PUSH1 0x1 PUSH1 0xA0 SHL SUB SWAP1 SWAP2 AND DUP2 MSTORE PUSH1 0x20 ADD PUSH2 0x14D JUMP JUMPDEST CALLVALUE DUP1 ISZERO PUSH2 0x2CE JUMPI PUSH0 PUSH0 REVERT JUMPDEST POP PUSH2 0x1B9 PUSH2 0x2DD CALLDATASIZE PUSH1 0x4 PUSH2 0xF6B JUMP JUMPDEST PUSH2 0x916 JUMP JUMPDEST CALLVALUE DUP1 ISZERO PUSH2 0x2ED JUMPI PUSH0 PUSH0 REVERT JUMPDEST POP PUSH2 0x18C PUSH2 0x2FC CALLDATASIZE PUSH1 0x4 PUSH2 0x1020 JUMP JUMPDEST PUSH1 0x6 PUSH1 0x20 MSTORE PUSH0 SWAP1 DUP2 MSTORE PUSH1 0x40 SWAP1 KECCAK256 SLOAD DUP2 JUMP JUMPDEST CALLVALUE DUP1 ISZERO PUSH2 0x318 JUMPI PUSH0 PUSH0 REVERT JUMPDEST POP PUSH1 0x4 SLOAD PUSH2 0x32D SWAP1 PUSH1 0x1 PUSH1 0xA8 SHL SWAP1 DIV PUSH1 0xFF AND DUP2 JUMP JUMPDEST PUSH1 0x40 MLOAD PUSH2 0x14D SWAP2 SWAP1 PUSH2 0x104D JUMP JUMPDEST CALLVALUE DUP1 ISZERO PUSH2 0x345 JUMPI PUSH0 PUSH0 REVERT JUMPDEST POP PUSH2 0x1B9 PUSH2 0x9FC JUMP JUMPDEST PUSH2 0x1B9 PUSH2 0x35C CALLDATASIZE PUSH1 0x4 PUSH2 0xE92 JUMP JUMPDEST PUSH2 0xA47 JUMP JUMPDEST CALLVALUE DUP1 ISZERO PUSH2 0x36C JUMPI PUSH0 PUSH0 REVERT JUMPDEST POP PUSH2 0x375 PUSH2 0xC73 JUMP JUMPDEST PUSH1 0x40 MLOAD PUSH2 0x14D SWAP2 SWAP1 PUSH2 0x1073 JUMP JUMPDEST CALLVALUE DUP1 ISZERO PUSH2 0x38D JUMPI PUSH0 PUSH0 REVERT JUMPDEST POP PUSH2 0x32D PUSH2 0xD72 JUMP JUMPDEST PUSH1 0x5 DUP2 DUP2 SLOAD DUP2 LT PUSH2 0x3A5 JUMPI PUSH0 DUP1 REVERT JUMPDEST SWAP1 PUSH0 MSTORE PUSH1 0x20 PUSH0 KECCAK256 SWAP1 PUSH1 0x3 MUL ADD PUSH0 SWAP2 POP SWAP1 POP DUP1 PUSH0 ADD DUP1 SLOAD PUSH2 0x3C4 SWAP1 PUSH2 0x10F6 JUMP JUMPDEST DUP1 PUSH1 0x1F ADD PUSH1 0x20 DUP1 SWAP2 DIV MUL PUSH1 0x20 ADD PUSH1 0x40 MLOAD SWAP1 DUP2 ADD PUSH1 0x40 MSTORE DUP1 SWAP3 SWAP2 SWAP1 DUP2 DUP2 MSTORE PUSH1 0x20 ADD DUP3 DUP1 SLOAD PUSH2 0x3F0 SWAP1 PUSH2 0x10F6 JUMP JUMPDEST DUP1 ISZERO PUSH2 0x43B JUMPI DUP1 PUSH1 0x1F LT PUSH2 0x412 JUMPI PUSH2 0x100 DUP1 DUP4 SLOAD DIV MUL DUP4 MSTORE SWAP2 PUSH1 0x20 ADD SWAP2 PUSH2 0x43B JUMP JUMPDEST DUP3 ADD SWAP2 SWAP1 PUSH0 MSTORE PUSH1 0x20 PUSH0 KECCAK256 SWAP1 JUMPDEST DUP2 SLOAD DUP2 MSTORE SWAP1 PUSH1 0x1 ADD SWAP1 PUSH1 0x20 ADD DUP1 DUP4 GT PUSH2 0x41E JUMPI DUP3 SWAP1 SUB PUSH1 0x1F AND DUP3 ADD SWAP2 JUMPDEST POP POP POP POP POP SWAP1 DUP1 PUSH1 0x1 ADD SLOAD SWAP1 DUP1 PUSH1 0x2 ADD SLOAD SWAP1 POP DUP4 JUMP JUMPDEST PUSH0 DUP1 SLOAD PUSH2 0x45D SWAP1 PUSH2 0x10F6 JUMP JUMPDEST DUP1 PUSH1 0x1F ADD PUSH1 0x20 DUP1 SWAP2 DIV MUL PUSH1 0x20 ADD PUSH1 0x40 MLOAD SWAP1 DUP2 ADD PUSH1 0x40 MSTORE DUP1 SWAP3 SWAP2 SWAP1 DUP2 DUP2 MSTORE PUSH1 0x20 ADD DUP3 DUP1 SLOAD PUSH2 0x489 SWAP1 PUSH2 0x10F6 JUMP JUMPDEST DUP1 ISZERO PUSH2 0x4D4 JUMPI DUP1 PUSH1 0x1F LT PUSH2 0x4AB JUMPI PUSH2 0x100 DUP1 DUP4 SLOAD DIV MUL DUP4 MSTORE SWAP2 PUSH1 0x20 ADD SWAP2 PUSH2 0x4D4 JUMP JUMPDEST DUP3 ADD SWAP2 SWAP1 PUSH0 MSTORE PUSH1 0x20 PUSH0 KECCAK256 SWAP1 JUMPDEST DUP2 SLOAD DUP2 MSTORE SWAP1 PUSH1 0x1 ADD SWAP1 PUSH1 0x20 ADD DUP1 DUP4 GT PUSH2 0x4B7 JUMPI DUP3 SWAP1 SUB PUSH1 0x1F AND DUP3 ADD SWAP2 JUMPDEST POP POP POP POP POP DUP2 JUMP JUMPDEST PUSH1 0x4 SLOAD PUSH1 0x1 PUSH1 0x1 PUSH1 0xA0 SHL SUB AND CALLER EQ PUSH2 0x50F JUMPI PUSH1 0x40 MLOAD PUSH3 0x461BCD PUSH1 0xE5 SHL DUP2 MSTORE PUSH1 0x4 ADD PUSH2 0x506 SWAP1 PUSH2 0x112E JUMP JUMPDEST PUSH1 0x40 MLOAD DUP1 SWAP2 SUB SWAP1 REVERT JUMPDEST PUSH0 PUSH1 0x4 SLOAD PUSH1 0x1 PUSH1 0xA8 SHL SWAP1 DIV PUSH1 0xFF AND PUSH1 0x2 DUP2 GT ISZERO PUSH2 0x52E JUMPI PUSH2 0x52E PUSH2 0x1039 JUMP JUMPDEST EQ PUSH2 0x574 JUMPI PUSH1 0x40 MLOAD PUSH3 0x461BCD PUSH1 0xE5 SHL DUP2 MSTORE PUSH1 0x20 PUSH1 0x4 DUP3 ADD MSTORE PUSH1 0x16 PUSH1 0x24 DUP3 ADD MSTORE PUSH22 0x43616D706167696E206973206E6F7420416374697665 PUSH1 0x50 SHL PUSH1 0x44 DUP3 ADD MSTORE PUSH1 0x64 ADD PUSH2 0x506 JUMP JUMPDEST PUSH2 0x581 DUP2 PUSH3 0x15180 PUSH2 0x1169 JUMP JUMPDEST PUSH1 0x3 PUSH0 DUP3 DUP3 SLOAD PUSH2 0x591 SWAP2 SWAP1 PUSH2 0x1180 JUMP JUMPDEST SWAP1 SWAP2 SSTORE POP POP POP JUMP JUMPDEST PUSH1 0x4 SLOAD PUSH1 0x1 PUSH1 0x1 PUSH1 0xA0 SHL SUB AND CALLER EQ PUSH2 0x5C3 JUMPI PUSH1 0x40 MLOAD PUSH3 0x461BCD PUSH1 0xE5 SHL DUP2 MSTORE PUSH1 0x4 ADD PUSH2 0x506 SWAP1 PUSH2 0x112E JUMP JUMPDEST PUSH2 0x5CB PUSH2 0xDCC JUMP JUMPDEST PUSH1 0x1 PUSH1 0x4 SLOAD PUSH1 0x1 PUSH1 0xA8 SHL SWAP1 DIV PUSH1 0xFF AND PUSH1 0x2 DUP2 GT ISZERO PUSH2 0x5EB JUMPI PUSH2 0x5EB PUSH2 0x1039 JUMP JUMPDEST EQ PUSH2 0x638 JUMPI PUSH1 0x40 MLOAD PUSH3 0x461BCD PUSH1 0xE5 SHL DUP2 MSTORE PUSH1 0x20 PUSH1 0x4 DUP3 ADD MSTORE PUSH1 0x17 PUSH1 0x24 DUP3 ADD MSTORE PUSH32 0x43616D706167696E206E6F74207375636365737366756C000000000000000000 PUSH1 0x44 DUP3 ADD MSTORE PUSH1 0x64 ADD PUSH2 0x506 JUMP JUMPDEST SELFBALANCE DUP1 PUSH2 0x67F JUMPI PUSH1 0x40 MLOAD PUSH3 0x461BCD PUSH1 0xE5 SHL DUP2 MSTORE PUSH1 0x20 PUSH1 0x4 DUP3 ADD MSTORE PUSH1 0x16 PUSH1 0x24 DUP3 ADD MSTORE PUSH22 0x4E6F2042616C616E636520746F207769746864726177 PUSH1 0x50 SHL PUSH1 0x44 DUP3 ADD MSTORE PUSH1 0x64 ADD PUSH2 0x506 JUMP JUMPDEST PUSH1 0x4 SLOAD PUSH1 0x40 MLOAD PUSH1 0x1 PUSH1 0x1 PUSH1 0xA0 SHL SUB SWAP1 SWAP2 AND SWAP1 DUP3 ISZERO PUSH2 0x8FC MUL SWAP1 DUP4 SWAP1 PUSH0 DUP2 DUP2 DUP2 DUP6 DUP9 DUP9 CALL SWAP4 POP POP POP POP ISZERO DUP1 ISZERO PUSH2 0x6B6 JUMPI RETURNDATASIZE PUSH0 PUSH0 RETURNDATACOPY RETURNDATASIZE PUSH0 REVERT JUMPDEST POP POP JUMP JUMPDEST PUSH2 0x6C2 PUSH2 0xDCC JUMP JUMPDEST PUSH1 0x2 PUSH1 0x4 SLOAD PUSH1 0x1 PUSH1 0xA8 SHL SWAP1 DIV PUSH1 0xFF AND PUSH1 0x2 DUP2 GT ISZERO PUSH2 0x6E2 JUMPI PUSH2 0x6E2 PUSH2 0x1039 JUMP JUMPDEST EQ PUSH2 0x724 JUMPI PUSH1 0x40 MLOAD PUSH3 0x461BCD PUSH1 0xE5 SHL DUP2 MSTORE PUSH1 0x20 PUSH1 0x4 DUP3 ADD MSTORE PUSH1 0x12 PUSH1 0x24 DUP3 ADD MSTORE PUSH18 0x1499599D5B991CC81B9BDD0819985A5B1959 PUSH1 0x72 SHL PUSH1 0x44 DUP3 ADD MSTORE PUSH1 0x64 ADD PUSH2 0x506 JUMP JUMPDEST CALLER PUSH0 SWAP1 DUP2 MSTORE PUSH1 0x6 PUSH1 0x20 MSTORE PUSH1 0x40 SWAP1 KECCAK256 SLOAD DUP1 PUSH2 0x780 JUMPI PUSH1 0x40 MLOAD PUSH3 0x461BCD PUSH1 0xE5 SHL DUP2 MSTORE PUSH1 0x20 PUSH1 0x4 DUP3 ADD MSTORE PUSH1 0x19 PUSH1 0x24 DUP3 ADD MSTORE PUSH32 0x6E6F20636F6E747269627574696F6E20746F20726566756E6400000000000000 PUSH1 0x44 DUP3 ADD MSTORE PUSH1 0x64 ADD PUSH2 0x506 JUMP JUMPDEST CALLER PUSH0 DUP2 DUP2 MSTORE PUSH1 0x6 PUSH1 0x20 MSTORE PUSH1 0x40 DUP1 DUP3 KECCAK256 DUP3 SWAP1 SSTORE MLOAD DUP4 ISZERO PUSH2 0x8FC MUL SWAP2 DUP5 SWAP2 SWAP1 DUP2 DUP2 DUP2 DUP6 DUP9 DUP9 CALL SWAP4 POP POP POP POP ISZERO DUP1 ISZERO PUSH2 0x6B6 JUMPI RETURNDATASIZE PUSH0 PUSH0 RETURNDATACOPY RETURNDATASIZE PUSH0 REVERT JUMPDEST PUSH1 0x1 DUP1 SLOAD PUSH2 0x45D SWAP1 PUSH2 0x10F6 JUMP JUMPDEST PUSH1 0x4 SLOAD PUSH1 0x1 PUSH1 0x1 PUSH1 0xA0 SHL SUB AND CALLER EQ PUSH2 0x7EF JUMPI PUSH1 0x40 MLOAD PUSH3 0x461BCD PUSH1 0xE5 SHL DUP2 MSTORE PUSH1 0x4 ADD PUSH2 0x506 SWAP1 PUSH2 0x112E JUMP JUMPDEST PUSH1 0x5 SLOAD DUP2 LT PUSH2 0x836 JUMPI PUSH1 0x40 MLOAD PUSH3 0x461BCD PUSH1 0xE5 SHL DUP2 MSTORE PUSH1 0x20 PUSH1 0x4 DUP3 ADD MSTORE PUSH1 0x13 PUSH1 0x24 DUP3 ADD MSTORE PUSH19 0x1D1A595C88191BD95CC81B9BDD08195E1A5CDD PUSH1 0x6A SHL PUSH1 0x44 DUP3 ADD MSTORE PUSH1 0x64 ADD PUSH2 0x506 JUMP JUMPDEST PUSH1 0x5 DUP1 SLOAD PUSH2 0x846 SWAP1 PUSH1 0x1 SWAP1 PUSH2 0x1193 JUMP JUMPDEST DUP2 SLOAD DUP2 LT PUSH2 0x856 JUMPI PUSH2 0x856 PUSH2 0x11A6 JUMP JUMPDEST SWAP1 PUSH0 MSTORE PUSH1 0x20 PUSH0 KECCAK256 SWAP1 PUSH1 0x3 MUL ADD PUSH1 0x5 DUP3 DUP2 SLOAD DUP2 LT PUSH2 0x875 JUMPI PUSH2 0x875 PUSH2 0x11A6 JUMP JUMPDEST PUSH0 SWAP2 DUP3 MSTORE PUSH1 0x20 SWAP1 SWAP2 KECCAK256 PUSH1 0x3 SWAP1 SWAP2 MUL ADD DUP1 PUSH2 0x88F DUP4 DUP3 PUSH2 0x1206 JUMP JUMPDEST POP PUSH1 0x1 DUP3 DUP2 ADD SLOAD SWAP1 DUP3 ADD SSTORE PUSH1 0x2 SWAP2 DUP3 ADD SLOAD SWAP2 ADD SSTORE PUSH1 0x5 DUP1 SLOAD DUP1 PUSH2 0x8B4 JUMPI PUSH2 0x8B4 PUSH2 0x12DE JUMP JUMPDEST PUSH0 DUP3 DUP2 MSTORE PUSH1 0x20 DUP2 KECCAK256 PUSH0 NOT SWAP1 SWAP3 ADD SWAP2 PUSH1 0x3 DUP4 MUL ADD SWAP1 PUSH2 0x8D2 DUP3 DUP3 PUSH2 0xE48 JUMP JUMPDEST POP PUSH0 PUSH1 0x1 DUP3 ADD DUP2 SWAP1 SSTORE PUSH1 0x2 SWAP1 SWAP2 ADD SSTORE SWAP1 SSTORE POP JUMP JUMPDEST PUSH1 0x1 PUSH1 0x1 PUSH1 0xA0 SHL SUB DUP3 AND PUSH0 SWAP1 DUP2 MSTORE PUSH1 0x6 PUSH1 0x20 SWAP1 DUP2 MSTORE PUSH1 0x40 DUP1 DUP4 KECCAK256 DUP5 DUP5 MSTORE PUSH1 0x1 ADD SWAP1 SWAP2 MSTORE SWAP1 KECCAK256 SLOAD PUSH1 0xFF AND JUMPDEST SWAP3 SWAP2 POP POP JUMP JUMPDEST PUSH1 0x4 SLOAD PUSH1 0x1 PUSH1 0x1 PUSH1 0xA0 SHL SUB AND CALLER EQ PUSH2 0x940 JUMPI PUSH1 0x40 MLOAD PUSH3 0x461BCD PUSH1 0xE5 SHL DUP2 MSTORE PUSH1 0x4 ADD PUSH2 0x506 SWAP1 PUSH2 0x112E JUMP JUMPDEST PUSH0 DUP2 GT PUSH2 0x984 JUMPI PUSH1 0x40 MLOAD PUSH3 0x461BCD PUSH1 0xE5 SHL DUP2 MSTORE PUSH1 0x20 PUSH1 0x4 DUP3 ADD MSTORE PUSH1 0x12 PUSH1 0x24 DUP3 ADD MSTORE PUSH18 0x416D6F756E74206D757374206265203E203 PUSH1 0x74 SHL PUSH1 0x44 DUP3 ADD MSTORE PUSH1 0x64 ADD PUSH2 0x506 JUMP JUMPDEST PUSH1 0x40 DUP1 MLOAD PUSH1 0x60 DUP2 ADD DUP3 MSTORE DUP4 DUP2 MSTORE PUSH1 0x20 DUP2 ADD DUP4 SWAP1 MSTORE PUSH0 SWAP2 DUP2 ADD DUP3 SWAP1 MSTORE PUSH1 0x5 DUP1 SLOAD PUSH1 0x1 DUP2 ADD DUP3 SSTORE SWAP3 MSTORE DUP1 MLOAD SWAP1 SWAP2 PUSH1 0x3 MUL PUSH32 0x36B6384B5ECA791C62761152D0C79BB0604C104A5FB6F4EB0703F3154BB3DB0 ADD SWAP1 DUP2 SWAP1 PUSH2 0x9E1 SWAP1 DUP3 PUSH2 0x12F2 JUMP JUMPDEST POP PUSH1 0x20 DUP3 ADD MLOAD DUP2 PUSH1 0x1 ADD SSTORE PUSH1 0x40 DUP3 ADD MLOAD DUP2 PUSH1 0x2 ADD SSTORE POP POP POP POP JUMP JUMPDEST PUSH1 0x4 SLOAD PUSH1 0x1 PUSH1 0x1 PUSH1 0xA0 SHL SUB AND CALLER EQ PUSH2 0xA26 JUMPI PUSH1 0x40 MLOAD PUSH3 0x461BCD PUSH1 0xE5 SHL DUP2 MSTORE PUSH1 0x4 ADD PUSH2 0x506 SWAP1 PUSH2 0x112E JUMP JUMPDEST PUSH1 0x4 DUP1 SLOAD PUSH1 0xFF PUSH1 0xA0 SHL NOT DUP2 AND PUSH1 0x1 PUSH1 0xA0 SHL SWAP2 DUP3 SWAP1 DIV PUSH1 0xFF AND ISZERO SWAP1 SWAP2 MUL OR SWAP1 SSTORE JUMP JUMPDEST PUSH0 PUSH1 0x4 SLOAD PUSH1 0x1 PUSH1 0xA8 SHL SWAP1 DIV PUSH1 0xFF AND PUSH1 0x2 DUP2 GT ISZERO PUSH2 0xA66 JUMPI PUSH2 0xA66 PUSH2 0x1039 JUMP JUMPDEST EQ PUSH2 0xAAC JUMPI PUSH1 0x40 MLOAD PUSH3 0x461BCD PUSH1 0xE5 SHL DUP2 MSTORE PUSH1 0x20 PUSH1 0x4 DUP3 ADD MSTORE PUSH1 0x16 PUSH1 0x24 DUP3 ADD MSTORE PUSH22 0x43616D706167696E206973206E6F7420416374697665 PUSH1 0x50 SHL PUSH1 0x44 DUP3 ADD MSTORE PUSH1 0x64 ADD PUSH2 0x506 JUMP JUMPDEST PUSH1 0x4 SLOAD PUSH1 0x1 PUSH1 0xA0 SHL SWAP1 DIV PUSH1 0xFF AND ISZERO PUSH2 0xAFC JUMPI PUSH1 0x40 MLOAD PUSH3 0x461BCD PUSH1 0xE5 SHL DUP2 MSTORE PUSH1 0x20 PUSH1 0x4 DUP3 ADD MSTORE PUSH1 0x13 PUSH1 0x24 DUP3 ADD MSTORE PUSH19 0x31B7B73A3930B1BA1034B9903830BAB9B2B217 PUSH1 0x69 SHL PUSH1 0x44 DUP3 ADD MSTORE PUSH1 0x64 ADD PUSH2 0x506 JUMP JUMPDEST PUSH1 0x3 SLOAD TIMESTAMP LT PUSH2 0xB42 JUMPI PUSH1 0x40 MLOAD PUSH3 0x461BCD PUSH1 0xE5 SHL DUP2 MSTORE PUSH1 0x20 PUSH1 0x4 DUP3 ADD MSTORE PUSH1 0x12 PUSH1 0x24 DUP3 ADD MSTORE PUSH18 0x10DBDB5C1859DA5B881A185CC8195B991959 PUSH1 0x72 SHL PUSH1 0x44 DUP3 ADD MSTORE PUSH1 0x64 ADD PUSH2 0x506 JUMP JUMPDEST PUSH1 0x5 SLOAD DUP2 LT PUSH2 0xB82 JUMPI PUSH1 0x40 MLOAD PUSH3 0x461BCD PUSH1 0xE5 SHL DUP2 MSTORE PUSH1 0x20 PUSH1 0x4 DUP3 ADD MSTORE PUSH1 0xC PUSH1 0x24 DUP3 ADD MSTORE PUSH12 0x24B73B30B634B2102A34B2B9 PUSH1 0xA1 SHL PUSH1 0x44 DUP3 ADD MSTORE PUSH1 0x64 ADD PUSH2 0x506 JUMP JUMPDEST PUSH1 0x5 DUP2 DUP2 SLOAD DUP2 LT PUSH2 0xB95 JUMPI PUSH2 0xB95 PUSH2 0x11A6 JUMP JUMPDEST SWAP1 PUSH0 MSTORE PUSH1 0x20 PUSH0 KECCAK256 SWAP1 PUSH1 0x3 MUL ADD PUSH1 0x1 ADD SLOAD CALLVALUE EQ PUSH2 0xBE6 JUMPI PUSH1 0x40 MLOAD PUSH3 0x461BCD PUSH1 0xE5 SHL DUP2 MSTORE PUSH1 0x20 PUSH1 0x4 DUP3 ADD MSTORE PUSH1 0x10 PUSH1 0x24 DUP3 ADD MSTORE PUSH16 0x125B98DBDC9C9958DD08185B5BDD5B9D PUSH1 0x82 SHL PUSH1 0x44 DUP3 ADD MSTORE PUSH1 0x64 ADD PUSH2 0x506 JUMP JUMPDEST PUSH1 0x5 DUP2 DUP2 SLOAD DUP2 LT PUSH2 0xBF9 JUMPI PUSH2 0xBF9 PUSH2 0x11A6 JUMP JUMPDEST PUSH0 SWAP2 DUP3 MSTORE PUSH1 0x20 DUP3 KECCAK256 PUSH1 0x2 PUSH1 0x3 SWAP1 SWAP3 MUL ADD ADD DUP1 SLOAD SWAP2 PUSH2 0xC16 DUP4 PUSH2 0x13A5 JUMP JUMPDEST SWAP1 SWAP2 SSTORE POP POP CALLER PUSH0 SWAP1 DUP2 MSTORE PUSH1 0x6 PUSH1 0x20 MSTORE PUSH1 0x40 DUP2 KECCAK256 DUP1 SLOAD CALLVALUE SWAP3 SWAP1 PUSH2 0xC39 SWAP1 DUP5 SWAP1 PUSH2 0x1180 JUMP JUMPDEST SWAP1 SWAP2 SSTORE POP POP CALLER PUSH0 SWAP1 DUP2 MSTORE PUSH1 0x6 PUSH1 0x20 SWAP1 DUP2 MSTORE PUSH1 0x40 DUP1 DUP4 KECCAK256 DUP5 DUP5 MSTORE PUSH1 0x1 SWAP1 DUP2 ADD SWAP1 SWAP3 MSTORE SWAP1 SWAP2 KECCAK256 DUP1 SLOAD PUSH1 0xFF NOT AND SWAP1 SWAP2 OR SWAP1 SSTORE PUSH2 0xC70 PUSH2 0xDCC JUMP JUMPDEST POP JUMP JUMPDEST PUSH1 0x60 PUSH1 0x5 DUP1 SLOAD DUP1 PUSH1 0x20 MUL PUSH1 0x20 ADD PUSH1 0x40 MLOAD SWAP1 DUP2 ADD PUSH1 0x40 MSTORE DUP1 SWAP3 SWAP2 SWAP1 DUP2 DUP2 MSTORE PUSH1 0x20 ADD PUSH0 SWAP1 JUMPDEST DUP3 DUP3 LT ISZERO PUSH2 0xD69 JUMPI DUP4 DUP3 SWAP1 PUSH0 MSTORE PUSH1 0x20 PUSH0 KECCAK256 SWAP1 PUSH1 0x3 MUL ADD PUSH1 0x40 MLOAD DUP1 PUSH1 0x60 ADD PUSH1 0x40 MSTORE SWAP1 DUP2 PUSH0 DUP3 ADD DUP1 SLOAD PUSH2 0xCC6 SWAP1 PUSH2 0x10F6 JUMP JUMPDEST DUP1 PUSH1 0x1F ADD PUSH1 0x20 DUP1 SWAP2 DIV MUL PUSH1 0x20 ADD PUSH1 0x40 MLOAD SWAP1 DUP2 ADD PUSH1 0x40 MSTORE DUP1 SWAP3 SWAP2 SWAP1 DUP2 DUP2 MSTORE PUSH1 0x20 ADD DUP3 DUP1 SLOAD PUSH2 0xCF2 SWAP1 PUSH2 0x10F6 JUMP JUMPDEST DUP1 ISZERO PUSH2 0xD3D JUMPI DUP1 PUSH1 0x1F LT PUSH2 0xD14 JUMPI PUSH2 0x100 DUP1 DUP4 SLOAD DIV MUL DUP4 MSTORE SWAP2 PUSH1 0x20 ADD SWAP2 PUSH2 0xD3D JUMP JUMPDEST DUP3 ADD SWAP2 SWAP1 PUSH0 MSTORE PUSH1 0x20 PUSH0 KECCAK256 SWAP1 JUMPDEST DUP2 SLOAD DUP2 MSTORE SWAP1 PUSH1 0x1 ADD SWAP1 PUSH1 0x20 ADD DUP1 DUP4 GT PUSH2 0xD20 JUMPI DUP3 SWAP1 SUB PUSH1 0x1F AND DUP3 ADD SWAP2 JUMPDEST POP POP POP POP POP DUP2 MSTORE PUSH1 0x20 ADD PUSH1 0x1 DUP3 ADD SLOAD DUP2 MSTORE PUSH1 0x20 ADD PUSH1 0x2 DUP3 ADD SLOAD DUP2 MSTORE POP POP DUP2 MSTORE PUSH1 0x20 ADD SWAP1 PUSH1 0x1 ADD SWAP1 PUSH2 0xC96 JUMP JUMPDEST POP POP POP POP SWAP1 POP SWAP1 JUMP JUMPDEST PUSH0 DUP1 PUSH1 0x4 SLOAD PUSH1 0x1 PUSH1 0xA8 SHL SWAP1 DIV PUSH1 0xFF AND PUSH1 0x2 DUP2 GT ISZERO PUSH2 0xD92 JUMPI PUSH2 0xD92 PUSH2 0x1039 JUMP JUMPDEST EQ DUP1 ISZERO PUSH2 0xDA0 JUMPI POP PUSH1 0x3 SLOAD TIMESTAMP GT JUMPDEST ISZERO PUSH2 0xDBB JUMPI PUSH1 0x2 SLOAD SELFBALANCE LT ISZERO PUSH2 0xDB5 JUMPI POP PUSH1 0x2 SWAP1 JUMP JUMPDEST POP PUSH1 0x1 SWAP1 JUMP JUMPDEST POP PUSH1 0x4 SLOAD PUSH1 0x1 PUSH1 0xA8 SHL SWAP1 DIV PUSH1 0xFF AND SWAP1 JUMP JUMPDEST PUSH0 PUSH1 0x4 SLOAD PUSH1 0x1 PUSH1 0xA8 SHL SWAP1 DIV PUSH1 0xFF AND PUSH1 0x2 DUP2 GT ISZERO PUSH2 0xDEB JUMPI PUSH2 0xDEB PUSH2 0x1039 JUMP JUMPDEST SUB PUSH2 0xE46 JUMPI PUSH1 0x3 SLOAD TIMESTAMP LT PUSH2 0xE36 JUMPI PUSH1 0x2 SLOAD SELFBALANCE LT ISZERO PUSH2 0xE0A JUMPI PUSH1 0x2 PUSH2 0xE0D JUMP JUMPDEST PUSH1 0x1 JUMPDEST PUSH1 0x4 DUP1 SLOAD PUSH1 0xFF PUSH1 0xA8 SHL NOT AND PUSH1 0x1 PUSH1 0xA8 SHL DUP4 PUSH1 0x2 DUP2 GT ISZERO PUSH2 0xE2F JUMPI PUSH2 0xE2F PUSH2 0x1039 JUMP JUMPDEST MUL OR SWAP1 SSTORE POP JUMP JUMPDEST PUSH1 0x2 SLOAD SELFBALANCE LT ISZERO PUSH2 0xE0A JUMPI PUSH0 PUSH2 0xE0D JUMP JUMPDEST JUMP JUMPDEST POP DUP1 SLOAD PUSH2 0xE54 SWAP1 PUSH2 0x10F6 JUMP JUMPDEST PUSH0 DUP3 SSTORE DUP1 PUSH1 0x1F LT PUSH2 0xE63 JUMPI POP POP JUMP JUMPDEST PUSH1 0x1F ADD PUSH1 0x20 SWAP1 DIV SWAP1 PUSH0 MSTORE PUSH1 0x20 PUSH0 KECCAK256 SWAP1 DUP2 ADD SWAP1 PUSH2 0xC70 SWAP2 SWAP1 JUMPDEST DUP1 DUP3 GT ISZERO PUSH2 0xE8E JUMPI PUSH0 DUP2 SSTORE PUSH1 0x1 ADD PUSH2 0xE7B JUMP JUMPDEST POP SWAP1 JUMP JUMPDEST PUSH0 PUSH1 0x20 DUP3 DUP5 SUB SLT ISZERO PUSH2 0xEA2 JUMPI PUSH0 PUSH0 REVERT JUMPDEST POP CALLDATALOAD SWAP2 SWAP1 POP JUMP JUMPDEST PUSH0 DUP2 MLOAD DUP1 DUP5 MSTORE DUP1 PUSH1 0x20 DUP5 ADD PUSH1 0x20 DUP7 ADD MCOPY PUSH0 PUSH1 0x20 DUP3 DUP7 ADD ADD MSTORE PUSH1 0x20 PUSH1 0x1F NOT PUSH1 0x1F DUP4 ADD AND DUP6 ADD ADD SWAP2 POP POP SWAP3 SWAP2 POP POP JUMP JUMPDEST PUSH1 0x60 DUP2 MSTORE PUSH0 PUSH2 0xEE9 PUSH1 0x60 DUP4 ADD DUP7 PUSH2 0xEA9 JUMP JUMPDEST PUSH1 0x20 DUP4 ADD SWAP5 SWAP1 SWAP5 MSTORE POP PUSH1 0x40 ADD MSTORE SWAP2 SWAP1 POP JUMP JUMPDEST PUSH1 0x20 DUP2 MSTORE PUSH0 PUSH2 0xF0D PUSH1 0x20 DUP4 ADD DUP5 PUSH2 0xEA9 JUMP JUMPDEST SWAP4 SWAP3 POP POP POP JUMP JUMPDEST DUP1 CALLDATALOAD PUSH1 0x1 PUSH1 0x1 PUSH1 0xA0 SHL SUB DUP2 AND DUP2 EQ PUSH2 0xF2A JUMPI PUSH0 PUSH0 REVERT JUMPDEST SWAP2 SWAP1 POP JUMP JUMPDEST PUSH0 PUSH0 PUSH1 0x40 DUP4 DUP6 SUB SLT ISZERO PUSH2 0xF40 JUMPI PUSH0 PUSH0 REVERT JUMPDEST PUSH2 0xF49 DUP4 PUSH2 0xF14 JUMP JUMPDEST SWAP5 PUSH1 0x20 SWAP4 SWAP1 SWAP4 ADD CALLDATALOAD SWAP4 POP POP POP JUMP JUMPDEST PUSH4 0x4E487B71 PUSH1 0xE0 SHL PUSH0 MSTORE PUSH1 0x41 PUSH1 0x4 MSTORE PUSH1 0x24 PUSH0 REVERT JUMPDEST PUSH0 PUSH0 PUSH1 0x40 DUP4 DUP6 SUB SLT ISZERO PUSH2 0xF7C JUMPI PUSH0 PUSH0 REVERT JUMPDEST DUP3 CALLDATALOAD PUSH8 0xFFFFFFFFFFFFFFFF DUP2 GT ISZERO PUSH2 0xF92 JUMPI PUSH0 PUSH0 REVERT JUMPDEST DUP4 ADD PUSH1 0x1F DUP2 ADD DUP6 SGT PUSH2 0xFA2 JUMPI PUSH0 PUSH0 REVERT JUMPDEST DUP1 CALLDATALOAD PUSH8 0xFFFFFFFFFFFFFFFF DUP2 GT ISZERO PUSH2 0xFBC JUMPI PUSH2 0xFBC PUSH2 0xF57 JUMP JUMPDEST PUSH1 0x40 MLOAD PUSH1 0x1F DUP3 ADD PUSH1 0x1F NOT SWAP1 DUP2 AND PUSH1 0x3F ADD AND DUP2 ADD PUSH8 0xFFFFFFFFFFFFFFFF DUP2 GT DUP3 DUP3 LT OR ISZERO PUSH2 0xFEB JUMPI PUSH2 0xFEB PUSH2 0xF57 JUMP JUMPDEST PUSH1 0x40 MSTORE DUP2 DUP2 MSTORE DUP3 DUP3 ADD PUSH1 0x20 ADD DUP8 LT ISZERO PUSH2 0x1002 JUMPI PUSH0 PUSH0 REVERT JUMPDEST DUP2 PUSH1 0x20 DUP5 ADD PUSH1 0x20 DUP4 ADD CALLDATACOPY PUSH0 PUSH1 0x20 SWAP3 DUP3 ADD DUP4 ADD MSTORE SWAP7 SWAP5 ADD CALLDATALOAD SWAP5 POP POP POP POP JUMP JUMPDEST PUSH0 PUSH1 0x20 DUP3 DUP5 SUB SLT ISZERO PUSH2 0x1030 JUMPI PUSH0 PUSH0 REVERT JUMPDEST PUSH2 0xF0D DUP3 PUSH2 0xF14 JUMP JUMPDEST PUSH4 0x4E487B71 PUSH1 0xE0 SHL PUSH0 MSTORE PUSH1 0x21 PUSH1 0x4 MSTORE PUSH1 0x24 PUSH0 REVERT JUMPDEST PUSH1 0x20 DUP2 ADD PUSH1 0x3 DUP4 LT PUSH2 0x106D JUMPI PUSH4 0x4E487B71 PUSH1 0xE0 SHL PUSH0 MSTORE PUSH1 0x21 PUSH1 0x4 MSTORE PUSH1 0x24 PUSH0 REVERT JUMPDEST SWAP2 SWAP1 MSTORE SWAP1 JUMP JUMPDEST PUSH0 PUSH1 0x20 DUP3 ADD PUSH1 0x20 DUP4 MSTORE DUP1 DUP5 MLOAD DUP1 DUP4 MSTORE PUSH1 0x40 DUP6 ADD SWAP2 POP PUSH1 0x40 DUP2 PUSH1 0x5 SHL DUP7 ADD ADD SWAP3 POP PUSH1 0x20 DUP7 ADD PUSH0 JUMPDEST DUP3 DUP2 LT ISZERO PUSH2 0x10EA JUMPI PUSH1 0x3F NOT DUP8 DUP7 SUB ADD DUP5 MSTORE DUP2 MLOAD DUP1 MLOAD PUSH1 0x60 DUP8 MSTORE PUSH2 0x10BF PUSH1 0x60 DUP9 ADD DUP3 PUSH2 0xEA9 JUMP JUMPDEST PUSH1 0x20 DUP4 DUP2 ADD MLOAD DUP10 DUP3 ADD MSTORE PUSH1 0x40 SWAP4 DUP5 ADD MLOAD SWAP4 SWAP1 SWAP9 ADD SWAP3 SWAP1 SWAP3 MSTORE POP SWAP5 SWAP4 DUP5 ADD SWAP4 SWAP2 SWAP1 SWAP2 ADD SWAP1 PUSH1 0x1 ADD PUSH2 0x1099 JUMP JUMPDEST POP SWAP3 SWAP7 SWAP6 POP POP POP POP POP POP JUMP JUMPDEST PUSH1 0x1 DUP2 DUP2 SHR SWAP1 DUP3 AND DUP1 PUSH2 0x110A JUMPI PUSH1 0x7F DUP3 AND SWAP2 POP JUMPDEST PUSH1 0x20 DUP3 LT DUP2 SUB PUSH2 0x1128 JUMPI PUSH4 0x4E487B71 PUSH1 0xE0 SHL PUSH0 MSTORE PUSH1 0x22 PUSH1 0x4 MSTORE PUSH1 0x24 PUSH0 REVERT JUMPDEST POP SWAP2 SWAP1 POP JUMP JUMPDEST PUSH1 0x20 DUP1 DUP3 MSTORE PUSH1 0xD SWAP1 DUP3 ADD MSTORE PUSH13 0x2737BA103A34329037BBB732B9 PUSH1 0x99 SHL PUSH1 0x40 DUP3 ADD MSTORE PUSH1 0x60 ADD SWAP1 JUMP JUMPDEST PUSH4 0x4E487B71 PUSH1 0xE0 SHL PUSH0 MSTORE PUSH1 0x11 PUSH1 0x4 MSTORE PUSH1 0x24 PUSH0 REVERT JUMPDEST DUP1 DUP3 MUL DUP2 ISZERO DUP3 DUP3 DIV DUP5 EQ OR PUSH2 0x910 JUMPI PUSH2 0x910 PUSH2 0x1155 JUMP JUMPDEST DUP1 DUP3 ADD DUP1 DUP3 GT ISZERO PUSH2 0x910 JUMPI PUSH2 0x910 PUSH2 0x1155 JUMP JUMPDEST DUP2 DUP2 SUB DUP2 DUP2 GT ISZERO PUSH2 0x910 JUMPI PUSH2 0x910 PUSH2 0x1155 JUMP JUMPDEST PUSH4 0x4E487B71 PUSH1 0xE0 SHL PUSH0 MSTORE PUSH1 0x32 PUSH1 0x4 MSTORE PUSH1 0x24 PUSH0 REVERT JUMPDEST PUSH1 0x1F DUP3 GT ISZERO PUSH2 0x1201 JUMPI DUP1 PUSH0 MSTORE PUSH1 0x20 PUSH0 KECCAK256 PUSH1 0x1F DUP5 ADD PUSH1 0x5 SHR DUP2 ADD PUSH1 0x20 DUP6 LT ISZERO PUSH2 0x11DF JUMPI POP DUP1 JUMPDEST PUSH1 0x1F DUP5 ADD PUSH1 0x5 SHR DUP3 ADD SWAP2 POP JUMPDEST DUP2 DUP2 LT ISZERO PUSH2 0x11FE JUMPI PUSH0 DUP2 SSTORE PUSH1 0x1 ADD PUSH2 0x11EB JUMP JUMPDEST POP POP JUMPDEST POP POP POP JUMP JUMPDEST DUP2 DUP2 SUB PUSH2 0x1211 JUMPI POP POP JUMP JUMPDEST PUSH2 0x121B DUP3 SLOAD PUSH2 0x10F6 JUMP JUMPDEST PUSH8 0xFFFFFFFFFFFFFFFF DUP2 GT ISZERO PUSH2 0x1233 JUMPI PUSH2 0x1233 PUSH2 0xF57 JUMP JUMPDEST PUSH2 0x1247 DUP2 PUSH2 0x1241 DUP5 SLOAD PUSH2 0x10F6 JUMP JUMPDEST DUP5 PUSH2 0x11BA JUMP JUMPDEST PUSH0 PUSH1 0x1F DUP3 GT PUSH1 0x1 DUP2 EQ PUSH2 0x127B JUMPI PUSH0 DUP4 ISZERO PUSH2 0x1261 JUMPI POP DUP5 DUP3 ADD SLOAD JUMPDEST PUSH1 0x1 DUP5 SWAP1 SHL PUSH0 NOT PUSH1 0x3 DUP7 SWAP1 SHL SHR NOT DUP3 AND OR JUMPDEST DUP6 SSTORE POP PUSH2 0x11FE JUMP JUMPDEST PUSH0 DUP6 DUP2 MSTORE PUSH1 0x20 DUP1 DUP3 KECCAK256 DUP7 DUP4 MSTORE SWAP1 DUP3 KECCAK256 PUSH1 0x1F NOT DUP7 AND SWAP3 JUMPDEST DUP4 DUP2 LT ISZERO PUSH2 0x12B1 JUMPI DUP3 DUP7 ADD SLOAD DUP3 SSTORE PUSH1 0x1 SWAP6 DUP7 ADD SWAP6 SWAP1 SWAP2 ADD SWAP1 PUSH1 0x20 ADD PUSH2 0x1291 JUMP JUMPDEST POP DUP6 DUP4 LT ISZERO PUSH2 0x12CE JUMPI DUP2 DUP6 ADD SLOAD PUSH0 NOT PUSH1 0x3 DUP9 SWAP1 SHL PUSH1 0xF8 AND SHR NOT AND DUP2 SSTORE JUMPDEST POP POP POP POP POP PUSH1 0x1 SWAP1 DUP2 SHL ADD SWAP1 SSTORE POP JUMP JUMPDEST PUSH4 0x4E487B71 PUSH1 0xE0 SHL PUSH0 MSTORE PUSH1 0x31 PUSH1 0x4 MSTORE PUSH1 0x24 PUSH0 REVERT JUMPDEST DUP2 MLOAD PUSH8 0xFFFFFFFFFFFFFFFF DUP2 GT ISZERO PUSH2 0x130C JUMPI PUSH2 0x130C PUSH2 0xF57 JUMP JUMPDEST PUSH2 0x131A DUP2 PUSH2 0x1241 DUP5 SLOAD PUSH2 0x10F6 JUMP JUMPDEST PUSH1 0x20 PUSH1 0x1F DUP3 GT PUSH1 0x1 DUP2 EQ PUSH2 0x134A JUMPI PUSH0 DUP4 ISZERO PUSH2 0x1261 JUMPI POP DUP2 DUP6 ADD MLOAD PUSH1 0x1 DUP5 SWAP1 SHL PUSH0 NOT PUSH1 0x3 DUP7 SWAP1 SHL SHR NOT DUP3 AND OR PUSH2 0x1273 JUMP JUMPDEST PUSH0 DUP5 DUP2 MSTORE PUSH1 0x20 DUP2 KECCAK256 PUSH1 0x1F NOT DUP6 AND SWAP2 JUMPDEST DUP3 DUP2 LT ISZERO PUSH2 0x1379 JUMPI DUP8 DUP6 ADD MLOAD DUP3 SSTORE PUSH1 0x20 SWAP5 DUP6 ADD SWAP5 PUSH1 0x1 SWAP1 SWAP3 ADD SWAP2 ADD PUSH2 0x1359 JUMP JUMPDEST POP DUP5 DUP3 LT ISZERO PUSH2 0x1396 JUMPI DUP7 DUP5 ADD MLOAD PUSH0 NOT PUSH1 0x3 DUP8 SWAP1 SHL PUSH1 0xF8 AND SHR NOT AND DUP2 SSTORE JUMPDEST POP POP POP POP PUSH1 0x1 SWAP1 DUP2 SHL ADD SWAP1 SSTORE POP JUMP JUMPDEST PUSH0 PUSH1 0x1 DUP3 ADD PUSH2 0x13B6 JUMPI PUSH2 0x13B6 PUSH2 0x1155 JUMP JUMPDEST POP PUSH1 0x1 ADD SWAP1 JUMP INVALID LOG2 PUSH5 0x6970667358 0x22 SLT KECCAK256 PUSH2 0xAFCE EXTCODESIZE ISZERO RETF JUMPDEST 0x26 PUSH11 0x5C86E231E668021BBF89CC PUSH25 0x91F89994E57ACE38593BCB64736F6C634300081E0033000000 "
				},
				"gasEstimates": {
					"creation": {
						"codeDepositCost": "1021400",
						"executionCost": "infinite",
						"totalCost": "infinite"
					},
					"external": {
						"addTier(string,uint256)": "infinite",
						"backers(address)": "2627",
						"deadline()": "2362",
						"description()": "infinite",
						"extendDeadline(uint256)": "infinite",
						"fund(uint256)": "119102",
						"getCampaginStatus()": "6799",
						"getContractBalance()": "282",
						"getTiers()": "infinite",
						"goal()": "2317",
						"hasFundedTier(address,uint256)": "2712",
						"name()": "infinite",
						"owner()": "2403",
						"paused()": "2393",
						"refund()": "infinite",
						"removeTier(uint256)": "infinite",
						"state()": "2389",
						"tiers(uint256)": "infinite",
						"togglePause()": "26600",
						"withdraw()": "infinite"
					},
					"internal": {
						"checkAndUpdateCampaignState()": "30714"
					}
				},
				"methodIdentifiers": {
					"addTier(string,uint256)": "8ece7b91",
					"backers(address)": "b85dfb80",
					"deadline()": "29dcb0cf",
					"description()": "7284e416",
					"extendDeadline(uint256)": "389b7533",
					"fund(uint256)": "ca1d209d",
					"getCampaginStatus()": "e5e3c065",
					"getContractBalance()": "6f9fb98a",
					"getTiers()": "de170570",
					"goal()": "40193883",
					"hasFundedTier(address,uint256)": "7adba527",
					"name()": "06fdde03",
					"owner()": "8da5cb5b",
					"paused()": "5c975abb",
					"refund()": "590e1ae3",
					"removeTier(uint256)": "7497211b",
					"state()": "c19d93fb",
					"tiers(uint256)": "039af9eb",
					"togglePause()": "c4ae3168",
					"withdraw()": "3ccfd60b"
				}
			},
			"storageLayout": {
				"storage": [
					{
						"astId": 3,
						"contract": "contracts/Crowdfunding.sol:Crowdfunding",
						"label": "name",
						"offset": 0,
						"slot": "0",
						"type": "t_string_storage"
					},
					{
						"astId": 5,
						"contract": "contracts/Crowdfunding.sol:Crowdfunding",
						"label": "description",
						"offset": 0,
						"slot": "1",
						"type": "t_string_storage"
					},
					{
						"astId": 7,
						"contract": "contracts/Crowdfunding.sol:Crowdfunding",
						"label": "goal",
						"offset": 0,
						"slot": "2",
						"type": "t_uint256"
					},
					{
						"astId": 9,
						"contract": "contracts/Crowdfunding.sol:Crowdfunding",
						"label": "deadline",
						"offset": 0,
						"slot": "3",
						"type": "t_uint256"
					},
					{
						"astId": 11,
						"contract": "contracts/Crowdfunding.sol:Crowdfunding",
						"label": "owner",
						"offset": 0,
						"slot": "4",
						"type": "t_address"
					},
					{
						"astId": 13,
						"contract": "contracts/Crowdfunding.sol:Crowdfunding",
						"label": "paused",
						"offset": 20,
						"slot": "4",
						"type": "t_bool"
					},
					{
						"astId": 20,
						"contract": "contracts/Crowdfunding.sol:Crowdfunding",
						"label": "state",
						"offset": 21,
						"slot": "4",
						"type": "t_enum(CampaignState)17"
					},
					{
						"astId": 38,
						"contract": "contracts/Crowdfunding.sol:Crowdfunding",
						"label": "tiers",
						"offset": 0,
						"slot": "5",
						"type": "t_array(t_struct(Tier)27_storage)dyn_storage"
					},
					{
						"astId": 43,
						"contract": "contracts/Crowdfunding.sol:Crowdfunding",
						"label": "backers",
						"offset": 0,
						"slot": "6",
						"type": "t_mapping(t_address,t_struct(Backer)34_storage)"
					}
				],
				"types": {
					"t_address": {
						"encoding": "inplace",
						"label": "address",
						"numberOfBytes": "20"
					},
					"t_array(t_struct(Tier)27_storage)dyn_storage": {
						"base": "t_struct(Tier)27_storage",
						"encoding": "dynamic_array",
						"label": "struct Crowdfunding.Tier[]",
						"numberOfBytes": "32"
					},
					"t_bool": {
						"encoding": "inplace",
						"label": "bool",
						"numberOfBytes": "1"
					},
					"t_enum(CampaignState)17": {
						"encoding": "inplace",
						"label": "enum Crowdfunding.CampaignState",
						"numberOfBytes": "1"
					},
					"t_mapping(t_address,t_struct(Backer)34_storage)": {
						"encoding": "mapping",
						"key": "t_address",
						"label": "mapping(address => struct Crowdfunding.Backer)",
						"numberOfBytes": "32",
						"value": "t_struct(Backer)34_storage"
					},
					"t_mapping(t_uint256,t_bool)": {
						"encoding": "mapping",
						"key": "t_uint256",
						"label": "mapping(uint256 => bool)",
						"numberOfBytes": "32",
						"value": "t_bool"
					},
					"t_string_storage": {
						"encoding": "bytes",
						"label": "string",
						"numberOfBytes": "32"
					},
					"t_struct(Backer)34_storage": {
						"encoding": "inplace",
						"label": "struct Crowdfunding.Backer",
						"members": [
							{
								"astId": 29,
								"contract": "contracts/Crowdfunding.sol:Crowdfunding",
								"label": "totalContribution",
								"offset": 0,
								"slot": "0",
								"type": "t_uint256"
							},
							{
								"astId": 33,
								"contract": "contracts/Crowdfunding.sol:Crowdfunding",
								"label": "fundedTiers",
								"offset": 0,
								"slot": "1",
								"type": "t_mapping(t_uint256,t_bool)"
							}
						],
						"numberOfBytes": "64"
					},
					"t_struct(Tier)27_storage": {
						"encoding": "inplace",
						"label": "struct Crowdfunding.Tier",
						"members": [
							{
								"astId": 22,
								"contract": "contracts/Crowdfunding.sol:Crowdfunding",
								"label": "name",
								"offset": 0,
								"slot": "0",
								"type": "t_string_storage"
							},
							{
								"astId": 24,
								"contract": "contracts/Crowdfunding.sol:Crowdfunding",
								"label": "amount",
								"offset": 0,
								"slot": "1",
								"type": "t_uint256"
							},
							{
								"astId": 26,
								"contract": "contracts/Crowdfunding.sol:Crowdfunding",
								"label": "backers",
								"offset": 0,
								"slot": "2",
								"type": "t_uint256"
							}
						],
						"numberOfBytes": "96"
					},
					"t_uint256": {
						"encoding": "inplace",
						"label": "uint256",
						"numberOfBytes": "32"
					}
				}
			},
			"userdoc": {
				"kind": "user",
				"methods": {},
				"version": 1
			}
		}
	}
}